{
  "contractName": "BYX",
  "abi": [
    {
      "inputs": [],
      "stateMutability": "nonpayable",
      "type": "constructor"
    },
    {
      "anonymous": false,
      "inputs": [
        {
          "indexed": true,
          "internalType": "address",
          "name": "owner",
          "type": "address"
        },
        {
          "indexed": true,
          "internalType": "address",
          "name": "spender",
          "type": "address"
        },
        {
          "indexed": false,
          "internalType": "uint256",
          "name": "value",
          "type": "uint256"
        }
      ],
      "name": "Approval",
      "type": "event"
    },
    {
      "anonymous": false,
      "inputs": [
        {
          "indexed": false,
          "internalType": "address",
          "name": "user",
          "type": "address"
        }
      ],
      "name": "LogBadCall",
      "type": "event"
    },
    {
      "anonymous": false,
      "inputs": [
        {
          "indexed": false,
          "internalType": "address",
          "name": "user",
          "type": "address"
        },
        {
          "indexed": false,
          "internalType": "uint256",
          "name": "quantity",
          "type": "uint256"
        }
      ],
      "name": "LogDepot",
      "type": "event"
    },
    {
      "anonymous": false,
      "inputs": [
        {
          "indexed": true,
          "internalType": "address",
          "name": "previousOwner",
          "type": "address"
        },
        {
          "indexed": true,
          "internalType": "address",
          "name": "newOwner",
          "type": "address"
        }
      ],
      "name": "OwnershipTransferred",
      "type": "event"
    },
    {
      "anonymous": false,
      "inputs": [
        {
          "indexed": true,
          "internalType": "address",
          "name": "from",
          "type": "address"
        },
        {
          "indexed": true,
          "internalType": "address",
          "name": "to",
          "type": "address"
        },
        {
          "indexed": false,
          "internalType": "uint256",
          "name": "value",
          "type": "uint256"
        }
      ],
      "name": "Transfer",
      "type": "event"
    },
    {
      "stateMutability": "nonpayable",
      "type": "fallback"
    },
    {
      "inputs": [
        {
          "internalType": "address",
          "name": "owner",
          "type": "address"
        },
        {
          "internalType": "address",
          "name": "spender",
          "type": "address"
        }
      ],
      "name": "allowance",
      "outputs": [
        {
          "internalType": "uint256",
          "name": "",
          "type": "uint256"
        }
      ],
      "stateMutability": "view",
      "type": "function",
      "constant": true
    },
    {
      "inputs": [
        {
          "internalType": "address",
          "name": "spender",
          "type": "address"
        },
        {
          "internalType": "uint256",
          "name": "amount",
          "type": "uint256"
        }
      ],
      "name": "approve",
      "outputs": [
        {
          "internalType": "bool",
          "name": "",
          "type": "bool"
        }
      ],
      "stateMutability": "nonpayable",
      "type": "function"
    },
    {
      "inputs": [
        {
          "internalType": "address",
          "name": "account",
          "type": "address"
        }
      ],
      "name": "balanceOf",
      "outputs": [
        {
          "internalType": "uint256",
          "name": "",
          "type": "uint256"
        }
      ],
      "stateMutability": "view",
      "type": "function",
      "constant": true
    },
    {
      "inputs": [],
      "name": "decimals",
      "outputs": [
        {
          "internalType": "uint8",
          "name": "",
          "type": "uint8"
        }
      ],
      "stateMutability": "view",
      "type": "function",
      "constant": true
    },
    {
      "inputs": [
        {
          "internalType": "address",
          "name": "spender",
          "type": "address"
        },
        {
          "internalType": "uint256",
          "name": "subtractedValue",
          "type": "uint256"
        }
      ],
      "name": "decreaseAllowance",
      "outputs": [
        {
          "internalType": "bool",
          "name": "",
          "type": "bool"
        }
      ],
      "stateMutability": "nonpayable",
      "type": "function"
    },
    {
      "inputs": [
        {
          "internalType": "address",
          "name": "spender",
          "type": "address"
        },
        {
          "internalType": "uint256",
          "name": "addedValue",
          "type": "uint256"
        }
      ],
      "name": "increaseAllowance",
      "outputs": [
        {
          "internalType": "bool",
          "name": "",
          "type": "bool"
        }
      ],
      "stateMutability": "nonpayable",
      "type": "function"
    },
    {
      "inputs": [],
      "name": "maxTotalSupply",
      "outputs": [
        {
          "internalType": "uint256",
          "name": "",
          "type": "uint256"
        }
      ],
      "stateMutability": "view",
      "type": "function",
      "constant": true
    },
    {
      "inputs": [],
      "name": "name",
      "outputs": [
        {
          "internalType": "string",
          "name": "",
          "type": "string"
        }
      ],
      "stateMutability": "view",
      "type": "function",
      "constant": true
    },
    {
      "inputs": [],
      "name": "owner",
      "outputs": [
        {
          "internalType": "address",
          "name": "",
          "type": "address"
        }
      ],
      "stateMutability": "view",
      "type": "function",
      "constant": true
    },
    {
      "inputs": [],
      "name": "renounceOwnership",
      "outputs": [],
      "stateMutability": "nonpayable",
      "type": "function"
    },
    {
      "inputs": [],
      "name": "symbol",
      "outputs": [
        {
          "internalType": "string",
          "name": "",
          "type": "string"
        }
      ],
      "stateMutability": "view",
      "type": "function",
      "constant": true
    },
    {
      "inputs": [],
      "name": "totalSupply",
      "outputs": [
        {
          "internalType": "uint256",
          "name": "",
          "type": "uint256"
        }
      ],
      "stateMutability": "view",
      "type": "function",
      "constant": true
    },
    {
      "inputs": [
        {
          "internalType": "address",
          "name": "to",
          "type": "address"
        },
        {
          "internalType": "uint256",
          "name": "amount",
          "type": "uint256"
        }
      ],
      "name": "transfer",
      "outputs": [
        {
          "internalType": "bool",
          "name": "",
          "type": "bool"
        }
      ],
      "stateMutability": "nonpayable",
      "type": "function"
    },
    {
      "inputs": [
        {
          "internalType": "address",
          "name": "from",
          "type": "address"
        },
        {
          "internalType": "address",
          "name": "to",
          "type": "address"
        },
        {
          "internalType": "uint256",
          "name": "amount",
          "type": "uint256"
        }
      ],
      "name": "transferFrom",
      "outputs": [
        {
          "internalType": "bool",
          "name": "",
          "type": "bool"
        }
      ],
      "stateMutability": "nonpayable",
      "type": "function"
    },
    {
      "inputs": [
        {
          "internalType": "address",
          "name": "newOwner",
          "type": "address"
        }
      ],
      "name": "transferOwnership",
      "outputs": [],
      "stateMutability": "nonpayable",
      "type": "function"
    },
    {
      "stateMutability": "payable",
      "type": "receive",
      "payable": true
    },
    {
      "inputs": [
        {
          "internalType": "uint256",
          "name": "_amount",
          "type": "uint256"
        }
      ],
      "name": "withdraw",
      "outputs": [],
      "stateMutability": "nonpayable",
      "type": "function"
    },
    {
      "inputs": [
        {
          "internalType": "address",
          "name": "_recipient",
          "type": "address"
        },
        {
          "internalType": "uint256",
          "name": "_amount",
          "type": "uint256"
        }
      ],
      "name": "mint",
      "outputs": [],
      "stateMutability": "nonpayable",
      "type": "function"
    }
  ],
  "bytecode": "0x60806040526a52b7d2dcc80cd2e40000006006553480156200002057600080fd5b506040518060400160405280600381526020017f42797800000000000000000000000000000000000000000000000000000000008152506040518060400160405280600381526020017f42595800000000000000000000000000000000000000000000000000000000008152508160039080519060200190620000a5929190620001b5565b508060049080519060200190620000be929190620001b5565b505050620000e1620000d5620000e760201b60201c565b620000ef60201b60201c565b620002c9565b600033905090565b6000600560009054906101000a900473ffffffffffffffffffffffffffffffffffffffff16905081600560006101000a81548173ffffffffffffffffffffffffffffffffffffffff021916908373ffffffffffffffffffffffffffffffffffffffff1602179055508173ffffffffffffffffffffffffffffffffffffffff168173ffffffffffffffffffffffffffffffffffffffff167f8be0079c531659141344cd1fd0a4f28419497f9722a3daafe3b4186f6b6457e060405160405180910390a35050565b828054620001c39062000294565b90600052602060002090601f016020900481019282620001e7576000855562000233565b82601f106200020257805160ff191683800117855562000233565b8280016001018555821562000233579182015b828111156200023257825182559160200191906001019062000215565b5b50905062000242919062000246565b5090565b5b808211156200026157600081600090555060010162000247565b5090565b7f4e487b7100000000000000000000000000000000000000000000000000000000600052602260045260246000fd5b60006002820490506001821680620002ad57607f821691505b602082108103620002c357620002c262000265565b5b50919050565b611bcf80620002d96000396000f3fe6080604052600436106101025760003560e01c806340c10f191161009557806395d89b411161006457806395d89b41146103bc578063a457c2d7146103e7578063a9059cbb14610424578063dd62ed3e14610461578063f2fde38b1461049e57610142565b806340c10f191461031457806370a082311461033d578063715018a61461037a5780638da5cb5b1461039157610142565b80632ab4d052116100d15780632ab4d052146102585780632e1a7d4d14610283578063313ce567146102ac57806339509351146102d757610142565b806306fdde0314610188578063095ea7b3146101b357806318160ddd146101f057806323b872dd1461021b57610142565b36610142577f1d76c7e5736b9b335988489baea5b96ec803f8f1194842fe5ce3a6ec85e79b56333460405161013892919061117b565b60405180910390a1005b34801561014e57600080fd5b507fcc97ff3d49208ba08dc7ada5cf9e88e59e047be7d363118838f7af1233c49c433360405161017e91906111a4565b60405180910390a1005b34801561019457600080fd5b5061019d6104c7565b6040516101aa9190611258565b60405180910390f35b3480156101bf57600080fd5b506101da60048036038101906101d591906112d7565b610559565b6040516101e79190611332565b60405180910390f35b3480156101fc57600080fd5b5061020561057c565b604051610212919061134d565b60405180910390f35b34801561022757600080fd5b50610242600480360381019061023d9190611368565b610586565b60405161024f9190611332565b60405180910390f35b34801561026457600080fd5b5061026d6105b5565b60405161027a919061134d565b60405180910390f35b34801561028f57600080fd5b506102aa60048036038101906102a591906113bb565b6105bb565b005b3480156102b857600080fd5b506102c161062f565b6040516102ce9190611404565b60405180910390f35b3480156102e357600080fd5b506102fe60048036038101906102f991906112d7565b610638565b60405161030b9190611332565b60405180910390f35b34801561032057600080fd5b5061033b600480360381019061033691906112d7565b61066f565b005b34801561034957600080fd5b50610364600480360381019061035f919061141f565b6106dc565b604051610371919061134d565b60405180910390f35b34801561038657600080fd5b5061038f610724565b005b34801561039d57600080fd5b506103a6610738565b6040516103b391906111a4565b60405180910390f35b3480156103c857600080fd5b506103d1610762565b6040516103de9190611258565b60405180910390f35b3480156103f357600080fd5b5061040e600480360381019061040991906112d7565b6107f4565b60405161041b9190611332565b60405180910390f35b34801561043057600080fd5b5061044b600480360381019061044691906112d7565b61086b565b6040516104589190611332565b60405180910390f35b34801561046d57600080fd5b506104886004803603810190610483919061144c565b61088e565b604051610495919061134d565b60405180910390f35b3480156104aa57600080fd5b506104c560048036038101906104c0919061141f565b610915565b005b6060600380546104d6906114bb565b80601f0160208091040260200160405190810160405280929190818152602001828054610502906114bb565b801561054f5780601f106105245761010080835404028352916020019161054f565b820191906000526020600020905b81548152906001019060200180831161053257829003601f168201915b5050505050905090565b600080610564610998565b90506105718185856109a0565b600191505092915050565b6000600254905090565b600080610591610998565b905061059e858285610b69565b6105a9858585610bf5565b60019150509392505050565b60065481565b6105c3610e74565b3373ffffffffffffffffffffffffffffffffffffffff16816040516105e79061151d565b60006040518083038185875af1925050503d8060008114610624576040519150601f19603f3d011682016040523d82523d6000602084013e610629565b606091505b50505050565b60006012905090565b600080610643610998565b9050610664818585610655858961088e565b61065f9190611561565b6109a0565b600191505092915050565b610677610e74565b8061068061057c565b60065461068d91906115b7565b10156106ce576040517f08c379a00000000000000000000000000000000000000000000000000000000081526004016106c590611637565b60405180910390fd5b6106d88282610ef2565b5050565b60008060008373ffffffffffffffffffffffffffffffffffffffff1673ffffffffffffffffffffffffffffffffffffffff168152602001908152602001600020549050919050565b61072c610e74565b6107366000611051565b565b6000600560009054906101000a900473ffffffffffffffffffffffffffffffffffffffff16905090565b606060048054610771906114bb565b80601f016020809104026020016040519081016040528092919081815260200182805461079d906114bb565b80156107ea5780601f106107bf576101008083540402835291602001916107ea565b820191906000526020600020905b8154815290600101906020018083116107cd57829003601f168201915b5050505050905090565b6000806107ff610998565b9050600061080d828661088e565b905083811015610852576040517f08c379a0000000000000000000000000000000000000000000000000000000008152600401610849906116c9565b60405180910390fd5b61085f82868684036109a0565b60019250505092915050565b600080610876610998565b9050610883818585610bf5565b600191505092915050565b6000600160008473ffffffffffffffffffffffffffffffffffffffff1673ffffffffffffffffffffffffffffffffffffffff16815260200190815260200160002060008373ffffffffffffffffffffffffffffffffffffffff1673ffffffffffffffffffffffffffffffffffffffff16815260200190815260200160002054905092915050565b61091d610e74565b600073ffffffffffffffffffffffffffffffffffffffff168173ffffffffffffffffffffffffffffffffffffffff160361098c576040517f08c379a00000000000000000000000000000000000000000000000000000000081526004016109839061175b565b60405180910390fd5b61099581611051565b50565b600033905090565b600073ffffffffffffffffffffffffffffffffffffffff168373ffffffffffffffffffffffffffffffffffffffff1603610a0f576040517f08c379a0000000000000000000000000000000000000000000000000000000008152600401610a06906117ed565b60405180910390fd5b600073ffffffffffffffffffffffffffffffffffffffff168273ffffffffffffffffffffffffffffffffffffffff1603610a7e576040517f08c379a0000000000000000000000000000000000000000000000000000000008152600401610a759061187f565b60405180910390fd5b80600160008573ffffffffffffffffffffffffffffffffffffffff1673ffffffffffffffffffffffffffffffffffffffff16815260200190815260200160002060008473ffffffffffffffffffffffffffffffffffffffff1673ffffffffffffffffffffffffffffffffffffffff168152602001908152602001600020819055508173ffffffffffffffffffffffffffffffffffffffff168373ffffffffffffffffffffffffffffffffffffffff167f8c5be1e5ebec7d5bd14f71427d1e84f3dd0314c0f7b2291e5b200ac8c7c3b92583604051610b5c919061134d565b60405180910390a3505050565b6000610b75848461088e565b90507fffffffffffffffffffffffffffffffffffffffffffffffffffffffffffffffff8114610bef5781811015610be1576040517f08c379a0000000000000000000000000000000000000000000000000000000008152600401610bd8906118eb565b60405180910390fd5b610bee84848484036109a0565b5b50505050565b600073ffffffffffffffffffffffffffffffffffffffff168373ffffffffffffffffffffffffffffffffffffffff1603610c64576040517f08c379a0000000000000000000000000000000000000000000000000000000008152600401610c5b9061197d565b60405180910390fd5b600073ffffffffffffffffffffffffffffffffffffffff168273ffffffffffffffffffffffffffffffffffffffff1603610cd3576040517f08c379a0000000000000000000000000000000000000000000000000000000008152600401610cca90611a0f565b60405180910390fd5b610cde838383611117565b60008060008573ffffffffffffffffffffffffffffffffffffffff1673ffffffffffffffffffffffffffffffffffffffff16815260200190815260200160002054905081811015610d64576040517f08c379a0000000000000000000000000000000000000000000000000000000008152600401610d5b90611aa1565b60405180910390fd5b8181036000808673ffffffffffffffffffffffffffffffffffffffff1673ffffffffffffffffffffffffffffffffffffffff16815260200190815260200160002081905550816000808573ffffffffffffffffffffffffffffffffffffffff1673ffffffffffffffffffffffffffffffffffffffff1681526020019081526020016000206000828254610df79190611561565b925050819055508273ffffffffffffffffffffffffffffffffffffffff168473ffffffffffffffffffffffffffffffffffffffff167fddf252ad1be2c89b69c2b068fc378daa952ba7f163c4a11628f55a4df523b3ef84604051610e5b919061134d565b60405180910390a3610e6e84848461111c565b50505050565b610e7c610998565b73ffffffffffffffffffffffffffffffffffffffff16610e9a610738565b73ffffffffffffffffffffffffffffffffffffffff1614610ef0576040517f08c379a0000000000000000000000000000000000000000000000000000000008152600401610ee790611b0d565b60405180910390fd5b565b600073ffffffffffffffffffffffffffffffffffffffff168273ffffffffffffffffffffffffffffffffffffffff1603610f61576040517f08c379a0000000000000000000000000000000000000000000000000000000008152600401610f5890611b79565b60405180910390fd5b610f6d60008383611117565b8060026000828254610f7f9190611561565b92505081905550806000808473ffffffffffffffffffffffffffffffffffffffff1673ffffffffffffffffffffffffffffffffffffffff1681526020019081526020016000206000828254610fd49190611561565b925050819055508173ffffffffffffffffffffffffffffffffffffffff16600073ffffffffffffffffffffffffffffffffffffffff167fddf252ad1be2c89b69c2b068fc378daa952ba7f163c4a11628f55a4df523b3ef83604051611039919061134d565b60405180910390a361104d6000838361111c565b5050565b6000600560009054906101000a900473ffffffffffffffffffffffffffffffffffffffff16905081600560006101000a81548173ffffffffffffffffffffffffffffffffffffffff021916908373ffffffffffffffffffffffffffffffffffffffff1602179055508173ffffffffffffffffffffffffffffffffffffffff168173ffffffffffffffffffffffffffffffffffffffff167f8be0079c531659141344cd1fd0a4f28419497f9722a3daafe3b4186f6b6457e060405160405180910390a35050565b505050565b505050565b600073ffffffffffffffffffffffffffffffffffffffff82169050919050565b600061114c82611121565b9050919050565b61115c81611141565b82525050565b6000819050919050565b61117581611162565b82525050565b60006040820190506111906000830185611153565b61119d602083018461116c565b9392505050565b60006020820190506111b96000830184611153565b92915050565b600081519050919050565b600082825260208201905092915050565b60005b838110156111f95780820151818401526020810190506111de565b83811115611208576000848401525b50505050565b6000601f19601f8301169050919050565b600061122a826111bf565b61123481856111ca565b93506112448185602086016111db565b61124d8161120e565b840191505092915050565b60006020820190508181036000830152611272818461121f565b905092915050565b600080fd5b61128881611141565b811461129357600080fd5b50565b6000813590506112a58161127f565b92915050565b6112b481611162565b81146112bf57600080fd5b50565b6000813590506112d1816112ab565b92915050565b600080604083850312156112ee576112ed61127a565b5b60006112fc85828601611296565b925050602061130d858286016112c2565b9150509250929050565b60008115159050919050565b61132c81611317565b82525050565b60006020820190506113476000830184611323565b92915050565b6000602082019050611362600083018461116c565b92915050565b6000806000606084860312156113815761138061127a565b5b600061138f86828701611296565b93505060206113a086828701611296565b92505060406113b1868287016112c2565b9150509250925092565b6000602082840312156113d1576113d061127a565b5b60006113df848285016112c2565b91505092915050565b600060ff82169050919050565b6113fe816113e8565b82525050565b600060208201905061141960008301846113f5565b92915050565b6000602082840312156114355761143461127a565b5b600061144384828501611296565b91505092915050565b600080604083850312156114635761146261127a565b5b600061147185828601611296565b925050602061148285828601611296565b9150509250929050565b7f4e487b7100000000000000000000000000000000000000000000000000000000600052602260045260246000fd5b600060028204905060018216806114d357607f821691505b6020821081036114e6576114e561148c565b5b50919050565b600081905092915050565b50565b60006115076000836114ec565b9150611512826114f7565b600082019050919050565b6000611528826114fa565b9150819050919050565b7f4e487b7100000000000000000000000000000000000000000000000000000000600052601160045260246000fd5b600061156c82611162565b915061157783611162565b9250827fffffffffffffffffffffffffffffffffffffffffffffffffffffffffffffffff038211156115ac576115ab611532565b5b828201905092915050565b60006115c282611162565b91506115cd83611162565b9250828210156115e0576115df611532565b5b828203905092915050565b7f4e6f7420656e6f75676820636f696e732072656d61696e696e67000000000000600082015250565b6000611621601a836111ca565b915061162c826115eb565b602082019050919050565b6000602082019050818103600083015261165081611614565b9050919050565b7f45524332303a2064656372656173656420616c6c6f77616e63652062656c6f7760008201527f207a65726f000000000000000000000000000000000000000000000000000000602082015250565b60006116b36025836111ca565b91506116be82611657565b604082019050919050565b600060208201905081810360008301526116e2816116a6565b9050919050565b7f4f776e61626c653a206e6577206f776e657220697320746865207a65726f206160008201527f6464726573730000000000000000000000000000000000000000000000000000602082015250565b60006117456026836111ca565b9150611750826116e9565b604082019050919050565b6000602082019050818103600083015261177481611738565b9050919050565b7f45524332303a20617070726f76652066726f6d20746865207a65726f2061646460008201527f7265737300000000000000000000000000000000000000000000000000000000602082015250565b60006117d76024836111ca565b91506117e28261177b565b604082019050919050565b60006020820190508181036000830152611806816117ca565b9050919050565b7f45524332303a20617070726f766520746f20746865207a65726f20616464726560008201527f7373000000000000000000000000000000000000000000000000000000000000602082015250565b60006118696022836111ca565b91506118748261180d565b604082019050919050565b600060208201905081810360008301526118988161185c565b9050919050565b7f45524332303a20696e73756666696369656e7420616c6c6f77616e6365000000600082015250565b60006118d5601d836111ca565b91506118e08261189f565b602082019050919050565b60006020820190508181036000830152611904816118c8565b9050919050565b7f45524332303a207472616e736665722066726f6d20746865207a65726f20616460008201527f6472657373000000000000000000000000000000000000000000000000000000602082015250565b60006119676025836111ca565b91506119728261190b565b604082019050919050565b600060208201905081810360008301526119968161195a565b9050919050565b7f45524332303a207472616e7366657220746f20746865207a65726f206164647260008201527f6573730000000000000000000000000000000000000000000000000000000000602082015250565b60006119f96023836111ca565b9150611a048261199d565b604082019050919050565b60006020820190508181036000830152611a28816119ec565b9050919050565b7f45524332303a207472616e7366657220616d6f756e742065786365656473206260008201527f616c616e63650000000000000000000000000000000000000000000000000000602082015250565b6000611a8b6026836111ca565b9150611a9682611a2f565b604082019050919050565b60006020820190508181036000830152611aba81611a7e565b9050919050565b7f4f776e61626c653a2063616c6c6572206973206e6f7420746865206f776e6572600082015250565b6000611af76020836111ca565b9150611b0282611ac1565b602082019050919050565b60006020820190508181036000830152611b2681611aea565b9050919050565b7f45524332303a206d696e7420746f20746865207a65726f206164647265737300600082015250565b6000611b63601f836111ca565b9150611b6e82611b2d565b602082019050919050565b60006020820190508181036000830152611b9281611b56565b905091905056fea2646970667358221220fe1d518f87871bac014615eb7220170fb1f8555f19ee19a2b16409758c9fb86064736f6c634300080e0033",
  "immutableReferences": {},
  "source": "// SPDX-License-Identifier: MIT\n/// BYX.sol\n\npragma solidity 0.8.14;\n\nimport \"@openzeppelin/contracts/token/ERC20/ERC20.sol\";\nimport \"@openzeppelin/contracts/access/Ownable.sol\";\n\ncontract BYX is ERC20, Ownable {\n\n    // Custom variables\n    uint public maxTotalSupply = 100000000 * 10 ** 18; // 100 millions tokens\n    // ERC20 variables\n    uint256 private _totalSupply;\n\n    // Custom Events\n    event LogBadCall(address user);\n    event LogDepot(address user, uint quantity);\n\n    /*************************************************************************************************/\n    /*                                        SPECIAL FUNCTIONS                                      */\n    /*************************************************************************************************/\n\n    constructor() ERC20(\"Byx\", \"BYX\") {}\n\n    /**\n    * @dev receive function will emit event in case of ether sent to the contract.\n    */\n    receive() external payable {\n        emit LogDepot(msg.sender, msg.value);\n    }\n\n    /**\n     * @dev fallback function will emit event in case of bad call of the contract.\n     */\n    fallback() external {\n        emit LogBadCall(msg.sender);\n    }\n\n    /*************************************************************************************************/\n    /*                                        EXTERNAL FUNCTIONS                                     */\n    /*************************************************************************************************/\n\n    /**\n     * @notice withdraw function. Can only be used by the owner of the contract.\n     *\n     * @dev withdraw function. OnlyOwner.\n     *\n     * @param _amount the amount to withdraw.\n     */\n    function withdraw(uint _amount) external onlyOwner {\n        msg.sender.call{value: _amount}(\"\");\n    }\n\n    /**\n     * @notice creation  of a ERC20 Byx token\n     *\n     * @dev minting of Byx token\n     *\n     * @param _recipient the recipient of token\n     *\n     * @param _amount the amount\n     */\n    function mint(address _recipient, uint256 _amount) external onlyOwner {\n        require((maxTotalSupply - totalSupply()) >= _amount, \"Not enough coins remaining\");\n        _mint(_recipient, _amount);\n    }\n\n}\n",
  "sourcePath": "/home/jack/Dev/PROJEX/4_Alyra_Projet_deFi_Staking_App/truffle/contracts/BYX.sol",
  "compiler": {
    "name": "solc",
    "version": "0.8.14+commit.80d49f37.Emscripten.clang"
  },
  "schemaVersion": "3.4.7",
  "updatedAt": "2022-08-02T08:47:59.752Z",
  "networkType": "ethereum",
  "devdoc": {
    "kind": "dev",
    "methods": {
      "allowance(address,address)": {
        "details": "See {IERC20-allowance}."
      },
      "approve(address,uint256)": {
        "details": "See {IERC20-approve}. NOTE: If `amount` is the maximum `uint256`, the allowance is not updated on `transferFrom`. This is semantically equivalent to an infinite approval. Requirements: - `spender` cannot be the zero address."
      },
      "balanceOf(address)": {
        "details": "See {IERC20-balanceOf}."
      },
      "decimals()": {
        "details": "Returns the number of decimals used to get its user representation. For example, if `decimals` equals `2`, a balance of `505` tokens should be displayed to a user as `5.05` (`505 / 10 ** 2`). Tokens usually opt for a value of 18, imitating the relationship between Ether and Wei. This is the value {ERC20} uses, unless this function is overridden; NOTE: This information is only used for _display_ purposes: it in no way affects any of the arithmetic of the contract, including {IERC20-balanceOf} and {IERC20-transfer}."
      },
      "decreaseAllowance(address,uint256)": {
        "details": "Atomically decreases the allowance granted to `spender` by the caller. This is an alternative to {approve} that can be used as a mitigation for problems described in {IERC20-approve}. Emits an {Approval} event indicating the updated allowance. Requirements: - `spender` cannot be the zero address. - `spender` must have allowance for the caller of at least `subtractedValue`."
      },
      "increaseAllowance(address,uint256)": {
        "details": "Atomically increases the allowance granted to `spender` by the caller. This is an alternative to {approve} that can be used as a mitigation for problems described in {IERC20-approve}. Emits an {Approval} event indicating the updated allowance. Requirements: - `spender` cannot be the zero address."
      },
      "mint(address,uint256)": {
        "details": "minting of Byx token",
        "params": {
          "_amount": "the amount",
          "_recipient": "the recipient of token"
        }
      },
      "name()": {
        "details": "Returns the name of the token."
      },
      "owner()": {
        "details": "Returns the address of the current owner."
      },
      "renounceOwnership()": {
        "details": "Leaves the contract without owner. It will not be possible to call `onlyOwner` functions anymore. Can only be called by the current owner. NOTE: Renouncing ownership will leave the contract without an owner, thereby removing any functionality that is only available to the owner."
      },
      "symbol()": {
        "details": "Returns the symbol of the token, usually a shorter version of the name."
      },
      "totalSupply()": {
        "details": "See {IERC20-totalSupply}."
      },
      "transfer(address,uint256)": {
        "details": "See {IERC20-transfer}. Requirements: - `to` cannot be the zero address. - the caller must have a balance of at least `amount`."
      },
      "transferFrom(address,address,uint256)": {
        "details": "See {IERC20-transferFrom}. Emits an {Approval} event indicating the updated allowance. This is not required by the EIP. See the note at the beginning of {ERC20}. NOTE: Does not update the allowance if the current allowance is the maximum `uint256`. Requirements: - `from` and `to` cannot be the zero address. - `from` must have a balance of at least `amount`. - the caller must have allowance for ``from``'s tokens of at least `amount`."
      },
      "transferOwnership(address)": {
        "details": "Transfers ownership of the contract to a new account (`newOwner`). Can only be called by the current owner."
      },
      "withdraw(uint256)": {
        "details": "withdraw function. OnlyOwner.",
        "params": {
          "_amount": "the amount to withdraw."
        }
      }
    },
    "version": 1
  },
  "userdoc": {
    "kind": "user",
    "methods": {
      "mint(address,uint256)": {
        "notice": "creation  of a ERC20 Byx token"
      },
      "withdraw(uint256)": {
        "notice": "withdraw function. Can only be used by the owner of the contract."
      }
    },
    "version": 1
  }
}