{
  "contractName": "BYXStakingManager",
  "abi": [
    {
      "inputs": [
        {
          "internalType": "address",
          "name": "_byxAddress",
          "type": "address"
        },
        {
          "internalType": "address",
          "name": "_sbyxAddress",
          "type": "address"
        }
      ],
      "stateMutability": "nonpayable",
      "type": "constructor"
    },
    {
      "anonymous": false,
      "inputs": [
        {
          "indexed": false,
          "internalType": "address",
          "name": "user",
          "type": "address"
        }
      ],
      "name": "LogBadCall",
      "type": "event"
    },
    {
      "anonymous": false,
      "inputs": [
        {
          "indexed": false,
          "internalType": "address",
          "name": "user",
          "type": "address"
        },
        {
          "indexed": false,
          "internalType": "uint256",
          "name": "quantity",
          "type": "uint256"
        }
      ],
      "name": "LogDepot",
      "type": "event"
    },
    {
      "anonymous": false,
      "inputs": [
        {
          "indexed": true,
          "internalType": "address",
          "name": "previousOwner",
          "type": "address"
        },
        {
          "indexed": true,
          "internalType": "address",
          "name": "newOwner",
          "type": "address"
        }
      ],
      "name": "OwnershipTransferred",
      "type": "event"
    },
    {
      "stateMutability": "nonpayable",
      "type": "fallback"
    },
    {
      "inputs": [],
      "name": "owner",
      "outputs": [
        {
          "internalType": "address",
          "name": "",
          "type": "address"
        }
      ],
      "stateMutability": "view",
      "type": "function",
      "constant": true
    },
    {
      "inputs": [],
      "name": "renounceOwnership",
      "outputs": [],
      "stateMutability": "nonpayable",
      "type": "function"
    },
    {
      "inputs": [
        {
          "internalType": "address",
          "name": "newOwner",
          "type": "address"
        }
      ],
      "name": "transferOwnership",
      "outputs": [],
      "stateMutability": "nonpayable",
      "type": "function"
    },
    {
      "stateMutability": "payable",
      "type": "receive",
      "payable": true
    },
    {
      "inputs": [
        {
          "internalType": "uint256",
          "name": "_amount",
          "type": "uint256"
        }
      ],
      "name": "withdraw",
      "outputs": [],
      "stateMutability": "nonpayable",
      "type": "function"
    },
    {
      "inputs": [
        {
          "internalType": "uint256",
          "name": "_amount",
          "type": "uint256"
        }
      ],
      "name": "depositStake",
      "outputs": [],
      "stateMutability": "nonpayable",
      "type": "function"
    },
    {
      "inputs": [
        {
          "internalType": "uint256",
          "name": "_amount",
          "type": "uint256"
        }
      ],
      "name": "withdrawStake",
      "outputs": [],
      "stateMutability": "nonpayable",
      "type": "function"
    }
  ],
  "bytecode": "0x60806040526302faf0806003556103e860045560058055629896806006556103e86007553480156200003057600080fd5b506040516200152c3803806200152c833981810160405281019062000056919062000262565b620000766200006a6200012c60201b60201c565b6200013460201b60201c565b81600160006101000a81548173ffffffffffffffffffffffffffffffffffffffff021916908373ffffffffffffffffffffffffffffffffffffffff16021790555080600260006101000a81548173ffffffffffffffffffffffffffffffffffffffff021916908373ffffffffffffffffffffffffffffffffffffffff1602179055504360088190555060055460035462000111919062000311565b436200011e919062000349565b6009819055505050620003a6565b600033905090565b60008060009054906101000a900473ffffffffffffffffffffffffffffffffffffffff169050816000806101000a81548173ffffffffffffffffffffffffffffffffffffffff021916908373ffffffffffffffffffffffffffffffffffffffff1602179055508173ffffffffffffffffffffffffffffffffffffffff168173ffffffffffffffffffffffffffffffffffffffff167f8be0079c531659141344cd1fd0a4f28419497f9722a3daafe3b4186f6b6457e060405160405180910390a35050565b600080fd5b600073ffffffffffffffffffffffffffffffffffffffff82169050919050565b60006200022a82620001fd565b9050919050565b6200023c816200021d565b81146200024857600080fd5b50565b6000815190506200025c8162000231565b92915050565b600080604083850312156200027c576200027b620001f8565b5b60006200028c858286016200024b565b92505060206200029f858286016200024b565b9150509250929050565b6000819050919050565b7f4e487b7100000000000000000000000000000000000000000000000000000000600052601260045260246000fd5b7f4e487b7100000000000000000000000000000000000000000000000000000000600052601160045260246000fd5b60006200031e82620002a9565b91506200032b83620002a9565b9250826200033e576200033d620002b3565b5b828204905092915050565b60006200035682620002a9565b91506200036383620002a9565b9250827fffffffffffffffffffffffffffffffffffffffffffffffffffffffffffffffff038211156200039b576200039a620002e2565b5b828201905092915050565b61117680620003b66000396000f3fe6080604052600436106100595760003560e01c806325d5971f146100df5780632e1a7d4d14610108578063715018a6146101315780638da5cb5b14610148578063cb82cc8f14610173578063f2fde38b1461019c57610099565b36610099577f1d76c7e5736b9b335988489baea5b96ec803f8f1194842fe5ce3a6ec85e79b56333460405161008f929190610aef565b60405180910390a1005b3480156100a557600080fd5b507fcc97ff3d49208ba08dc7ada5cf9e88e59e047be7d363118838f7af1233c49c43336040516100d59190610b18565b60405180910390a1005b3480156100eb57600080fd5b5061010660048036038101906101019190610b64565b6101c5565b005b34801561011457600080fd5b5061012f600480360381019061012a9190610b64565b6101d1565b005b34801561013d57600080fd5b50610146610245565b005b34801561015457600080fd5b5061015d610259565b60405161016a9190610b18565b60405180910390f35b34801561017f57600080fd5b5061019a60048036038101906101959190610b64565b610282565b005b3480156101a857600080fd5b506101c360048036038101906101be9190610bbd565b61028e565b005b6101ce81610311565b50565b6101d9610578565b3373ffffffffffffffffffffffffffffffffffffffff16816040516101fd90610c1b565b60006040518083038185875af1925050503d806000811461023a576040519150601f19603f3d011682016040523d82523d6000602084013e61023f565b606091505b50505050565b61024d610578565b61025760006105f6565b565b60008060009054906101000a900473ffffffffffffffffffffffffffffffffffffffff16905090565b61028b816106ba565b50565b610296610578565b600073ffffffffffffffffffffffffffffffffffffffff168173ffffffffffffffffffffffffffffffffffffffff1603610305576040517f08c379a00000000000000000000000000000000000000000000000000000000081526004016102fc90610cb3565b60405180910390fd5b61030e816105f6565b50565b80600260009054906101000a900473ffffffffffffffffffffffffffffffffffffffff1673ffffffffffffffffffffffffffffffffffffffff166370a08231336040518263ffffffff1660e01b815260040161036d9190610b18565b602060405180830381865afa15801561038a573d6000803e3d6000fd5b505050506040513d601f19601f820116820180604052508101906103ae9190610ce8565b10156103ef576040517f08c379a00000000000000000000000000000000000000000000000000000000081526004016103e690610d61565b60405180910390fd5b80600760008282546104019190610db0565b92505081905550600260009054906101000a900473ffffffffffffffffffffffffffffffffffffffff1673ffffffffffffffffffffffffffffffffffffffff166323b872dd3330846040518463ffffffff1660e01b815260040161046793929190610de4565b6020604051808303816000875af1158015610486573d6000803e3d6000fd5b505050506040513d601f19601f820116820180604052508101906104aa9190610e53565b5060006104b68261097d565b905080600460008282546104ca9190610db0565b92505081905550600160009054906101000a900473ffffffffffffffffffffffffffffffffffffffff1673ffffffffffffffffffffffffffffffffffffffff166323b872dd3033846040518463ffffffff1660e01b815260040161053093929190610de4565b6020604051808303816000875af115801561054f573d6000803e3d6000fd5b505050506040513d601f19601f820116820180604052508101906105739190610e53565b505050565b6105806109a9565b73ffffffffffffffffffffffffffffffffffffffff1661059e610259565b73ffffffffffffffffffffffffffffffffffffffff16146105f4576040517f08c379a00000000000000000000000000000000000000000000000000000000081526004016105eb90610ecc565b60405180910390fd5b565b60008060009054906101000a900473ffffffffffffffffffffffffffffffffffffffff169050816000806101000a81548173ffffffffffffffffffffffffffffffffffffffff021916908373ffffffffffffffffffffffffffffffffffffffff1602179055508173ffffffffffffffffffffffffffffffffffffffff168173ffffffffffffffffffffffffffffffffffffffff167f8be0079c531659141344cd1fd0a4f28419497f9722a3daafe3b4186f6b6457e060405160405180910390a35050565b80600160009054906101000a900473ffffffffffffffffffffffffffffffffffffffff1673ffffffffffffffffffffffffffffffffffffffff166370a08231336040518263ffffffff1660e01b81526004016107169190610b18565b602060405180830381865afa158015610733573d6000803e3d6000fd5b505050506040513d601f19601f820116820180604052508101906107579190610ce8565b1015610798576040517f08c379a000000000000000000000000000000000000000000000000000000000815260040161078f90610f38565b60405180910390fd5b600081116107db576040517f08c379a00000000000000000000000000000000000000000000000000000000081526004016107d290610fa4565b60405180910390fd5b80600460008282546107ed9190610fc4565b92505081905550600160009054906101000a900473ffffffffffffffffffffffffffffffffffffffff1673ffffffffffffffffffffffffffffffffffffffff166323b872dd3330846040518463ffffffff1660e01b815260040161085393929190610de4565b6020604051808303816000875af1158015610872573d6000803e3d6000fd5b505050506040513d601f19601f820116820180604052508101906108969190610e53565b5060006108a2826109b1565b905080600660008282546108b69190610db0565b9250508190555080600760008282546108cf9190610fc4565b92505081905550600260009054906101000a900473ffffffffffffffffffffffffffffffffffffffff1673ffffffffffffffffffffffffffffffffffffffff166323b872dd3033846040518463ffffffff1660e01b815260040161093593929190610de4565b6020604051808303816000875af1158015610954573d6000803e3d6000fd5b505050506040513d601f19601f820116820180604052508101906109789190610e53565b505050565b60006109876109dd565b60075460045483610998919061101a565b6109a291906110a3565b9050919050565b600033905090565b60006109bb6109dd565b600454600754836109cc919061101a565b6109d691906110a3565b9050919050565b600954431115610a22576040517f08c379a0000000000000000000000000000000000000000000000000000000008152600401610a1990611120565b60405180910390fd5b600854431115610a9357600060085443610a3c9190610db0565b905060055481610a4c919061101a565b60046000828254610a5d9190610fc4565b9250508190555060055481610a72919061101a565b60036000828254610a839190610db0565b9250508190555043600881905550505b565b600073ffffffffffffffffffffffffffffffffffffffff82169050919050565b6000610ac082610a95565b9050919050565b610ad081610ab5565b82525050565b6000819050919050565b610ae981610ad6565b82525050565b6000604082019050610b046000830185610ac7565b610b116020830184610ae0565b9392505050565b6000602082019050610b2d6000830184610ac7565b92915050565b600080fd5b610b4181610ad6565b8114610b4c57600080fd5b50565b600081359050610b5e81610b38565b92915050565b600060208284031215610b7a57610b79610b33565b5b6000610b8884828501610b4f565b91505092915050565b610b9a81610ab5565b8114610ba557600080fd5b50565b600081359050610bb781610b91565b92915050565b600060208284031215610bd357610bd2610b33565b5b6000610be184828501610ba8565b91505092915050565b600081905092915050565b50565b6000610c05600083610bea565b9150610c1082610bf5565b600082019050919050565b6000610c2682610bf8565b9150819050919050565b600082825260208201905092915050565b7f4f776e61626c653a206e6577206f776e657220697320746865207a65726f206160008201527f6464726573730000000000000000000000000000000000000000000000000000602082015250565b6000610c9d602683610c30565b9150610ca882610c41565b604082019050919050565b60006020820190508181036000830152610ccc81610c90565b9050919050565b600081519050610ce281610b38565b92915050565b600060208284031215610cfe57610cfd610b33565b5b6000610d0c84828501610cd3565b91505092915050565b7f4e6f7420656e6f756768207342595820696e2077616c6c657400000000000000600082015250565b6000610d4b601983610c30565b9150610d5682610d15565b602082019050919050565b60006020820190508181036000830152610d7a81610d3e565b9050919050565b7f4e487b7100000000000000000000000000000000000000000000000000000000600052601160045260246000fd5b6000610dbb82610ad6565b9150610dc683610ad6565b925082821015610dd957610dd8610d81565b5b828203905092915050565b6000606082019050610df96000830186610ac7565b610e066020830185610ac7565b610e136040830184610ae0565b949350505050565b60008115159050919050565b610e3081610e1b565b8114610e3b57600080fd5b50565b600081519050610e4d81610e27565b92915050565b600060208284031215610e6957610e68610b33565b5b6000610e7784828501610e3e565b91505092915050565b7f4f776e61626c653a2063616c6c6572206973206e6f7420746865206f776e6572600082015250565b6000610eb6602083610c30565b9150610ec182610e80565b602082019050919050565b60006020820190508181036000830152610ee581610ea9565b9050919050565b7f4e6f7420656e6f7567682042595820696e2077616c6c65740000000000000000600082015250565b6000610f22601883610c30565b9150610f2d82610eec565b602082019050919050565b60006020820190508181036000830152610f5181610f15565b9050919050565b7f416d6f756e74206d75737420626520706f736974697665000000000000000000600082015250565b6000610f8e601783610c30565b9150610f9982610f58565b602082019050919050565b60006020820190508181036000830152610fbd81610f81565b9050919050565b6000610fcf82610ad6565b9150610fda83610ad6565b9250827fffffffffffffffffffffffffffffffffffffffffffffffffffffffffffffffff0382111561100f5761100e610d81565b5b828201905092915050565b600061102582610ad6565b915061103083610ad6565b9250817fffffffffffffffffffffffffffffffffffffffffffffffffffffffffffffffff048311821515161561106957611068610d81565b5b828202905092915050565b7f4e487b7100000000000000000000000000000000000000000000000000000000600052601260045260246000fd5b60006110ae82610ad6565b91506110b983610ad6565b9250826110c9576110c8611074565b5b828204905092915050565b7f52657761726473206861766520616c726561647920656e646564000000000000600082015250565b600061110a601a83610c30565b9150611115826110d4565b602082019050919050565b60006020820190508181036000830152611139816110fd565b905091905056fea26469706673582212209d7e61d931f996608ad50fbe1d11ead5eebbcb23e16245a1bcfb4560ba9b82b964736f6c634300080e0033",
  "immutableReferences": {},
  "source": "// SPDX-License-Identifier: MIT\npragma solidity 0.8.14;\n\nimport \"@openzeppelin/contracts/access/Ownable.sol\";\nimport \"@openzeppelin/contracts/token/ERC20/IERC20.sol\";\n\ncontract BYXStakingManager is Ownable {\n\n    IERC20 BYX;\n    IERC20 sBYX;\n\n    uint BYXFund = 50000000;\n    uint BYXPool = 1000;\n    uint BYXRewardPerBlock = 5;\n\n    uint sBYXFund = 10000000;\n    uint totalsBYXDistributed = 1000;\n\n    uint lastBlockUpdate;\n    uint lastBlockReward;\n\n    event LogBadCall(address user);\n    event LogDepot(address user, uint quantity);\n\n    /*************************************************************************************************/\n    /*                                        SPECIAL FUNCTIONS                                      */\n    /*************************************************************************************************/\n\n    constructor(address _byxAddress, address _sbyxAddress) {\n        // inject BYX address in the deploy\n        BYX = IERC20(_byxAddress);\n        sBYX = IERC20(_sbyxAddress);\n        lastBlockUpdate = block.number;\n        lastBlockReward = block.number + (BYXFund / BYXRewardPerBlock);\n    }\n\n    /**\n    * @dev receive function will emit event in case of ether sent to the contract.\n    */\n    receive() external payable {\n        emit LogDepot(msg.sender, msg.value);\n    }\n\n    /**\n     * @dev fallback function will emit event in case of bad call of the contract.\n     */\n    fallback() external {\n        emit LogBadCall(msg.sender);\n    }\n\n    /*************************************************************************************************/\n    /*                                          VIEW FUNCTIONS                                       */\n    /*************************************************************************************************/\n\n\n\n    /*************************************************************************************************/\n    /*                                        EXTERNAL FUNCTIONS                                     */\n    /*************************************************************************************************/\n\n    /**\n     * @notice withdraw function. Can only be used by the owner of the contract.\n     *\n     * @dev withdraw function. OnlyOwner.\n     *\n     * @param _amount the amount to withdraw.\n     */\n    function withdraw(uint _amount) external onlyOwner {\n        msg.sender.call{value: _amount}(\"\");\n    }\n\n    /**\n     * @notice deposit stake function.\n     *\n     * @dev deposit stake function. Call internal function for gas optimisation.\n     *\n     * @param _amount the amount to deposit in staking.\n     */\n    function depositStake(uint _amount) external {\n        _depositStake(_amount);\n    }\n\n    /**\n     * @notice withdraw stake function.\n     *\n     * @dev withdraw stake function. Call internal function for gas optimisation.\n     *\n     * @param _amount the amount to withdraw from staking.\n     */\n    function withdrawStake(uint _amount) external {\n        _withdrawStake(_amount);\n    }\n\n\n    /*************************************************************************************************/\n    /*                                        INTERNAL FUNCTIONS                                     */\n    /*************************************************************************************************/\n\n    /**\n     * @notice deposit stake function.\n     *\n     * @dev deposit stake function.\n     *\n     * @param _amount the amount to deposit in staking.\n     */\n    function _depositStake(uint _amount) internal {\n        require(BYX.balanceOf(msg.sender) >= _amount, \"Not enough BYX in wallet\");\n        require(_amount > 0, \"Amount must be positive\");\n        BYXPool += _amount;\n        BYX.transferFrom(msg.sender, address(this), _amount);  // TODO check if we need allowance\n        uint _sBYXamount = _calculateSBYXAmountFromBYX(_amount);\n        sBYXFund -= _sBYXamount;\n        totalsBYXDistributed += _sBYXamount;\n        sBYX.transferFrom(address(this), msg.sender, _sBYXamount);\n    }\n\n    /**\n     * @notice withdraw stake function.\n     *\n     * @dev withdraw stake function.\n     *\n     * @param _sBYXAmount the amount to withdraw from staking.\n     */\n    function _withdrawStake(uint _sBYXAmount) internal {\n        require(sBYX.balanceOf(msg.sender) >= _sBYXAmount, \"Not enough sBYX in wallet\");\n        totalsBYXDistributed -= _sBYXAmount;\n        sBYX.transferFrom(msg.sender, address(this), _sBYXAmount);\n        uint _amount = calculateBYXAmountFromsBYX(_sBYXAmount);\n        BYXPool -= _amount;\n        BYX.transferFrom(address(this), msg.sender, _amount);\n    }\n\n    /**\n     * @notice calculate sBYX amount from BYX amount.\n     *\n     * @dev calculate sBYX amount from BYX amount.\n     *\n     * @param _amount the amount of BYX to convert.\n     */\n    function _calculateSBYXAmountFromBYX(uint _amount) internal returns (uint _sBYXAmount) {\n        _updatePool();\n        return _amount * totalsBYXDistributed / BYXPool;\n    }\n\n    /**\n     * @notice calculate BYX amount from sBYX amount.\n     *\n     * @dev calculate BYX amount from sBYX amount.\n     *\n     * @param _amount the amount of sBYX to convert.\n     */\n    function calculateBYXAmountFromsBYX(uint _sBYXAmount) internal returns (uint _amount) {\n        _updatePool();\n        return _sBYXAmount * BYXPool / totalsBYXDistributed;\n    }\n\n    /**\n     * @notice update pool with new rewards.\n     *\n     * @dev update pool with new rewards.\n     */\n    function _updatePool() internal {\n        require(block.number <= lastBlockReward, \"Rewards have already ended\");\n        if (block.number > lastBlockUpdate) {\n            uint nbBlock = block.number - lastBlockUpdate;\n            BYXPool += nbBlock * BYXRewardPerBlock;\n            BYXFund -= nbBlock * BYXRewardPerBlock;\n            lastBlockUpdate = block.number;\n       }\n    }\n}\n",
  "sourcePath": "/home/jack/Dev/PROJEX/4_Alyra_Projet_deFi_Staking_App/truffle/contracts/BYXStakingManager.sol",
  "compiler": {
    "name": "solc",
    "version": "0.8.14+commit.80d49f37.Emscripten.clang"
  },
  "schemaVersion": "3.4.7",
  "updatedAt": "2022-07-29T09:58:45.022Z",
  "networkType": "ethereum",
  "devdoc": {
    "kind": "dev",
    "methods": {
      "depositStake(uint256)": {
        "details": "deposit stake function. Call internal function for gas optimisation.",
        "params": {
          "_amount": "the amount to deposit in staking."
        }
      },
      "owner()": {
        "details": "Returns the address of the current owner."
      },
      "renounceOwnership()": {
        "details": "Leaves the contract without owner. It will not be possible to call `onlyOwner` functions anymore. Can only be called by the current owner. NOTE: Renouncing ownership will leave the contract without an owner, thereby removing any functionality that is only available to the owner."
      },
      "transferOwnership(address)": {
        "details": "Transfers ownership of the contract to a new account (`newOwner`). Can only be called by the current owner."
      },
      "withdraw(uint256)": {
        "details": "withdraw function. OnlyOwner.",
        "params": {
          "_amount": "the amount to withdraw."
        }
      },
      "withdrawStake(uint256)": {
        "details": "withdraw stake function. Call internal function for gas optimisation.",
        "params": {
          "_amount": "the amount to withdraw from staking."
        }
      }
    },
    "version": 1
  },
  "userdoc": {
    "kind": "user",
    "methods": {
      "depositStake(uint256)": {
        "notice": "deposit stake function."
      },
      "withdraw(uint256)": {
        "notice": "withdraw function. Can only be used by the owner of the contract."
      },
      "withdrawStake(uint256)": {
        "notice": "withdraw stake function."
      }
    },
    "version": 1
  }
}