{
  "contractName": "BYXStakingManager",
  "abi": [
    {
      "inputs": [
        {
          "internalType": "address",
          "name": "_byxAddress",
          "type": "address"
        }
      ],
      "stateMutability": "nonpayable",
      "type": "constructor"
    },
    {
      "anonymous": false,
      "inputs": [
        {
          "indexed": false,
          "internalType": "address",
          "name": "user",
          "type": "address"
        }
      ],
      "name": "LogBadCall",
      "type": "event"
    },
    {
      "anonymous": false,
      "inputs": [
        {
          "indexed": false,
          "internalType": "address",
          "name": "user",
          "type": "address"
        },
        {
          "indexed": false,
          "internalType": "uint256",
          "name": "quantity",
          "type": "uint256"
        }
      ],
      "name": "LogDepot",
      "type": "event"
    },
    {
      "anonymous": false,
      "inputs": [
        {
          "indexed": true,
          "internalType": "address",
          "name": "previousOwner",
          "type": "address"
        },
        {
          "indexed": true,
          "internalType": "address",
          "name": "newOwner",
          "type": "address"
        }
      ],
      "name": "OwnershipTransferred",
      "type": "event"
    },
    {
      "stateMutability": "nonpayable",
      "type": "fallback"
    },
    {
      "inputs": [],
      "name": "owner",
      "outputs": [
        {
          "internalType": "address",
          "name": "",
          "type": "address"
        }
      ],
      "stateMutability": "view",
      "type": "function",
      "constant": true
    },
    {
      "inputs": [],
      "name": "renounceOwnership",
      "outputs": [],
      "stateMutability": "nonpayable",
      "type": "function"
    },
    {
      "inputs": [
        {
          "internalType": "address",
          "name": "newOwner",
          "type": "address"
        }
      ],
      "name": "transferOwnership",
      "outputs": [],
      "stateMutability": "nonpayable",
      "type": "function"
    },
    {
      "stateMutability": "payable",
      "type": "receive",
      "payable": true
    },
    {
      "inputs": [
        {
          "internalType": "address",
          "name": "_addr",
          "type": "address"
        }
      ],
      "name": "getBYXAmountStaked",
      "outputs": [
        {
          "internalType": "uint256",
          "name": "_amount",
          "type": "uint256"
        }
      ],
      "stateMutability": "view",
      "type": "function",
      "constant": true
    },
    {
      "inputs": [
        {
          "internalType": "uint256",
          "name": "_amount",
          "type": "uint256"
        }
      ],
      "name": "withdraw",
      "outputs": [],
      "stateMutability": "nonpayable",
      "type": "function"
    },
    {
      "inputs": [
        {
          "internalType": "uint256",
          "name": "_amount",
          "type": "uint256"
        }
      ],
      "name": "depositStake",
      "outputs": [],
      "stateMutability": "nonpayable",
      "type": "function"
    },
    {
      "inputs": [
        {
          "internalType": "uint256",
          "name": "_amount",
          "type": "uint256"
        }
      ],
      "name": "withdrawStake",
      "outputs": [],
      "stateMutability": "nonpayable",
      "type": "function"
    }
  ],
  "bytecode": "0x60806040526302faf0806002553480156200001957600080fd5b50604051620010be380380620010be83398181016040528101906200003f9190620001dd565b6200005f62000053620000a760201b60201c565b620000af60201b60201c565b80600160006101000a81548173ffffffffffffffffffffffffffffffffffffffff021916908373ffffffffffffffffffffffffffffffffffffffff160217905550506200020f565b600033905090565b60008060009054906101000a900473ffffffffffffffffffffffffffffffffffffffff169050816000806101000a81548173ffffffffffffffffffffffffffffffffffffffff021916908373ffffffffffffffffffffffffffffffffffffffff1602179055508173ffffffffffffffffffffffffffffffffffffffff168173ffffffffffffffffffffffffffffffffffffffff167f8be0079c531659141344cd1fd0a4f28419497f9722a3daafe3b4186f6b6457e060405160405180910390a35050565b600080fd5b600073ffffffffffffffffffffffffffffffffffffffff82169050919050565b6000620001a58262000178565b9050919050565b620001b78162000198565b8114620001c357600080fd5b50565b600081519050620001d781620001ac565b92915050565b600060208284031215620001f657620001f562000173565b5b60006200020684828501620001c6565b91505092915050565b610e9f806200021f6000396000f3fe6080604052600436106100745760003560e01c8063715018a61161004e578063715018a6146101895780638da5cb5b146101a0578063cb82cc8f146101cb578063f2fde38b146101f4576100b4565b806325d5971f146100fa5780632e1a7d4d14610123578063524b78e91461014c576100b4565b366100b4577f1d76c7e5736b9b335988489baea5b96ec803f8f1194842fe5ce3a6ec85e79b5633346040516100aa929190610923565b60405180910390a1005b3480156100c057600080fd5b507fcc97ff3d49208ba08dc7ada5cf9e88e59e047be7d363118838f7af1233c49c43336040516100f0919061094c565b60405180910390a1005b34801561010657600080fd5b50610121600480360381019061011c9190610998565b61021d565b005b34801561012f57600080fd5b5061014a60048036038101906101459190610998565b610229565b005b34801561015857600080fd5b50610173600480360381019061016e91906109f1565b61029d565b6040516101809190610a1e565b60405180910390f35b34801561019557600080fd5b5061019e6102e6565b005b3480156101ac57600080fd5b506101b56102fa565b6040516101c2919061094c565b60405180910390f35b3480156101d757600080fd5b506101f260048036038101906101ed9190610998565b610323565b005b34801561020057600080fd5b5061021b600480360381019061021691906109f1565b61032f565b005b610226816103b2565b50565b610231610549565b3373ffffffffffffffffffffffffffffffffffffffff168160405161025590610a6a565b60006040518083038185875af1925050503d8060008114610292576040519150601f19603f3d011682016040523d82523d6000602084013e610297565b606091505b50505050565b6000600360008373ffffffffffffffffffffffffffffffffffffffff1673ffffffffffffffffffffffffffffffffffffffff168152602001908152602001600020549050919050565b6102ee610549565b6102f860006105c7565b565b60008060009054906101000a900473ffffffffffffffffffffffffffffffffffffffff16905090565b61032c8161068b565b50565b610337610549565b600073ffffffffffffffffffffffffffffffffffffffff168173ffffffffffffffffffffffffffffffffffffffff16036103a6576040517f08c379a000000000000000000000000000000000000000000000000000000000815260040161039d90610b02565b60405180910390fd5b6103af816105c7565b50565b80600360003373ffffffffffffffffffffffffffffffffffffffff1673ffffffffffffffffffffffffffffffffffffffff168152602001908152602001600020541015610434576040517f08c379a000000000000000000000000000000000000000000000000000000000815260040161042b90610b6e565b60405180910390fd5b80600460008282546104469190610bbd565b9250508190555080600360003373ffffffffffffffffffffffffffffffffffffffff1673ffffffffffffffffffffffffffffffffffffffff168152602001908152602001600020600082825461049c9190610bbd565b92505081905550600160009054906101000a900473ffffffffffffffffffffffffffffffffffffffff1673ffffffffffffffffffffffffffffffffffffffff166323b872dd3033846040518463ffffffff1660e01b815260040161050293929190610bf1565b6020604051808303816000875af1158015610521573d6000803e3d6000fd5b505050506040513d601f19601f820116820180604052508101906105459190610c60565b5050565b6105516108c1565b73ffffffffffffffffffffffffffffffffffffffff1661056f6102fa565b73ffffffffffffffffffffffffffffffffffffffff16146105c5576040517f08c379a00000000000000000000000000000000000000000000000000000000081526004016105bc90610cd9565b60405180910390fd5b565b60008060009054906101000a900473ffffffffffffffffffffffffffffffffffffffff169050816000806101000a81548173ffffffffffffffffffffffffffffffffffffffff021916908373ffffffffffffffffffffffffffffffffffffffff1602179055508173ffffffffffffffffffffffffffffffffffffffff168173ffffffffffffffffffffffffffffffffffffffff167f8be0079c531659141344cd1fd0a4f28419497f9722a3daafe3b4186f6b6457e060405160405180910390a35050565b80600160009054906101000a900473ffffffffffffffffffffffffffffffffffffffff1673ffffffffffffffffffffffffffffffffffffffff166370a08231336040518263ffffffff1660e01b81526004016106e7919061094c565b602060405180830381865afa158015610704573d6000803e3d6000fd5b505050506040513d601f19601f820116820180604052508101906107289190610d0e565b1015610769576040517f08c379a000000000000000000000000000000000000000000000000000000000815260040161076090610d87565b60405180910390fd5b600081116107ac576040517f08c379a00000000000000000000000000000000000000000000000000000000081526004016107a390610df3565b60405180910390fd5b80600460008282546107be9190610e13565b9250508190555080600360003373ffffffffffffffffffffffffffffffffffffffff1673ffffffffffffffffffffffffffffffffffffffff16815260200190815260200160002060008282546108149190610e13565b92505081905550600160009054906101000a900473ffffffffffffffffffffffffffffffffffffffff1673ffffffffffffffffffffffffffffffffffffffff166323b872dd3330846040518463ffffffff1660e01b815260040161087a93929190610bf1565b6020604051808303816000875af1158015610899573d6000803e3d6000fd5b505050506040513d601f19601f820116820180604052508101906108bd9190610c60565b5050565b600033905090565b600073ffffffffffffffffffffffffffffffffffffffff82169050919050565b60006108f4826108c9565b9050919050565b610904816108e9565b82525050565b6000819050919050565b61091d8161090a565b82525050565b600060408201905061093860008301856108fb565b6109456020830184610914565b9392505050565b600060208201905061096160008301846108fb565b92915050565b600080fd5b6109758161090a565b811461098057600080fd5b50565b6000813590506109928161096c565b92915050565b6000602082840312156109ae576109ad610967565b5b60006109bc84828501610983565b91505092915050565b6109ce816108e9565b81146109d957600080fd5b50565b6000813590506109eb816109c5565b92915050565b600060208284031215610a0757610a06610967565b5b6000610a15848285016109dc565b91505092915050565b6000602082019050610a336000830184610914565b92915050565b600081905092915050565b50565b6000610a54600083610a39565b9150610a5f82610a44565b600082019050919050565b6000610a7582610a47565b9150819050919050565b600082825260208201905092915050565b7f4f776e61626c653a206e6577206f776e657220697320746865207a65726f206160008201527f6464726573730000000000000000000000000000000000000000000000000000602082015250565b6000610aec602683610a7f565b9150610af782610a90565b604082019050919050565b60006020820190508181036000830152610b1b81610adf565b9050919050565b7f4e6f7420656e6f75676820425958207374616b65640000000000000000000000600082015250565b6000610b58601583610a7f565b9150610b6382610b22565b602082019050919050565b60006020820190508181036000830152610b8781610b4b565b9050919050565b7f4e487b7100000000000000000000000000000000000000000000000000000000600052601160045260246000fd5b6000610bc88261090a565b9150610bd38361090a565b925082821015610be657610be5610b8e565b5b828203905092915050565b6000606082019050610c0660008301866108fb565b610c1360208301856108fb565b610c206040830184610914565b949350505050565b60008115159050919050565b610c3d81610c28565b8114610c4857600080fd5b50565b600081519050610c5a81610c34565b92915050565b600060208284031215610c7657610c75610967565b5b6000610c8484828501610c4b565b91505092915050565b7f4f776e61626c653a2063616c6c6572206973206e6f7420746865206f776e6572600082015250565b6000610cc3602083610a7f565b9150610cce82610c8d565b602082019050919050565b60006020820190508181036000830152610cf281610cb6565b9050919050565b600081519050610d088161096c565b92915050565b600060208284031215610d2457610d23610967565b5b6000610d3284828501610cf9565b91505092915050565b7f4e6f7420656e6f7567682042595820696e2077616c6c65740000000000000000600082015250565b6000610d71601883610a7f565b9150610d7c82610d3b565b602082019050919050565b60006020820190508181036000830152610da081610d64565b9050919050565b7f416d6f756e74206d75737420626520706f736974697665000000000000000000600082015250565b6000610ddd601783610a7f565b9150610de882610da7565b602082019050919050565b60006020820190508181036000830152610e0c81610dd0565b9050919050565b6000610e1e8261090a565b9150610e298361090a565b9250827fffffffffffffffffffffffffffffffffffffffffffffffffffffffffffffffff03821115610e5e57610e5d610b8e565b5b82820190509291505056fea2646970667358221220a9acf0f54ec23e37d2da85312f85ccf4e1c390257a78cb79af9ac4a44453cb6464736f6c634300080e0033",
  "immutableReferences": {},
  "source": "// SPDX-License-Identifier: MIT\npragma solidity 0.8.14;\n\nimport \"@openzeppelin/contracts/access/Ownable.sol\";\nimport \"@openzeppelin/contracts/token/ERC20/IERC20.sol\";\n\ncontract BYXStakingManager is Ownable {\n\n    IERC20 BYX;\n\n    uint contractBYXBalance = 50000000;\n    mapping (address => uint) BYXStaked;\n    uint totalBYXStaked;\n\n    event LogBadCall(address user);\n    event LogDepot(address user, uint quantity);\n\n    /*************************************************************************************************/\n    /*                                        SPECIAL FUNCTIONS                                      */\n    /*************************************************************************************************/\n\n    constructor(address _byxAddress) {\n        // inject BYX address in the deploy\n        BYX = IERC20(_byxAddress);\n    }\n\n    /**\n    * @dev receive function will emit event in case of ether sent to the contract.\n    */\n    receive() external payable {\n        emit LogDepot(msg.sender, msg.value);\n    }\n\n    /**\n     * @dev fallback function will emit event in case of bad call of the contract.\n     */\n    fallback() external {\n        emit LogBadCall(msg.sender);\n    }\n\n    /*************************************************************************************************/\n    /*                                          VIEW FUNCTIONS                                       */\n    /*************************************************************************************************/\n\n    /**\n     * @notice user BYX staked amount getter.\n     *\n     * @dev user BYX staked amount getter.\n     *\n     * @param _addr the user address.\n     *\n     * @return _amount the amount staked by the user.\n     */\n    function getBYXAmountStaked(address _addr) external view returns(uint _amount){\n        return BYXStaked[_addr];\n    }\n\n    /*************************************************************************************************/\n    /*                                        EXTERNAL FUNCTIONS                                     */\n    /*************************************************************************************************/\n\n    /**\n     * @notice withdraw function. Can only be used by the owner of the contract.\n     *\n     * @dev withdraw function. OnlyOwner.\n     *\n     * @param _amount the amount to withdraw.\n     */\n    function withdraw(uint _amount) external onlyOwner {\n        msg.sender.call{value: _amount}(\"\");\n    }\n\n    /**\n     * @notice deposit stake function.\n     *\n     * @dev deposit stake function. Call internal function for gas optimisation.\n     *\n     * @param _amount the amount to deposit in staking.\n     */\n    function depositStake(uint _amount) external {\n        _depositStake(_amount);\n    }\n\n    /**\n     * @notice withdraw stake function.\n     *\n     * @dev withdraw stake function. Call internal function for gas optimisation.\n     *\n     * @param _amount the amount to withdraw from staking.\n     */\n    function withdrawStake(uint _amount) external {\n        _withdrawStake(_amount);\n    }\n\n    /*************************************************************************************************/\n    /*                                        INTERNAL FUNCTIONS                                     */\n    /*************************************************************************************************/\n\n    /**\n     * @notice deposit stake function.\n     *\n     * @dev deposit stake function.\n     *\n     * @param _amount the amount to deposit in staking.\n     */\n    function _depositStake(uint _amount) internal {\n        require(BYX.balanceOf(msg.sender) >= _amount, \"Not enough BYX in wallet\");\n        require(_amount > 0, \"Amount must be positive\");\n        totalBYXStaked += _amount;\n        BYXStaked[msg.sender] += _amount;\n        BYX.transferFrom(msg.sender, address(this), _amount);  // TODO check if we need allowance\n    }\n\n    /**\n     * @notice withdraw stake function.\n     *\n     * @dev withdraw stake function.\n     *\n     * @param _amount the amount to withdraw from staking.\n     */\n    function _withdrawStake(uint _amount) internal {\n        require(BYXStaked[msg.sender] >= _amount, \"Not enough BYX staked\");\n        totalBYXStaked -= _amount;\n        BYXStaked[msg.sender] -= _amount;\n        BYX.transferFrom(address(this), msg.sender, _amount);\n    }\n}\n",
  "sourcePath": "/home/xav888/Alyra/Alyra-project4-deFi-dApp/truffle/contracts/BYXStakingManager.sol",
  "compiler": {
    "name": "solc",
    "version": "0.8.14+commit.80d49f37.Emscripten.clang"
  },
  "schemaVersion": "3.4.4",
  "updatedAt": "2022-08-05T12:22:10.469Z",
  "networkType": "ethereum",
  "devdoc": {
    "kind": "dev",
    "methods": {
      "depositStake(uint256)": {
        "details": "deposit stake function. Call internal function for gas optimisation.",
        "params": {
          "_amount": "the amount to deposit in staking."
        }
      },
      "getBYXAmountStaked(address)": {
        "details": "user BYX staked amount getter.",
        "params": {
          "_addr": "the user address."
        },
        "returns": {
          "_amount": "the amount staked by the user."
        }
      },
      "owner()": {
        "details": "Returns the address of the current owner."
      },
      "renounceOwnership()": {
        "details": "Leaves the contract without owner. It will not be possible to call `onlyOwner` functions anymore. Can only be called by the current owner. NOTE: Renouncing ownership will leave the contract without an owner, thereby removing any functionality that is only available to the owner."
      },
      "transferOwnership(address)": {
        "details": "Transfers ownership of the contract to a new account (`newOwner`). Can only be called by the current owner."
      },
      "withdraw(uint256)": {
        "details": "withdraw function. OnlyOwner.",
        "params": {
          "_amount": "the amount to withdraw."
        }
      },
      "withdrawStake(uint256)": {
        "details": "withdraw stake function. Call internal function for gas optimisation.",
        "params": {
          "_amount": "the amount to withdraw from staking."
        }
      }
    },
    "version": 1
  },
  "userdoc": {
    "kind": "user",
    "methods": {
      "depositStake(uint256)": {
        "notice": "deposit stake function."
      },
      "getBYXAmountStaked(address)": {
        "notice": "user BYX staked amount getter."
      },
      "withdraw(uint256)": {
        "notice": "withdraw function. Can only be used by the owner of the contract."
      },
      "withdrawStake(uint256)": {
        "notice": "withdraw stake function."
      }
    },
    "version": 1
  }
}