{
  "contractName": "BYXStakingManager",
  "abi": [
    {
      "inputs": [
        {
          "internalType": "address",
          "name": "_byxAddress",
          "type": "address"
        }
      ],
      "stateMutability": "nonpayable",
      "type": "constructor"
    },
    {
      "anonymous": false,
      "inputs": [
        {
          "indexed": false,
          "internalType": "address",
          "name": "user",
          "type": "address"
        }
      ],
      "name": "LogBadCall",
      "type": "event"
    },
    {
      "anonymous": false,
      "inputs": [
        {
          "indexed": false,
          "internalType": "address",
          "name": "user",
          "type": "address"
        },
        {
          "indexed": false,
          "internalType": "uint256",
          "name": "quantity",
          "type": "uint256"
        }
      ],
      "name": "LogDepot",
      "type": "event"
    },
    {
      "anonymous": false,
      "inputs": [
        {
          "indexed": true,
          "internalType": "address",
          "name": "previousOwner",
          "type": "address"
        },
        {
          "indexed": true,
          "internalType": "address",
          "name": "newOwner",
          "type": "address"
        }
      ],
      "name": "OwnershipTransferred",
      "type": "event"
    },
    {
      "stateMutability": "nonpayable",
      "type": "fallback"
    },
    {
      "inputs": [],
      "name": "owner",
      "outputs": [
        {
          "internalType": "address",
          "name": "",
          "type": "address"
        }
      ],
      "stateMutability": "view",
      "type": "function",
      "constant": true
    },
    {
      "inputs": [],
      "name": "renounceOwnership",
      "outputs": [],
      "stateMutability": "nonpayable",
      "type": "function"
    },
    {
      "inputs": [
        {
          "internalType": "address",
          "name": "newOwner",
          "type": "address"
        }
      ],
      "name": "transferOwnership",
      "outputs": [],
      "stateMutability": "nonpayable",
      "type": "function"
    },
    {
      "stateMutability": "payable",
      "type": "receive",
      "payable": true
    },
    {
      "inputs": [
        {
          "internalType": "uint256",
          "name": "_amount",
          "type": "uint256"
        }
      ],
      "name": "withdraw",
      "outputs": [],
      "stateMutability": "nonpayable",
      "type": "function"
    },
    {
      "inputs": [
        {
          "internalType": "uint256",
          "name": "_amount",
          "type": "uint256"
        }
      ],
      "name": "depositStake",
      "outputs": [],
      "stateMutability": "nonpayable",
      "type": "function"
    },
    {
      "inputs": [
        {
          "internalType": "uint256",
          "name": "_amount",
          "type": "uint256"
        }
      ],
      "name": "withdrawStake",
      "outputs": [],
      "stateMutability": "nonpayable",
      "type": "function"
    }
  ],
  "bytecode": "0x60806040526302faf0806002553480156200001957600080fd5b5060405162000e9b38038062000e9b83398181016040528101906200003f9190620001dd565b6200005f62000053620000a760201b60201c565b620000af60201b60201c565b80600160006101000a81548173ffffffffffffffffffffffffffffffffffffffff021916908373ffffffffffffffffffffffffffffffffffffffff160217905550506200020f565b600033905090565b60008060009054906101000a900473ffffffffffffffffffffffffffffffffffffffff169050816000806101000a81548173ffffffffffffffffffffffffffffffffffffffff021916908373ffffffffffffffffffffffffffffffffffffffff1602179055508173ffffffffffffffffffffffffffffffffffffffff168173ffffffffffffffffffffffffffffffffffffffff167f8be0079c531659141344cd1fd0a4f28419497f9722a3daafe3b4186f6b6457e060405160405180910390a35050565b600080fd5b600073ffffffffffffffffffffffffffffffffffffffff82169050919050565b6000620001a58262000178565b9050919050565b620001b78162000198565b8114620001c357600080fd5b50565b600081519050620001d781620001ac565b92915050565b600060208284031215620001f657620001f562000173565b5b60006200020684828501620001c6565b91505092915050565b610c7c806200021f6000396000f3fe6080604052600436106100595760003560e01c806325d5971f146100df5780632e1a7d4d14610108578063715018a6146101315780638da5cb5b14610148578063cb82cc8f14610173578063f2fde38b1461019c57610099565b36610099577f1d76c7e5736b9b335988489baea5b96ec803f8f1194842fe5ce3a6ec85e79b56333460405161008f929190610827565b60405180910390a1005b3480156100a557600080fd5b507fcc97ff3d49208ba08dc7ada5cf9e88e59e047be7d363118838f7af1233c49c43336040516100d59190610850565b60405180910390a1005b3480156100eb57600080fd5b506101066004803603810190610101919061089c565b6101c5565b005b34801561011457600080fd5b5061012f600480360381019061012a919061089c565b61035c565b005b34801561013d57600080fd5b506101466103d0565b005b34801561015457600080fd5b5061015d6103e4565b60405161016a9190610850565b60405180910390f35b34801561017f57600080fd5b5061019a6004803603810190610195919061089c565b61040d565b005b3480156101a857600080fd5b506101c360048036038101906101be91906108f5565b610600565b005b80600360003373ffffffffffffffffffffffffffffffffffffffff1673ffffffffffffffffffffffffffffffffffffffff168152602001908152602001600020541015610247576040517f08c379a000000000000000000000000000000000000000000000000000000000815260040161023e9061097f565b60405180910390fd5b806004600082825461025991906109ce565b9250508190555080600360003373ffffffffffffffffffffffffffffffffffffffff1673ffffffffffffffffffffffffffffffffffffffff16815260200190815260200160002060008282546102af91906109ce565b92505081905550600160009054906101000a900473ffffffffffffffffffffffffffffffffffffffff1673ffffffffffffffffffffffffffffffffffffffff166323b872dd3033846040518463ffffffff1660e01b815260040161031593929190610a24565b6020604051808303816000875af1158015610334573d6000803e3d6000fd5b505050506040513d601f19601f820116820180604052508101906103589190610a93565b5050565b610364610683565b3373ffffffffffffffffffffffffffffffffffffffff168160405161038890610af1565b60006040518083038185875af1925050503d80600081146103c5576040519150601f19603f3d011682016040523d82523d6000602084013e6103ca565b606091505b50505050565b6103d8610683565b6103e26000610701565b565b60008060009054906101000a900473ffffffffffffffffffffffffffffffffffffffff16905090565b80600160009054906101000a900473ffffffffffffffffffffffffffffffffffffffff1673ffffffffffffffffffffffffffffffffffffffff166370a08231336040518263ffffffff1660e01b81526004016104699190610850565b602060405180830381865afa158015610486573d6000803e3d6000fd5b505050506040513d601f19601f820116820180604052508101906104aa9190610b1b565b10156104eb576040517f08c379a00000000000000000000000000000000000000000000000000000000081526004016104e29061097f565b60405180910390fd5b80600460008282546104fd91906109ce565b9250508190555080600360003373ffffffffffffffffffffffffffffffffffffffff1673ffffffffffffffffffffffffffffffffffffffff168152602001908152602001600020600082825461055391906109ce565b92505081905550600160009054906101000a900473ffffffffffffffffffffffffffffffffffffffff1673ffffffffffffffffffffffffffffffffffffffff166323b872dd3330846040518463ffffffff1660e01b81526004016105b993929190610a24565b6020604051808303816000875af11580156105d8573d6000803e3d6000fd5b505050506040513d601f19601f820116820180604052508101906105fc9190610a93565b5050565b610608610683565b600073ffffffffffffffffffffffffffffffffffffffff168173ffffffffffffffffffffffffffffffffffffffff1603610677576040517f08c379a000000000000000000000000000000000000000000000000000000000815260040161066e90610bba565b60405180910390fd5b61068081610701565b50565b61068b6107c5565b73ffffffffffffffffffffffffffffffffffffffff166106a96103e4565b73ffffffffffffffffffffffffffffffffffffffff16146106ff576040517f08c379a00000000000000000000000000000000000000000000000000000000081526004016106f690610c26565b60405180910390fd5b565b60008060009054906101000a900473ffffffffffffffffffffffffffffffffffffffff169050816000806101000a81548173ffffffffffffffffffffffffffffffffffffffff021916908373ffffffffffffffffffffffffffffffffffffffff1602179055508173ffffffffffffffffffffffffffffffffffffffff168173ffffffffffffffffffffffffffffffffffffffff167f8be0079c531659141344cd1fd0a4f28419497f9722a3daafe3b4186f6b6457e060405160405180910390a35050565b600033905090565b600073ffffffffffffffffffffffffffffffffffffffff82169050919050565b60006107f8826107cd565b9050919050565b610808816107ed565b82525050565b6000819050919050565b6108218161080e565b82525050565b600060408201905061083c60008301856107ff565b6108496020830184610818565b9392505050565b600060208201905061086560008301846107ff565b92915050565b600080fd5b6108798161080e565b811461088457600080fd5b50565b60008135905061089681610870565b92915050565b6000602082840312156108b2576108b161086b565b5b60006108c084828501610887565b91505092915050565b6108d2816107ed565b81146108dd57600080fd5b50565b6000813590506108ef816108c9565b92915050565b60006020828403121561090b5761090a61086b565b5b6000610919848285016108e0565b91505092915050565b600082825260208201905092915050565b7f4e6f7420656e6f75676820425958207374616b65640000000000000000000000600082015250565b6000610969601583610922565b915061097482610933565b602082019050919050565b600060208201905081810360008301526109988161095c565b9050919050565b7f4e487b7100000000000000000000000000000000000000000000000000000000600052601160045260246000fd5b60006109d98261080e565b91506109e48361080e565b9250827fffffffffffffffffffffffffffffffffffffffffffffffffffffffffffffffff03821115610a1957610a1861099f565b5b828201905092915050565b6000606082019050610a3960008301866107ff565b610a4660208301856107ff565b610a536040830184610818565b949350505050565b60008115159050919050565b610a7081610a5b565b8114610a7b57600080fd5b50565b600081519050610a8d81610a67565b92915050565b600060208284031215610aa957610aa861086b565b5b6000610ab784828501610a7e565b91505092915050565b600081905092915050565b50565b6000610adb600083610ac0565b9150610ae682610acb565b600082019050919050565b6000610afc82610ace565b9150819050919050565b600081519050610b1581610870565b92915050565b600060208284031215610b3157610b3061086b565b5b6000610b3f84828501610b06565b91505092915050565b7f4f776e61626c653a206e6577206f776e657220697320746865207a65726f206160008201527f6464726573730000000000000000000000000000000000000000000000000000602082015250565b6000610ba4602683610922565b9150610baf82610b48565b604082019050919050565b60006020820190508181036000830152610bd381610b97565b9050919050565b7f4f776e61626c653a2063616c6c6572206973206e6f7420746865206f776e6572600082015250565b6000610c10602083610922565b9150610c1b82610bda565b602082019050919050565b60006020820190508181036000830152610c3f81610c03565b905091905056fea2646970667358221220f6051bf8dada86564b1c31765bdefd680b946de7b439adab0fbf44447d68d09964736f6c634300080e0033",
  "immutableReferences": {},
  "source": "// SPDX-License-Identifier: MIT\npragma solidity 0.8.14;\n\nimport \"@openzeppelin/contracts/access/Ownable.sol\";\nimport \"@openzeppelin/contracts/token/ERC20/IERC20.sol\";\n\ncontract BYXStakingManager is Ownable {\n\n    IERC20 BYX;\n\n    uint contractBYXBalance = 50000000;\n    mapping (address => uint) BYXStaked;\n    uint totalBYXStaked;\n\n    event LogBadCall(address user);\n    event LogDepot(address user, uint quantity);\n\n    constructor(address _byxAddress) {\n        // inject BYX address in the deploy\n        BYX = IERC20(_byxAddress);\n    }\n\n    /**\n    * @dev receive function will emit event in case of ether sent to the contract.\n    */\n    receive() external payable {\n        emit LogDepot(msg.sender, msg.value);\n    }\n\n    /**\n     * @dev fallback function will emit event in case of bad call of the contract.\n     */\n    fallback() external {\n        emit LogBadCall(msg.sender);\n    }\n\n    /**\n     * @notice withdraw function. Can only be used by the owner of the contract.\n     *\n     * @dev withdraw function. OnlyOwner.\n     *\n     * @param _amount the amount to withdraw.\n     */\n    function withdraw(uint _amount) external onlyOwner {\n        msg.sender.call{value: _amount}(\"\");\n    }\n\n    /**\n     * @notice deposit stake function.\n     *\n     * @dev deposit stake function.\n     *\n     * @param _amount the amount to deposit in staking.\n     */\n    function depositStake(uint _amount) external {\n        require(BYX.balanceOf(msg.sender) >= _amount, \"Not enough BYX staked\");\n        totalBYXStaked += _amount;\n        BYXStaked[msg.sender] += _amount;\n        BYX.transferFrom(msg.sender, address(this), _amount);  // TODO check if we need allowance\n    }\n\n    /**\n     * @notice withdraw stake function.\n     *\n     * @dev withdraw stake function.\n     *\n     * @param _amount the amount to withdraw from staking.\n     */\n    function withdrawStake(uint _amount) external {\n        require(BYXStaked[msg.sender] >= _amount, \"Not enough BYX staked\");\n        totalBYXStaked += _amount;\n        BYXStaked[msg.sender] += _amount;\n        BYX.transferFrom(address(this), msg.sender, _amount);\n    }\n}\n",
  "sourcePath": "/home/jack/Dev/PROJEX/4_Alyra_Projet_deFi_Staking_App/truffle/contracts/StakingManager.sol",
  "compiler": {
    "name": "solc",
    "version": "0.8.14+commit.80d49f37.Emscripten.clang"
  },
  "schemaVersion": "3.4.7",
  "updatedAt": "2022-07-26T09:39:13.400Z",
  "networkType": "ethereum",
  "devdoc": {
    "kind": "dev",
    "methods": {
      "depositStake(uint256)": {
        "details": "deposit stake function.",
        "params": {
          "_amount": "the amount to deposit in staking."
        }
      },
      "owner()": {
        "details": "Returns the address of the current owner."
      },
      "renounceOwnership()": {
        "details": "Leaves the contract without owner. It will not be possible to call `onlyOwner` functions anymore. Can only be called by the current owner. NOTE: Renouncing ownership will leave the contract without an owner, thereby removing any functionality that is only available to the owner."
      },
      "transferOwnership(address)": {
        "details": "Transfers ownership of the contract to a new account (`newOwner`). Can only be called by the current owner."
      },
      "withdraw(uint256)": {
        "details": "withdraw function. OnlyOwner.",
        "params": {
          "_amount": "the amount to withdraw."
        }
      },
      "withdrawStake(uint256)": {
        "details": "withdraw stake function.",
        "params": {
          "_amount": "the amount to withdraw from staking."
        }
      }
    },
    "version": 1
  },
  "userdoc": {
    "kind": "user",
    "methods": {
      "depositStake(uint256)": {
        "notice": "deposit stake function."
      },
      "withdraw(uint256)": {
        "notice": "withdraw function. Can only be used by the owner of the contract."
      },
      "withdrawStake(uint256)": {
        "notice": "withdraw stake function."
      }
    },
    "version": 1
  }
}