{
  "contractName": "BYXStakingManager",
  "abi": [
    {
      "inputs": [
        {
          "internalType": "address",
          "name": "_byxAddress",
          "type": "address"
        },
        {
          "internalType": "address",
          "name": "_sbyxAddress",
          "type": "address"
        }
      ],
      "stateMutability": "nonpayable",
      "type": "constructor"
    },
    {
      "anonymous": false,
      "inputs": [
        {
          "indexed": false,
          "internalType": "address",
          "name": "user",
          "type": "address"
        }
      ],
      "name": "LogBadCall",
      "type": "event"
    },
    {
      "anonymous": false,
      "inputs": [
        {
          "indexed": false,
          "internalType": "address",
          "name": "user",
          "type": "address"
        },
        {
          "indexed": false,
          "internalType": "uint256",
          "name": "quantity",
          "type": "uint256"
        }
      ],
      "name": "LogDepot",
      "type": "event"
    },
    {
      "anonymous": false,
      "inputs": [
        {
          "indexed": true,
          "internalType": "address",
          "name": "previousOwner",
          "type": "address"
        },
        {
          "indexed": true,
          "internalType": "address",
          "name": "newOwner",
          "type": "address"
        }
      ],
      "name": "OwnershipTransferred",
      "type": "event"
    },
    {
      "stateMutability": "nonpayable",
      "type": "fallback"
    },
    {
      "inputs": [],
      "name": "owner",
      "outputs": [
        {
          "internalType": "address",
          "name": "",
          "type": "address"
        }
      ],
      "stateMutability": "view",
      "type": "function",
      "constant": true
    },
    {
      "inputs": [],
      "name": "renounceOwnership",
      "outputs": [],
      "stateMutability": "nonpayable",
      "type": "function"
    },
    {
      "inputs": [
        {
          "internalType": "address",
          "name": "newOwner",
          "type": "address"
        }
      ],
      "name": "transferOwnership",
      "outputs": [],
      "stateMutability": "nonpayable",
      "type": "function"
    },
    {
      "stateMutability": "payable",
      "type": "receive",
      "payable": true
    },
    {
      "inputs": [
        {
          "internalType": "uint256",
          "name": "_amount",
          "type": "uint256"
        }
      ],
      "name": "withdraw",
      "outputs": [],
      "stateMutability": "nonpayable",
      "type": "function"
    },
    {
      "inputs": [
        {
          "internalType": "uint256",
          "name": "_amount",
          "type": "uint256"
        }
      ],
      "name": "depositStake",
      "outputs": [],
      "stateMutability": "nonpayable",
      "type": "function"
    },
    {
      "inputs": [
        {
          "internalType": "uint256",
          "name": "_amount",
          "type": "uint256"
        }
      ],
      "name": "withdrawStake",
      "outputs": [],
      "stateMutability": "nonpayable",
      "type": "function"
    },
    {
      "inputs": [
        {
          "internalType": "uint256",
          "name": "_amount",
          "type": "uint256"
        }
      ],
      "name": "initializePool",
      "outputs": [],
      "stateMutability": "nonpayable",
      "type": "function"
    }
  ],
  "bytecode": "0x60806040526a295be96e64066972000000600355674563918244f400006005553480156200002c57600080fd5b50604051620016ed380380620016ed83398181016040528101906200005291906200025e565b62000072620000666200012860201b60201c565b6200013060201b60201c565b81600160006101000a81548173ffffffffffffffffffffffffffffffffffffffff021916908373ffffffffffffffffffffffffffffffffffffffff16021790555080600260006101000a81548173ffffffffffffffffffffffffffffffffffffffff021916908373ffffffffffffffffffffffffffffffffffffffff160217905550436006819055506005546003546200010d91906200030d565b436200011a919062000345565b6007819055505050620003a2565b600033905090565b60008060009054906101000a900473ffffffffffffffffffffffffffffffffffffffff169050816000806101000a81548173ffffffffffffffffffffffffffffffffffffffff021916908373ffffffffffffffffffffffffffffffffffffffff1602179055508173ffffffffffffffffffffffffffffffffffffffff168173ffffffffffffffffffffffffffffffffffffffff167f8be0079c531659141344cd1fd0a4f28419497f9722a3daafe3b4186f6b6457e060405160405180910390a35050565b600080fd5b600073ffffffffffffffffffffffffffffffffffffffff82169050919050565b60006200022682620001f9565b9050919050565b620002388162000219565b81146200024457600080fd5b50565b60008151905062000258816200022d565b92915050565b60008060408385031215620002785762000277620001f4565b5b6000620002888582860162000247565b92505060206200029b8582860162000247565b9150509250929050565b6000819050919050565b7f4e487b7100000000000000000000000000000000000000000000000000000000600052601260045260246000fd5b7f4e487b7100000000000000000000000000000000000000000000000000000000600052601160045260246000fd5b60006200031a82620002a5565b91506200032783620002a5565b9250826200033a5762000339620002af565b5b828204905092915050565b60006200035282620002a5565b91506200035f83620002a5565b9250827fffffffffffffffffffffffffffffffffffffffffffffffffffffffffffffffff03821115620003975762000396620002de565b5b828201905092915050565b61133b80620003b26000396000f3fe6080604052600436106100745760003560e01c80638da5cb5b1161004e5780638da5cb5b1461016357806398881bc91461018e578063cb82cc8f146101b7578063f2fde38b146101e0576100b4565b806325d5971f146100fa5780632e1a7d4d14610123578063715018a61461014c576100b4565b366100b4577f1d76c7e5736b9b335988489baea5b96ec803f8f1194842fe5ce3a6ec85e79b5633346040516100aa929190610cb4565b60405180910390a1005b3480156100c057600080fd5b507fcc97ff3d49208ba08dc7ada5cf9e88e59e047be7d363118838f7af1233c49c43336040516100f09190610cdd565b60405180910390a1005b34801561010657600080fd5b50610121600480360381019061011c9190610d29565b610209565b005b34801561012f57600080fd5b5061014a60048036038101906101459190610d29565b610215565b005b34801561015857600080fd5b50610161610289565b005b34801561016f57600080fd5b5061017861029d565b6040516101859190610cdd565b60405180910390f35b34801561019a57600080fd5b506101b560048036038101906101b09190610d29565b6102c6565b005b3480156101c357600080fd5b506101de60048036038101906101d99190610d29565b6102da565b005b3480156101ec57600080fd5b5061020760048036038101906102029190610d82565b6102e6565b005b61021281610369565b50565b61021d6105a3565b3373ffffffffffffffffffffffffffffffffffffffff168160405161024190610de0565b60006040518083038185875af1925050503d806000811461027e576040519150601f19603f3d011682016040523d82523d6000602084013e610283565b606091505b50505050565b6102916105a3565b61029b6000610621565b565b60008060009054906101000a900473ffffffffffffffffffffffffffffffffffffffff16905090565b6102ce6105a3565b6102d7816106e5565b50565b6102e3816107a9565b50565b6102ee6105a3565b600073ffffffffffffffffffffffffffffffffffffffff168173ffffffffffffffffffffffffffffffffffffffff160361035d576040517f08c379a000000000000000000000000000000000000000000000000000000000815260040161035490610e78565b60405180910390fd5b61036681610621565b50565b80600260009054906101000a900473ffffffffffffffffffffffffffffffffffffffff1673ffffffffffffffffffffffffffffffffffffffff166370a08231336040518263ffffffff1660e01b81526004016103c59190610cdd565b602060405180830381865afa1580156103e2573d6000803e3d6000fd5b505050506040513d601f19601f820116820180604052508101906104069190610ead565b1015610447576040517f08c379a000000000000000000000000000000000000000000000000000000000815260040161043e90610f26565b60405180910390fd5b600061045282610a26565b9050600260009054906101000a900473ffffffffffffffffffffffffffffffffffffffff1673ffffffffffffffffffffffffffffffffffffffff166379cc679033846040518363ffffffff1660e01b81526004016104b1929190610cb4565b600060405180830381600087803b1580156104cb57600080fd5b505af11580156104df573d6000803e3d6000fd5b5050505080600460008282546104f59190610f75565b92505081905550600160009054906101000a900473ffffffffffffffffffffffffffffffffffffffff1673ffffffffffffffffffffffffffffffffffffffff166323b872dd3033846040518463ffffffff1660e01b815260040161055b93929190610fa9565b6020604051808303816000875af115801561057a573d6000803e3d6000fd5b505050506040513d601f19601f8201168201806040525081019061059e9190611018565b505050565b6105ab610ae0565b73ffffffffffffffffffffffffffffffffffffffff166105c961029d565b73ffffffffffffffffffffffffffffffffffffffff161461061f576040517f08c379a000000000000000000000000000000000000000000000000000000000815260040161061690611091565b60405180910390fd5b565b60008060009054906101000a900473ffffffffffffffffffffffffffffffffffffffff169050816000806101000a81548173ffffffffffffffffffffffffffffffffffffffff021916908373ffffffffffffffffffffffffffffffffffffffff1602179055508173ffffffffffffffffffffffffffffffffffffffff168173ffffffffffffffffffffffffffffffffffffffff167f8be0079c531659141344cd1fd0a4f28419497f9722a3daafe3b4186f6b6457e060405160405180910390a35050565b80600460008282546106f791906110b1565b9250508190555080600360008282546107109190610f75565b92505081905550600260009054906101000a900473ffffffffffffffffffffffffffffffffffffffff1673ffffffffffffffffffffffffffffffffffffffff166340c10f1930836040518363ffffffff1660e01b8152600401610774929190610cb4565b600060405180830381600087803b15801561078e57600080fd5b505af11580156107a2573d6000803e3d6000fd5b5050505050565b80600160009054906101000a900473ffffffffffffffffffffffffffffffffffffffff1673ffffffffffffffffffffffffffffffffffffffff166370a08231336040518263ffffffff1660e01b81526004016108059190610cdd565b602060405180830381865afa158015610822573d6000803e3d6000fd5b505050506040513d601f19601f820116820180604052508101906108469190610ead565b1015610887576040517f08c379a000000000000000000000000000000000000000000000000000000000815260040161087e90611153565b60405180910390fd5b600081116108ca576040517f08c379a00000000000000000000000000000000000000000000000000000000081526004016108c1906111bf565b60405180910390fd5b80600460008282546108dc91906110b1565b92505081905550600160009054906101000a900473ffffffffffffffffffffffffffffffffffffffff1673ffffffffffffffffffffffffffffffffffffffff166323b872dd3330846040518463ffffffff1660e01b815260040161094293929190610fa9565b6020604051808303816000875af1158015610961573d6000803e3d6000fd5b505050506040513d601f19601f820116820180604052508101906109859190611018565b50600061099182610ae8565b9050600260009054906101000a900473ffffffffffffffffffffffffffffffffffffffff1673ffffffffffffffffffffffffffffffffffffffff166340c10f1933836040518363ffffffff1660e01b81526004016109f0929190610cb4565b600060405180830381600087803b158015610a0a57600080fd5b505af1158015610a1e573d6000803e3d6000fd5b505050505050565b6000610a30610ba2565b600260009054906101000a900473ffffffffffffffffffffffffffffffffffffffff1673ffffffffffffffffffffffffffffffffffffffff166318160ddd6040518163ffffffff1660e01b8152600401602060405180830381865afa158015610a9d573d6000803e3d6000fd5b505050506040513d601f19601f82011682018060405250810190610ac19190610ead565b60045483610acf91906111df565b610ad99190611268565b9050919050565b600033905090565b6000610af2610ba2565b600454600260009054906101000a900473ffffffffffffffffffffffffffffffffffffffff1673ffffffffffffffffffffffffffffffffffffffff166318160ddd6040518163ffffffff1660e01b8152600401602060405180830381865afa158015610b62573d6000803e3d6000fd5b505050506040513d601f19601f82011682018060405250810190610b869190610ead565b83610b9191906111df565b610b9b9190611268565b9050919050565b600754431115610be7576040517f08c379a0000000000000000000000000000000000000000000000000000000008152600401610bde906112e5565b60405180910390fd5b600654431115610c5857600060065443610c019190610f75565b905060055481610c1191906111df565b60046000828254610c2291906110b1565b9250508190555060055481610c3791906111df565b60036000828254610c489190610f75565b9250508190555043600681905550505b565b600073ffffffffffffffffffffffffffffffffffffffff82169050919050565b6000610c8582610c5a565b9050919050565b610c9581610c7a565b82525050565b6000819050919050565b610cae81610c9b565b82525050565b6000604082019050610cc96000830185610c8c565b610cd66020830184610ca5565b9392505050565b6000602082019050610cf26000830184610c8c565b92915050565b600080fd5b610d0681610c9b565b8114610d1157600080fd5b50565b600081359050610d2381610cfd565b92915050565b600060208284031215610d3f57610d3e610cf8565b5b6000610d4d84828501610d14565b91505092915050565b610d5f81610c7a565b8114610d6a57600080fd5b50565b600081359050610d7c81610d56565b92915050565b600060208284031215610d9857610d97610cf8565b5b6000610da684828501610d6d565b91505092915050565b600081905092915050565b50565b6000610dca600083610daf565b9150610dd582610dba565b600082019050919050565b6000610deb82610dbd565b9150819050919050565b600082825260208201905092915050565b7f4f776e61626c653a206e6577206f776e657220697320746865207a65726f206160008201527f6464726573730000000000000000000000000000000000000000000000000000602082015250565b6000610e62602683610df5565b9150610e6d82610e06565b604082019050919050565b60006020820190508181036000830152610e9181610e55565b9050919050565b600081519050610ea781610cfd565b92915050565b600060208284031215610ec357610ec2610cf8565b5b6000610ed184828501610e98565b91505092915050565b7f4e6f7420656e6f756768207342595820696e2077616c6c657400000000000000600082015250565b6000610f10601983610df5565b9150610f1b82610eda565b602082019050919050565b60006020820190508181036000830152610f3f81610f03565b9050919050565b7f4e487b7100000000000000000000000000000000000000000000000000000000600052601160045260246000fd5b6000610f8082610c9b565b9150610f8b83610c9b565b925082821015610f9e57610f9d610f46565b5b828203905092915050565b6000606082019050610fbe6000830186610c8c565b610fcb6020830185610c8c565b610fd86040830184610ca5565b949350505050565b60008115159050919050565b610ff581610fe0565b811461100057600080fd5b50565b60008151905061101281610fec565b92915050565b60006020828403121561102e5761102d610cf8565b5b600061103c84828501611003565b91505092915050565b7f4f776e61626c653a2063616c6c6572206973206e6f7420746865206f776e6572600082015250565b600061107b602083610df5565b915061108682611045565b602082019050919050565b600060208201905081810360008301526110aa8161106e565b9050919050565b60006110bc82610c9b565b91506110c783610c9b565b9250827fffffffffffffffffffffffffffffffffffffffffffffffffffffffffffffffff038211156110fc576110fb610f46565b5b828201905092915050565b7f4e6f7420656e6f7567682042595820696e2077616c6c65740000000000000000600082015250565b600061113d601883610df5565b915061114882611107565b602082019050919050565b6000602082019050818103600083015261116c81611130565b9050919050565b7f416d6f756e74206d75737420626520706f736974697665000000000000000000600082015250565b60006111a9601783610df5565b91506111b482611173565b602082019050919050565b600060208201905081810360008301526111d88161119c565b9050919050565b60006111ea82610c9b565b91506111f583610c9b565b9250817fffffffffffffffffffffffffffffffffffffffffffffffffffffffffffffffff048311821515161561122e5761122d610f46565b5b828202905092915050565b7f4e487b7100000000000000000000000000000000000000000000000000000000600052601260045260246000fd5b600061127382610c9b565b915061127e83610c9b565b92508261128e5761128d611239565b5b828204905092915050565b7f52657761726473206861766520616c726561647920656e646564000000000000600082015250565b60006112cf601a83610df5565b91506112da82611299565b602082019050919050565b600060208201905081810360008301526112fe816112c2565b905091905056fea26469706673582212204d548b960bd2ae1a047f27de423e96291e2d79076cbcd74f4ea9d430ba881fb364736f6c634300080e0033",
  "immutableReferences": {},
  "source": "// SPDX-License-Identifier: MIT\npragma solidity 0.8.14;\n\nimport \"@openzeppelin/contracts/access/Ownable.sol\";\nimport \"@openzeppelin/contracts/token/ERC20/IERC20.sol\";\nimport \"./interfaces/IERC20MintableAndBurnable.sol\";\n\ncontract BYXStakingManager is Ownable {\n\n    IERC20 BYX;\n    IERC20MintableAndBurnable sBYX;\n\n    /// BYX token fund for staking rewards\n    uint BYXFund = 50000000 * 10 ** 18; // 50 000 000 tokens\n    /// Amount of BYX token in the staking pool\n    uint BYXPool;\n    /// BYX reward per block\n    uint BYXRewardPerBlock = 5 * 10 ** 18; // 5 tokens\n\n    uint lastBlockUpdate;\n    uint lastBlockReward;\n\n    event LogBadCall(address user);\n    event LogDepot(address user, uint quantity);\n\n    /*************************************************************************************************/\n    /*                                        SPECIAL FUNCTIONS                                      */\n    /*************************************************************************************************/\n\n    constructor(address _byxAddress, address _sbyxAddress) {\n        // inject BYX address in the deploy\n        BYX = IERC20(_byxAddress);\n        sBYX = IERC20MintableAndBurnable(_sbyxAddress);\n        lastBlockUpdate = block.number;\n        lastBlockReward = block.number + (BYXFund / BYXRewardPerBlock);\n    }\n\n    /**\n    * @dev receive function will emit event in case of ether sent to the contract.\n    */\n    receive() external payable {\n        emit LogDepot(msg.sender, msg.value);\n    }\n\n    /**\n     * @dev fallback function will emit event in case of bad call of the contract.\n     */\n    fallback() external {\n        emit LogBadCall(msg.sender);\n    }\n\n    /*************************************************************************************************/\n    /*                                        EXTERNAL FUNCTIONS                                     */\n    /*************************************************************************************************/\n\n    /**\n     * @notice withdraw function. Can only be used by the owner of the contract.\n     *\n     * @dev withdraw function. OnlyOwner.\n     *\n     * @param _amount the amount to withdraw.\n     */\n    function withdraw(uint _amount) external onlyOwner {\n        msg.sender.call{value: _amount}(\"\");\n    }\n\n    /**\n     * @notice deposit stake function.\n     *\n     * @dev deposit stake function. Call internal function for gas optimisation.\n     *\n     * @param _amount the amount to deposit in staking.\n     */\n    function depositStake(uint _amount) external {\n        _depositStake(_amount);\n    }\n\n    /**\n     * @notice withdraw stake function.\n     *\n     * @dev withdraw stake function. Call internal function for gas optimisation.\n     *\n     * @param _amount the amount to withdraw from staking.\n     */\n    function withdrawStake(uint _amount) external {\n        _withdrawStake(_amount);\n    }\n\n    /**\n    * @notice pool initialization.\n    *\n    * @dev initialize the pool with a custom amount.\n    * In order to avoid empty pool.\n    * Calculation can not be made with 0 value in the pool.\n    *\n    * @param _amount the amount to deposit in the initial pool.\n    */\n    function initializePool(uint _amount) external onlyOwner{\n        _initializePool(_amount);\n    }\n\n\n    /*************************************************************************************************/\n    /*                                        INTERNAL FUNCTIONS                                     */\n    /*************************************************************************************************/\n\n    /**\n     * @notice pool initialization.\n     *\n     * @dev initialize the pool with a custom amount.\n     *\n     * @param _amount the amount to deposit in the initial pool.\n     */\n    function _initializePool(uint _amount) internal {\n        BYXPool += _amount;\n        BYXFund -= _amount;\n        sBYX.mint(address(this), _amount);\n    }\n\n    /**\n     * @notice deposit stake function.\n     *\n     * @dev deposit stake function.\n     *\n     * @param _amount the amount to deposit in staking.\n     */\n    function _depositStake(uint _amount) internal {\n        require(BYX.balanceOf(msg.sender) >= _amount, \"Not enough BYX in wallet\");\n        require(_amount > 0, \"Amount must be positive\");\n        BYXPool += _amount;\n        BYX.transferFrom(msg.sender, address(this), _amount);  // TODO check if we need allowance\n        uint _sBYXamount = _calculateSBYXAmountFromBYX(_amount);\n        sBYX.mint(msg.sender, _sBYXamount);\n    }\n\n    /**\n     * @notice withdraw stake function.\n     *\n     * @dev withdraw stake function.\n     *\n     * @param _sBYXAmount the amount to withdraw from staking.\n     */\n    function _withdrawStake(uint _sBYXAmount) internal {\n        require(sBYX.balanceOf(msg.sender) >= _sBYXAmount, \"Not enough sBYX in wallet\");\n        uint _amount = _calculateBYXAmountFromsBYX(_sBYXAmount);\n        sBYX.burnFrom(msg.sender, _sBYXAmount);\n        BYXPool -= _amount;\n        BYX.transferFrom(address(this), msg.sender, _amount);\n    }\n\n    /**\n     * @notice calculate sBYX amount from BYX amount.\n     *\n     * @dev calculate sBYX amount from BYX amount.\n     *\n     * @param _amount the amount of BYX to convert.\n     */\n    function _calculateSBYXAmountFromBYX(uint _amount) internal returns (uint _sBYXAmount) {\n        _updatePool();\n        return _amount * sBYX.totalSupply() / BYXPool;\n    }\n\n    /**\n     * @notice calculate BYX amount from sBYX amount.\n     *\n     * @dev calculate BYX amount from sBYX amount.\n     *\n     * @param _amount the amount of sBYX to convert.\n     */\n    function _calculateBYXAmountFromsBYX(uint _sBYXAmount) internal returns (uint _amount) {\n        _updatePool();\n        return _sBYXAmount * BYXPool / sBYX.totalSupply();\n    }\n\n    /**\n     * @notice update pool with new rewards.\n     *\n     * @dev update pool with new rewards.\n     */\n    function _updatePool() internal {\n        require(block.number <= lastBlockReward, \"Rewards have already ended\");\n        if (block.number > lastBlockUpdate) {\n            uint nbBlock = block.number - lastBlockUpdate;\n            BYXPool += nbBlock * BYXRewardPerBlock;\n            BYXFund -= nbBlock * BYXRewardPerBlock;\n            lastBlockUpdate = block.number;\n       }\n    }\n}\n",
  "sourcePath": "/home/jack/Dev/PROJEX/4_Alyra_Projet_deFi_Staking_App/truffle/contracts/BYXStakingManager.sol",
  "compiler": {
    "name": "solc",
    "version": "0.8.14+commit.80d49f37.Emscripten.clang"
  },
  "schemaVersion": "3.4.7",
  "updatedAt": "2022-08-02T08:20:20.800Z",
  "networkType": "ethereum",
  "devdoc": {
    "kind": "dev",
    "methods": {
      "depositStake(uint256)": {
        "details": "deposit stake function. Call internal function for gas optimisation.",
        "params": {
          "_amount": "the amount to deposit in staking."
        }
      },
      "initializePool(uint256)": {
        "details": "initialize the pool with a custom amount. In order to avoid empty pool. Calculation can not be made with 0 value in the pool.",
        "params": {
          "_amount": "the amount to deposit in the initial pool."
        }
      },
      "owner()": {
        "details": "Returns the address of the current owner."
      },
      "renounceOwnership()": {
        "details": "Leaves the contract without owner. It will not be possible to call `onlyOwner` functions anymore. Can only be called by the current owner. NOTE: Renouncing ownership will leave the contract without an owner, thereby removing any functionality that is only available to the owner."
      },
      "transferOwnership(address)": {
        "details": "Transfers ownership of the contract to a new account (`newOwner`). Can only be called by the current owner."
      },
      "withdraw(uint256)": {
        "details": "withdraw function. OnlyOwner.",
        "params": {
          "_amount": "the amount to withdraw."
        }
      },
      "withdrawStake(uint256)": {
        "details": "withdraw stake function. Call internal function for gas optimisation.",
        "params": {
          "_amount": "the amount to withdraw from staking."
        }
      }
    },
    "version": 1
  },
  "userdoc": {
    "kind": "user",
    "methods": {
      "depositStake(uint256)": {
        "notice": "deposit stake function."
      },
      "initializePool(uint256)": {
        "notice": "pool initialization."
      },
      "withdraw(uint256)": {
        "notice": "withdraw function. Can only be used by the owner of the contract."
      },
      "withdrawStake(uint256)": {
        "notice": "withdraw stake function."
      }
    },
    "version": 1
  }
}