{
  "contractName": "BYXStakingManager",
  "abi": [
    {
      "inputs": [
        {
          "internalType": "address",
          "name": "_byxAddress",
          "type": "address"
        },
        {
          "internalType": "address",
          "name": "_sbyxAddress",
          "type": "address"
        }
      ],
      "stateMutability": "nonpayable",
      "type": "constructor"
    },
    {
      "anonymous": false,
      "inputs": [
        {
          "indexed": false,
          "internalType": "address",
          "name": "user",
          "type": "address"
        }
      ],
      "name": "LogBadCall",
      "type": "event"
    },
    {
      "anonymous": false,
      "inputs": [
        {
          "indexed": false,
          "internalType": "address",
          "name": "user",
          "type": "address"
        },
        {
          "indexed": false,
          "internalType": "uint256",
          "name": "quantity",
          "type": "uint256"
        }
      ],
      "name": "LogDepot",
      "type": "event"
    },
    {
      "anonymous": false,
      "inputs": [
        {
          "indexed": true,
          "internalType": "address",
          "name": "previousOwner",
          "type": "address"
        },
        {
          "indexed": true,
          "internalType": "address",
          "name": "newOwner",
          "type": "address"
        }
      ],
      "name": "OwnershipTransferred",
      "type": "event"
    },
    {
      "anonymous": false,
      "inputs": [
        {
          "indexed": false,
          "internalType": "address",
          "name": "user",
          "type": "address"
        },
        {
          "indexed": false,
          "internalType": "string",
          "name": "operation",
          "type": "string"
        },
        {
          "indexed": false,
          "internalType": "uint256",
          "name": "amount",
          "type": "uint256"
        }
      ],
      "name": "Stake",
      "type": "event"
    },
    {
      "stateMutability": "nonpayable",
      "type": "fallback"
    },
    {
      "inputs": [],
      "name": "BYXPool",
      "outputs": [
        {
          "internalType": "uint256",
          "name": "",
          "type": "uint256"
        }
      ],
      "stateMutability": "view",
      "type": "function",
      "constant": true
    },
    {
      "inputs": [],
      "name": "owner",
      "outputs": [
        {
          "internalType": "address",
          "name": "",
          "type": "address"
        }
      ],
      "stateMutability": "view",
      "type": "function",
      "constant": true
    },
    {
      "inputs": [],
      "name": "renounceOwnership",
      "outputs": [],
      "stateMutability": "nonpayable",
      "type": "function"
    },
    {
      "inputs": [
        {
          "internalType": "address",
          "name": "newOwner",
          "type": "address"
        }
      ],
      "name": "transferOwnership",
      "outputs": [],
      "stateMutability": "nonpayable",
      "type": "function"
    },
    {
      "stateMutability": "payable",
      "type": "receive",
      "payable": true
    },
    {
      "inputs": [],
      "name": "getAPR",
      "outputs": [
        {
          "internalType": "uint256",
          "name": "",
          "type": "uint256"
        }
      ],
      "stateMutability": "view",
      "type": "function",
      "constant": true
    },
    {
      "inputs": [
        {
          "internalType": "uint256",
          "name": "_amount",
          "type": "uint256"
        }
      ],
      "name": "withdraw",
      "outputs": [],
      "stateMutability": "nonpayable",
      "type": "function"
    },
    {
      "inputs": [
        {
          "internalType": "uint256",
          "name": "_amount",
          "type": "uint256"
        }
      ],
      "name": "depositStake",
      "outputs": [],
      "stateMutability": "nonpayable",
      "type": "function"
    },
    {
      "inputs": [
        {
          "internalType": "uint256",
          "name": "_amount",
          "type": "uint256"
        }
      ],
      "name": "withdrawStake",
      "outputs": [],
      "stateMutability": "nonpayable",
      "type": "function"
    },
    {
      "inputs": [
        {
          "internalType": "uint256",
          "name": "_amount",
          "type": "uint256"
        }
      ],
      "name": "initializePool",
      "outputs": [],
      "stateMutability": "nonpayable",
      "type": "function"
    }
  ],
  "bytecode": "0x60806040526a295be96e64066972000000600355674563918244f400006005553480156200002c57600080fd5b5060405162001cf538038062001cf583398181016040528101906200005291906200025e565b62000072620000666200012860201b60201c565b6200013060201b60201c565b81600160006101000a81548173ffffffffffffffffffffffffffffffffffffffff021916908373ffffffffffffffffffffffffffffffffffffffff16021790555080600260006101000a81548173ffffffffffffffffffffffffffffffffffffffff021916908373ffffffffffffffffffffffffffffffffffffffff160217905550436006819055506005546003546200010d91906200030d565b436200011a919062000345565b6007819055505050620003a2565b600033905090565b60008060009054906101000a900473ffffffffffffffffffffffffffffffffffffffff169050816000806101000a81548173ffffffffffffffffffffffffffffffffffffffff021916908373ffffffffffffffffffffffffffffffffffffffff1602179055508173ffffffffffffffffffffffffffffffffffffffff168173ffffffffffffffffffffffffffffffffffffffff167f8be0079c531659141344cd1fd0a4f28419497f9722a3daafe3b4186f6b6457e060405160405180910390a35050565b600080fd5b600073ffffffffffffffffffffffffffffffffffffffff82169050919050565b60006200022682620001f9565b9050919050565b620002388162000219565b81146200024457600080fd5b50565b60008151905062000258816200022d565b92915050565b60008060408385031215620002785762000277620001f4565b5b6000620002888582860162000247565b92505060206200029b8582860162000247565b9150509250929050565b6000819050919050565b7f4e487b7100000000000000000000000000000000000000000000000000000000600052601260045260246000fd5b7f4e487b7100000000000000000000000000000000000000000000000000000000600052601160045260246000fd5b60006200031a82620002a5565b91506200032783620002a5565b9250826200033a5762000339620002af565b5b828204905092915050565b60006200035282620002a5565b91506200035f83620002a5565b9250827fffffffffffffffffffffffffffffffffffffffffffffffffffffffffffffffff03821115620003975762000396620002de565b5b828201905092915050565b61194380620003b26000396000f3fe60806040526004361061008a5760003560e01c806398881bc91161005957806398881bc9146101a4578063c89d5b8b146101cd578063cb82cc8f146101f8578063dfbe7e9114610221578063f2fde38b1461024c576100ca565b806325d5971f146101105780632e1a7d4d14610139578063715018a6146101625780638da5cb5b14610179576100ca565b366100ca577f1d76c7e5736b9b335988489baea5b96ec803f8f1194842fe5ce3a6ec85e79b5633346040516100c0929190611090565b60405180910390a1005b3480156100d657600080fd5b507fcc97ff3d49208ba08dc7ada5cf9e88e59e047be7d363118838f7af1233c49c433360405161010691906110b9565b60405180910390a1005b34801561011c57600080fd5b5061013760048036038101906101329190611105565b610275565b005b34801561014557600080fd5b50610160600480360381019061015b9190611105565b610281565b005b34801561016e57600080fd5b506101776102f5565b005b34801561018557600080fd5b5061018e610309565b60405161019b91906110b9565b60405180910390f35b3480156101b057600080fd5b506101cb60048036038101906101c69190611105565b610332565b005b3480156101d957600080fd5b506101e2610346565b6040516101ef9190611132565b60405180910390f35b34801561020457600080fd5b5061021f600480360381019061021a9190611105565b610384565b005b34801561022d57600080fd5b50610236610390565b6040516102439190611132565b60405180910390f35b34801561025857600080fd5b50610273600480360381019061026e9190611179565b610396565b005b61027e81610419565b50565b610289610866565b3373ffffffffffffffffffffffffffffffffffffffff16816040516102ad906111d7565b60006040518083038185875af1925050503d80600081146102ea576040519150601f19603f3d011682016040523d82523d6000602084013e6102ef565b606091505b50505050565b6102fd610866565b61030760006108e4565b565b60008060009054906101000a900473ffffffffffffffffffffffffffffffffffffffff16905090565b61033a610866565b610343816109a8565b50565b600060045461271061016d611900600554610361919061121b565b61036b919061121b565b610375919061121b565b61037f91906112a4565b905090565b61038d81610a6c565b50565b60045481565b61039e610866565b600073ffffffffffffffffffffffffffffffffffffffff168173ffffffffffffffffffffffffffffffffffffffff160361040d576040517f08c379a000000000000000000000000000000000000000000000000000000000815260040161040490611358565b60405180910390fd5b610416816108e4565b50565b80600260009054906101000a900473ffffffffffffffffffffffffffffffffffffffff1673ffffffffffffffffffffffffffffffffffffffff166370a08231336040518263ffffffff1660e01b815260040161047591906110b9565b602060405180830381865afa158015610492573d6000803e3d6000fd5b505050506040513d601f19601f820116820180604052508101906104b6919061138d565b10156104f7576040517f08c379a00000000000000000000000000000000000000000000000000000000081526004016104ee90611406565b60405180910390fd5b6000811161053a576040517f08c379a000000000000000000000000000000000000000000000000000000000815260040161053190611472565b60405180910390fd5b80600260009054906101000a900473ffffffffffffffffffffffffffffffffffffffff1673ffffffffffffffffffffffffffffffffffffffff1663dd62ed3e33306040518363ffffffff1660e01b8152600401610598929190611492565b602060405180830381865afa1580156105b5573d6000803e3d6000fd5b505050506040513d601f19601f820116820180604052508101906105d9919061138d565b101561061a576040517f08c379a000000000000000000000000000000000000000000000000000000000815260040161061190611507565b60405180910390fd5b600061062582610e02565b90506000600260009054906101000a900473ffffffffffffffffffffffffffffffffffffffff1673ffffffffffffffffffffffffffffffffffffffff166370a08231336040518263ffffffff1660e01b815260040161068491906110b9565b602060405180830381865afa1580156106a1573d6000803e3d6000fd5b505050506040513d601f19601f820116820180604052508101906106c5919061138d565b612710846106d3919061121b565b6106dd91906112a4565b9050600260009054906101000a900473ffffffffffffffffffffffffffffffffffffffff1673ffffffffffffffffffffffffffffffffffffffff166379cc679033856040518363ffffffff1660e01b815260040161073c929190611090565b600060405180830381600087803b15801561075657600080fd5b505af115801561076a573d6000803e3d6000fd5b5050505081600460008282546107809190611527565b92505081905550600160009054906101000a900473ffffffffffffffffffffffffffffffffffffffff1673ffffffffffffffffffffffffffffffffffffffff1663a9059cbb33846040518363ffffffff1660e01b81526004016107e4929190611090565b6020604051808303816000875af1158015610803573d6000803e3d6000fd5b505050506040513d601f19601f820116820180604052508101906108279190611593565b507fb3b936b14d57c751f127281bf2581efcc913ded277a0d9d5acc68dfd2b9af1b9338260405161085992919061160c565b60405180910390a1505050565b61086e610ebc565b73ffffffffffffffffffffffffffffffffffffffff1661088c610309565b73ffffffffffffffffffffffffffffffffffffffff16146108e2576040517f08c379a00000000000000000000000000000000000000000000000000000000081526004016108d990611694565b60405180910390fd5b565b60008060009054906101000a900473ffffffffffffffffffffffffffffffffffffffff169050816000806101000a81548173ffffffffffffffffffffffffffffffffffffffff021916908373ffffffffffffffffffffffffffffffffffffffff1602179055508173ffffffffffffffffffffffffffffffffffffffff168173ffffffffffffffffffffffffffffffffffffffff167f8be0079c531659141344cd1fd0a4f28419497f9722a3daafe3b4186f6b6457e060405160405180910390a35050565b80600460008282546109ba91906116b4565b9250508190555080600360008282546109d39190611527565b92505081905550600260009054906101000a900473ffffffffffffffffffffffffffffffffffffffff1673ffffffffffffffffffffffffffffffffffffffff166340c10f1930836040518363ffffffff1660e01b8152600401610a37929190611090565b600060405180830381600087803b158015610a5157600080fd5b505af1158015610a65573d6000803e3d6000fd5b5050505050565b80600160009054906101000a900473ffffffffffffffffffffffffffffffffffffffff1673ffffffffffffffffffffffffffffffffffffffff166370a08231336040518263ffffffff1660e01b8152600401610ac891906110b9565b602060405180830381865afa158015610ae5573d6000803e3d6000fd5b505050506040513d601f19601f82011682018060405250810190610b09919061138d565b1015610b4a576040517f08c379a0000000000000000000000000000000000000000000000000000000008152600401610b4190611756565b60405180910390fd5b60008111610b8d576040517f08c379a0000000000000000000000000000000000000000000000000000000008152600401610b8490611472565b60405180910390fd5b80600160009054906101000a900473ffffffffffffffffffffffffffffffffffffffff1673ffffffffffffffffffffffffffffffffffffffff1663dd62ed3e33306040518363ffffffff1660e01b8152600401610beb929190611492565b602060405180830381865afa158015610c08573d6000803e3d6000fd5b505050506040513d601f19601f82011682018060405250810190610c2c919061138d565b1015610c6d576040517f08c379a0000000000000000000000000000000000000000000000000000000008152600401610c64906117c2565b60405180910390fd5b8060046000828254610c7f91906116b4565b92505081905550600160009054906101000a900473ffffffffffffffffffffffffffffffffffffffff1673ffffffffffffffffffffffffffffffffffffffff166323b872dd3330846040518463ffffffff1660e01b8152600401610ce5939291906117e2565b6020604051808303816000875af1158015610d04573d6000803e3d6000fd5b505050506040513d601f19601f82011682018060405250810190610d289190611593565b506000610d3482610ec4565b9050600260009054906101000a900473ffffffffffffffffffffffffffffffffffffffff1673ffffffffffffffffffffffffffffffffffffffff166340c10f1933836040518363ffffffff1660e01b8152600401610d93929190611090565b600060405180830381600087803b158015610dad57600080fd5b505af1158015610dc1573d6000803e3d6000fd5b505050507fb3b936b14d57c751f127281bf2581efcc913ded277a0d9d5acc68dfd2b9af1b93383604051610df6929190611865565b60405180910390a15050565b6000610e0c610f7e565b600260009054906101000a900473ffffffffffffffffffffffffffffffffffffffff1673ffffffffffffffffffffffffffffffffffffffff166318160ddd6040518163ffffffff1660e01b8152600401602060405180830381865afa158015610e79573d6000803e3d6000fd5b505050506040513d601f19601f82011682018060405250810190610e9d919061138d565b60045483610eab919061121b565b610eb591906112a4565b9050919050565b600033905090565b6000610ece610f7e565b600454600260009054906101000a900473ffffffffffffffffffffffffffffffffffffffff1673ffffffffffffffffffffffffffffffffffffffff166318160ddd6040518163ffffffff1660e01b8152600401602060405180830381865afa158015610f3e573d6000803e3d6000fd5b505050506040513d601f19601f82011682018060405250810190610f62919061138d565b83610f6d919061121b565b610f7791906112a4565b9050919050565b600754431115610fc3576040517f08c379a0000000000000000000000000000000000000000000000000000000008152600401610fba906118ed565b60405180910390fd5b60065443111561103457600060065443610fdd9190611527565b905060055481610fed919061121b565b60046000828254610ffe91906116b4565b9250508190555060055481611013919061121b565b600360008282546110249190611527565b9250508190555043600681905550505b565b600073ffffffffffffffffffffffffffffffffffffffff82169050919050565b600061106182611036565b9050919050565b61107181611056565b82525050565b6000819050919050565b61108a81611077565b82525050565b60006040820190506110a56000830185611068565b6110b26020830184611081565b9392505050565b60006020820190506110ce6000830184611068565b92915050565b600080fd5b6110e281611077565b81146110ed57600080fd5b50565b6000813590506110ff816110d9565b92915050565b60006020828403121561111b5761111a6110d4565b5b6000611129848285016110f0565b91505092915050565b60006020820190506111476000830184611081565b92915050565b61115681611056565b811461116157600080fd5b50565b6000813590506111738161114d565b92915050565b60006020828403121561118f5761118e6110d4565b5b600061119d84828501611164565b91505092915050565b600081905092915050565b50565b60006111c16000836111a6565b91506111cc826111b1565b600082019050919050565b60006111e2826111b4565b9150819050919050565b7f4e487b7100000000000000000000000000000000000000000000000000000000600052601160045260246000fd5b600061122682611077565b915061123183611077565b9250817fffffffffffffffffffffffffffffffffffffffffffffffffffffffffffffffff048311821515161561126a576112696111ec565b5b828202905092915050565b7f4e487b7100000000000000000000000000000000000000000000000000000000600052601260045260246000fd5b60006112af82611077565b91506112ba83611077565b9250826112ca576112c9611275565b5b828204905092915050565b600082825260208201905092915050565b7f4f776e61626c653a206e6577206f776e657220697320746865207a65726f206160008201527f6464726573730000000000000000000000000000000000000000000000000000602082015250565b60006113426026836112d5565b915061134d826112e6565b604082019050919050565b6000602082019050818103600083015261137181611335565b9050919050565b600081519050611387816110d9565b92915050565b6000602082840312156113a3576113a26110d4565b5b60006113b184828501611378565b91505092915050565b7f4e6f7420656e6f756768207342595820696e2077616c6c657400000000000000600082015250565b60006113f06019836112d5565b91506113fb826113ba565b602082019050919050565b6000602082019050818103600083015261141f816113e3565b9050919050565b7f416d6f756e74206d75737420626520706f736974697665000000000000000000600082015250565b600061145c6017836112d5565b915061146782611426565b602082019050919050565b6000602082019050818103600083015261148b8161144f565b9050919050565b60006040820190506114a76000830185611068565b6114b46020830184611068565b9392505050565b7f734259583a20696e73756666696369656e7420616c6c6f77616e636500000000600082015250565b60006114f1601c836112d5565b91506114fc826114bb565b602082019050919050565b60006020820190508181036000830152611520816114e4565b9050919050565b600061153282611077565b915061153d83611077565b9250828210156115505761154f6111ec565b5b828203905092915050565b60008115159050919050565b6115708161155b565b811461157b57600080fd5b50565b60008151905061158d81611567565b92915050565b6000602082840312156115a9576115a86110d4565b5b60006115b78482850161157e565b91505092915050565b7f7769746864726177000000000000000000000000000000000000000000000000600082015250565b60006115f66008836112d5565b9150611601826115c0565b602082019050919050565b60006060820190506116216000830185611068565b8181036020830152611632816115e9565b90506116416040830184611081565b9392505050565b7f4f776e61626c653a2063616c6c6572206973206e6f7420746865206f776e6572600082015250565b600061167e6020836112d5565b915061168982611648565b602082019050919050565b600060208201905081810360008301526116ad81611671565b9050919050565b60006116bf82611077565b91506116ca83611077565b9250827fffffffffffffffffffffffffffffffffffffffffffffffffffffffffffffffff038211156116ff576116fe6111ec565b5b828201905092915050565b7f4e6f7420656e6f7567682042595820696e2077616c6c65740000000000000000600082015250565b60006117406018836112d5565b915061174b8261170a565b602082019050919050565b6000602082019050818103600083015261176f81611733565b9050919050565b7f4259583a20696e73756666696369656e7420616c6c6f77616e63650000000000600082015250565b60006117ac601b836112d5565b91506117b782611776565b602082019050919050565b600060208201905081810360008301526117db8161179f565b9050919050565b60006060820190506117f76000830186611068565b6118046020830185611068565b6118116040830184611081565b949350505050565b7f6465706f73697400000000000000000000000000000000000000000000000000600082015250565b600061184f6007836112d5565b915061185a82611819565b602082019050919050565b600060608201905061187a6000830185611068565b818103602083015261188b81611842565b905061189a6040830184611081565b9392505050565b7f52657761726473206861766520616c726561647920656e646564000000000000600082015250565b60006118d7601a836112d5565b91506118e2826118a1565b602082019050919050565b60006020820190508181036000830152611906816118ca565b905091905056fea26469706673582212201ffbdfe2b550b512481dca6b4484e8b67b3c94fd21b8f85fa0b4a3f44dae05d064736f6c634300080e0033",
  "immutableReferences": {},
  "source": "// SPDX-License-Identifier: MIT\npragma solidity 0.8.14;\n\nimport \"@openzeppelin/contracts/access/Ownable.sol\";\nimport \"@openzeppelin/contracts/token/ERC20/IERC20.sol\";\nimport \"./interfaces/IERC20MintableAndBurnable.sol\";\n\ncontract BYXStakingManager is Ownable {\n\n    IERC20 BYX;\n    IERC20MintableAndBurnable sBYX;\n\n    /// BYX token fund for staking rewards\n    uint BYXFund = 50000000 * 10 ** 18; // 50 000 000 tokens\n    /// Amount of BYX token in the staking pool.\n    uint public BYXPool;\n    /// BYX reward per block\n    uint BYXRewardPerBlock = 5 * 10 ** 18; // 5 tokens\n\n    uint lastBlockUpdate;\n    uint lastBlockReward;\n\n    event LogBadCall(address user);\n    event LogDepot(address user, uint quantity);\n    /**\n     * @dev In order to calculate more easily the user staking amount in the front-end, we send only one event for deposit and withdraw.\n     * in case of deposit the amount is in BYX (with decimals).\n     * In case of withdraw, the amount is in bps. (bps is the part of sender's owning in sBYX in basis point (0.0x %))\n     * (amount in BYX is -> staking amount * bps / 10000\n     */\n    event Stake(address user, string operation, uint amount);\n\n    /*************************************************************************************************/\n    /*                                        SPECIAL FUNCTIONS                                      */\n    /*************************************************************************************************/\n\n    constructor(address _byxAddress, address _sbyxAddress) {\n        // inject BYX address in the deploy\n        BYX = IERC20(_byxAddress);\n        sBYX = IERC20MintableAndBurnable(_sbyxAddress);\n        lastBlockUpdate = block.number;\n        lastBlockReward = block.number + (BYXFund / BYXRewardPerBlock);\n    }\n\n    /**\n    * @dev receive function will emit event in case of ether sent to the contract.\n    */\n    receive() external payable {\n        emit LogDepot(msg.sender, msg.value);\n    }\n\n    /**\n     * @dev fallback function will emit event in case of bad call of the contract.\n     */\n    fallback() external {\n        emit LogBadCall(msg.sender);\n    }\n\n    /*************************************************************************************************/\n    /*                                          VIEW FUNCTIONS                                       */\n    /*************************************************************************************************/\n\n    /**\n     * @notice get the APR in bps. You need to multiply it by 100 to get percentage.\n     *\n     * @dev get the APR in bps. You need to multiply it by 100 to get percentage.\n     *\n     * @return uint. The APr in bps.\n     */\n    function getAPR() external view returns(uint) {\n        return BYXRewardPerBlock * 6400 * 365 * 10000 / BYXPool;\n    }\n\n    /*************************************************************************************************/\n    /*                                        EXTERNAL FUNCTIONS                                     */\n    /*************************************************************************************************/\n\n    /**\n     * @notice withdraw function. Can only be used by the owner of the contract.\n     *\n     * @dev withdraw function. OnlyOwner.\n     *\n     * @param _amount the amount to withdraw.\n     */\n    function withdraw(uint _amount) external onlyOwner {\n        msg.sender.call{value: _amount}(\"\");\n    }\n\n    /**\n     * @notice deposit stake function.\n     *\n     * @dev deposit stake function. Call internal function for gas optimisation.\n     *\n     * @param _amount the amount to deposit in staking.\n     */\n    function depositStake(uint _amount) external {\n        _depositStake(_amount);\n    }\n\n    /**\n     * @notice withdraw stake function.\n     *\n     * @dev withdraw stake function. Call internal function for gas optimisation.\n     *\n     * @param _amount the amount to withdraw from staking.\n     */\n    function withdrawStake(uint _amount) external {\n        _withdrawStake(_amount);\n    }\n\n    /**\n    * @notice pool initialization.\n    *\n    * @dev initialize the pool with a custom amount.\n    * In order to avoid empty pool.\n    * Calculation can not be made with 0 value in the pool.\n    *\n    * @param _amount the amount to deposit in the initial pool.\n    */\n    function initializePool(uint _amount) external onlyOwner{\n        _initializePool(_amount);\n    }\n\n    /*************************************************************************************************/\n    /*                                        INTERNAL FUNCTIONS                                     */\n    /*************************************************************************************************/\n\n    /**\n     * @notice pool initialization.\n     *\n     * @dev initialize the pool with a custom amount.\n     *\n     * @param _amount the amount to deposit in the initial pool.\n     */\n    function _initializePool(uint _amount) internal {\n        BYXPool += _amount;\n        BYXFund -= _amount;\n        sBYX.mint(address(this), _amount);\n    }\n\n    /**\n     * @notice deposit stake function.\n     *\n     * @dev deposit stake function.\n     *\n     * @param _amount the amount to deposit in staking.\n     */\n    function _depositStake(uint _amount) internal {\n        require(BYX.balanceOf(msg.sender) >= _amount, \"Not enough BYX in wallet\");\n        require(_amount > 0, \"Amount must be positive\");\n        require(BYX.allowance(msg.sender, address(this)) >= _amount, \"BYX: insufficient allowance\");\n        BYXPool += _amount;\n        BYX.transferFrom(msg.sender, address(this), _amount);\n        uint _sBYXamount = _calculateSBYXAmountFromBYX(_amount);\n        sBYX.mint(msg.sender, _sBYXamount);\n        emit Stake(msg.sender, 'deposit',  _amount);\n    }\n\n    /**\n     * @notice withdraw stake function.\n     *\n     * @dev withdraw stake function.\n     *\n     * @param _sBYXAmount the amount to withdraw from staking.\n     */\n    function _withdrawStake(uint _sBYXAmount) internal {\n        require(sBYX.balanceOf(msg.sender) >= _sBYXAmount, \"Not enough sBYX in wallet\");\n        require(_sBYXAmount > 0, \"Amount must be positive\");\n        require(sBYX.allowance(msg.sender, address(this)) >= _sBYXAmount, \"sBYX: insufficient allowance\");\n        uint _amount = _calculateBYXAmountFromsBYX(_sBYXAmount);\n        uint _bps = _sBYXAmount * 10000 / sBYX.balanceOf(msg.sender);\n        sBYX.burnFrom(msg.sender, _sBYXAmount);\n        BYXPool -= _amount;\n        BYX.transfer(msg.sender, _amount);\n        emit Stake(msg.sender, 'withdraw',  _bps);\n    }\n\n    /**\n     * @notice calculate sBYX amount from BYX amount.\n     *\n     * @dev calculate sBYX amount from BYX amount.\n     *\n     * @param _amount the amount of BYX to convert.\n     *\n     * @return uint. The amount of sBYX in the pool\n     */\n    function _calculateSBYXAmountFromBYX(uint _amount) internal returns (uint) {\n        _updatePool();\n        return _amount * sBYX.totalSupply() / BYXPool;\n    }\n\n    /**\n     * @notice calculate BYX amount from sBYX amount.\n     *\n     * @dev calculate BYX amount from sBYX amount.\n     *\n     * @param _sBYXAmount the amount of sBYX to convert.\n     *\n     * @return uint. The amount of BYX in the pool\n     */\n    function _calculateBYXAmountFromsBYX(uint _sBYXAmount) internal returns (uint) {\n        _updatePool();\n        return _sBYXAmount * BYXPool / sBYX.totalSupply();\n    }\n\n    /**\n     * @notice update pool with new rewards.\n     *\n     * @dev update pool with new rewards.\n     */\n    function _updatePool() internal {\n        require(block.number <= lastBlockReward, \"Rewards have already ended\");\n        if (block.number > lastBlockUpdate) {\n            uint nbBlock = block.number - lastBlockUpdate;\n            BYXPool += nbBlock * BYXRewardPerBlock;\n            BYXFund -= nbBlock * BYXRewardPerBlock;\n            lastBlockUpdate = block.number;\n       }\n    }\n}\n",
  "sourcePath": "/home/ben/code/Alyra/Alyra-project4-deFi-dApp/truffle/contracts/BYXStakingManager.sol",
  "compiler": {
    "name": "solc",
    "version": "0.8.14+commit.80d49f37.Emscripten.clang"
  },
  "schemaVersion": "3.4.8",
  "updatedAt": "2022-08-05T18:51:51.559Z",
  "networkType": "ethereum",
  "devdoc": {
    "events": {
      "Stake(address,string,uint256)": {
        "details": "In order to calculate more easily the user staking amount in the front-end, we send only one event for deposit and withdraw. in case of deposit the amount is in BYX (with decimals). In case of withdraw, the amount is in bps. (bps is the part of sender's owning in sBYX in basis point (0.0x %)) (amount in BYX is -> staking amount * bps / 10000"
      }
    },
    "kind": "dev",
    "methods": {
      "depositStake(uint256)": {
        "details": "deposit stake function. Call internal function for gas optimisation.",
        "params": {
          "_amount": "the amount to deposit in staking."
        }
      },
      "getAPR()": {
        "details": "get the APR in bps. You need to multiply it by 100 to get percentage.",
        "returns": {
          "_0": "uint. The APr in bps."
        }
      },
      "initializePool(uint256)": {
        "details": "initialize the pool with a custom amount. In order to avoid empty pool. Calculation can not be made with 0 value in the pool.",
        "params": {
          "_amount": "the amount to deposit in the initial pool."
        }
      },
      "owner()": {
        "details": "Returns the address of the current owner."
      },
      "renounceOwnership()": {
        "details": "Leaves the contract without owner. It will not be possible to call `onlyOwner` functions anymore. Can only be called by the current owner. NOTE: Renouncing ownership will leave the contract without an owner, thereby removing any functionality that is only available to the owner."
      },
      "transferOwnership(address)": {
        "details": "Transfers ownership of the contract to a new account (`newOwner`). Can only be called by the current owner."
      },
      "withdraw(uint256)": {
        "details": "withdraw function. OnlyOwner.",
        "params": {
          "_amount": "the amount to withdraw."
        }
      },
      "withdrawStake(uint256)": {
        "details": "withdraw stake function. Call internal function for gas optimisation.",
        "params": {
          "_amount": "the amount to withdraw from staking."
        }
      }
    },
    "version": 1
  },
  "userdoc": {
    "kind": "user",
    "methods": {
      "BYXPool()": {
        "notice": "Amount of BYX token in the staking pool."
      },
      "depositStake(uint256)": {
        "notice": "deposit stake function."
      },
      "getAPR()": {
        "notice": "get the APR in bps. You need to multiply it by 100 to get percentage."
      },
      "initializePool(uint256)": {
        "notice": "pool initialization."
      },
      "withdraw(uint256)": {
        "notice": "withdraw function. Can only be used by the owner of the contract."
      },
      "withdrawStake(uint256)": {
        "notice": "withdraw stake function."
      }
    },
    "version": 1
  }
}