{
  "contractName": "Chainlink",
  "abi": [
    {
      "inputs": [],
      "stateMutability": "nonpayable",
      "type": "constructor"
    },
    {
      "inputs": [
        {
          "internalType": "address",
          "name": "_pair",
          "type": "address"
        }
      ],
      "name": "setAddr",
      "outputs": [],
      "stateMutability": "nonpayable",
      "type": "function"
    },
    {
      "inputs": [],
      "name": "getLatestPrice",
      "outputs": [
        {
          "internalType": "int256",
          "name": "",
          "type": "int256"
        }
      ],
      "stateMutability": "view",
      "type": "function"
    }
  ],
  "bytecode": "0x608060405234801561001057600080fd5b50739326bfa02add2366b30bacb125260af6410313316000806101000a81548173ffffffffffffffffffffffffffffffffffffffff021916908373ffffffffffffffffffffffffffffffffffffffff160217905550610370806100746000396000f3fe608060405234801561001057600080fd5b50600436106100365760003560e01c80638e15f4731461003b578063d1d80fdf14610059575b600080fd5b610043610075565b6040516100509190610170565b60405180910390f35b610073600480360381019061006e91906101ee565b610114565b005b60008060008054906101000a900473ffffffffffffffffffffffffffffffffffffffff1673ffffffffffffffffffffffffffffffffffffffff1663feaf968c6040518163ffffffff1660e01b815260040160a060405180830381865afa1580156100e3573d6000803e3d6000fd5b505050506040513d601f19601f8201168201806040525081019061010791906102bf565b5050509150508091505090565b806000806101000a81548173ffffffffffffffffffffffffffffffffffffffff021916908373ffffffffffffffffffffffffffffffffffffffff16021790555050565b6000819050919050565b61016a81610157565b82525050565b60006020820190506101856000830184610161565b92915050565b600080fd5b600073ffffffffffffffffffffffffffffffffffffffff82169050919050565b60006101bb82610190565b9050919050565b6101cb816101b0565b81146101d657600080fd5b50565b6000813590506101e8816101c2565b92915050565b6000602082840312156102045761020361018b565b5b6000610212848285016101d9565b91505092915050565b600069ffffffffffffffffffff82169050919050565b61023a8161021b565b811461024557600080fd5b50565b60008151905061025781610231565b92915050565b61026681610157565b811461027157600080fd5b50565b6000815190506102838161025d565b92915050565b6000819050919050565b61029c81610289565b81146102a757600080fd5b50565b6000815190506102b981610293565b92915050565b600080600080600060a086880312156102db576102da61018b565b5b60006102e988828901610248565b95505060206102fa88828901610274565b945050604061030b888289016102aa565b935050606061031c888289016102aa565b925050608061032d88828901610248565b915050929550929590935056fea26469706673582212202bab1c0af70721557fe1fd7df6d25987c8cdf73dd24e5cb70b0a83f5262bedb864736f6c634300080e0033",
  "immutableReferences": {},
  "source": "// SPDX-License-Identifier: MIT\n\npragma solidity 0.8.14;\nimport \"../node_modules/@chainlink/contracts/src/v0.8/interfaces/AggregatorV3Interface.sol\";\n\ncontract Chainlink {\n    AggregatorV3Interface internal priceFeed;\n\n    /** * Network: Kovan\n     * Aggregator: ETH/USD\n     * Address: 0x9326BFA02ADD2366b30bacB125260Af641031331 */\n    constructor() {\n        priceFeed = AggregatorV3Interface(\n            0x9326BFA02ADD2366b30bacB125260Af641031331\n        );\n    }\n\n    /**to set the adress of another pair on chainlink data feed */\n\n    function setAddr(address _pair) public {\n        priceFeed = AggregatorV3Interface(_pair);\n    }\n\n    /** * Returns the latest price */\n    function getLatestPrice() public view returns (int256) {\n        (\n            ,\n            /*uint80 roundID*/\n            int256 price, /*uint startedAt*/ /*uint timeStamp*/ /*uint80\nansweredInRound*/\n            ,\n            ,\n\n        ) = priceFeed.latestRoundData();\n        return price;\n    }\n}\n",
  "sourcePath": "/home/xav888/Alyra/Alyra-project4-deFi-dApp/truffle/contracts/Chainlink.sol",
  "compiler": {
    "name": "solc",
    "version": "0.8.14+commit.80d49f37.Emscripten.clang"
  },
  "schemaVersion": "3.4.4",
  "updatedAt": "2022-07-25T16:16:53.771Z",
  "devdoc": {
    "kind": "dev",
    "methods": {},
    "version": 1
  },
  "userdoc": {
    "kind": "user",
    "methods": {
      "constructor": {
        "notice": "* Network: Kovan Aggregator: ETH/USD Address: 0x9326BFA02ADD2366b30bacB125260Af641031331 "
      },
      "getLatestPrice()": {
        "notice": "* Returns the latest price "
      },
      "setAddr(address)": {
        "notice": "to set the adress of another pair on chainlink data feed "
      }
    },
    "version": 1
  }
}