{
  "contractName": "Chainlink3",
  "abi": [
    {
      "inputs": [],
      "stateMutability": "nonpayable",
      "type": "constructor"
    },
    {
      "anonymous": false,
      "inputs": [
        {
          "indexed": true,
          "internalType": "bytes32",
          "name": "id",
          "type": "bytes32"
        }
      ],
      "name": "ChainlinkCancelled",
      "type": "event"
    },
    {
      "anonymous": false,
      "inputs": [
        {
          "indexed": true,
          "internalType": "bytes32",
          "name": "id",
          "type": "bytes32"
        }
      ],
      "name": "ChainlinkFulfilled",
      "type": "event"
    },
    {
      "anonymous": false,
      "inputs": [
        {
          "indexed": true,
          "internalType": "bytes32",
          "name": "id",
          "type": "bytes32"
        }
      ],
      "name": "ChainlinkRequested",
      "type": "event"
    },
    {
      "inputs": [],
      "name": "volume",
      "outputs": [
        {
          "internalType": "uint256",
          "name": "",
          "type": "uint256"
        }
      ],
      "stateMutability": "view",
      "type": "function",
      "constant": true
    },
    {
      "inputs": [],
      "name": "requestVolumeData",
      "outputs": [
        {
          "internalType": "bytes32",
          "name": "requestId",
          "type": "bytes32"
        }
      ],
      "stateMutability": "nonpayable",
      "type": "function"
    },
    {
      "inputs": [
        {
          "internalType": "bytes32",
          "name": "_requestId",
          "type": "bytes32"
        },
        {
          "internalType": "uint256",
          "name": "_volume",
          "type": "uint256"
        }
      ],
      "name": "fulfill",
      "outputs": [],
      "stateMutability": "nonpayable",
      "type": "function"
    }
  ],
  "bytecode": "0x608060405260016004553480156200001657600080fd5b5062000027620000b860201b60201c565b73c57b33452b4f7bb189bb5afae9cc4aba1f7a4fd8600760006101000a81548173ffffffffffffffffffffffffffffffffffffffff021916908373ffffffffffffffffffffffffffffffffffffffff1602179055507f643532373064316333313139343164306230386265616432316665613737343760088190555067016345785d8a000060098190555062000230565b6200014e73c89bd4e1632d3a43cb03aaad5262cbe4038bc57173ffffffffffffffffffffffffffffffffffffffff166338cc48316040518163ffffffff1660e01b8152600401602060405180830381865afa1580156200011c573d6000803e3d6000fd5b505050506040513d601f19601f82011682018060405250810190620001429190620001fe565b6200015060201b60201c565b565b80600260006101000a81548173ffffffffffffffffffffffffffffffffffffffff021916908373ffffffffffffffffffffffffffffffffffffffff16021790555050565b600080fd5b600073ffffffffffffffffffffffffffffffffffffffff82169050919050565b6000620001c68262000199565b9050919050565b620001d881620001b9565b8114620001e457600080fd5b50565b600081519050620001f881620001cd565b92915050565b60006020828403121562000217576200021662000194565b5b60006200022784828501620001e7565b91505092915050565b6116bc80620002406000396000f3fe608060405234801561001057600080fd5b50600436106100415760003560e01c80634357855e146100465780636021abac14610062578063c618a1e414610080575b600080fd5b610060600480360381019061005b9190610e0c565b61009e565b005b61006a6101af565b6040516100779190610e5b565b60405180910390f35b610088610346565b6040516100959190610e85565b60405180910390f35b816005600082815260200190815260200160002060009054906101000a900473ffffffffffffffffffffffffffffffffffffffff1673ffffffffffffffffffffffffffffffffffffffff163373ffffffffffffffffffffffffffffffffffffffff1614610140576040517f08c379a000000000000000000000000000000000000000000000000000000000815260040161013790610f23565b60405180910390fd5b6005600082815260200190815260200160002060006101000a81549073ffffffffffffffffffffffffffffffffffffffff0219169055807f7cc135e0cebb02c3480ae5d74d377283180a2601f8f644edf7987b009316c63a60405160405180910390a281600681905550505050565b6000806101c660085430634357855e60e01b61034c565b90506102476040518060400160405280600381526020017f67657400000000000000000000000000000000000000000000000000000000008152506040518060400160405280602081526020017f68747470733a2f2f6170692e61676966792e696f2f3f6e616d653d637972696c8152508361037d9092919063ffffffff16565b6102c66040518060400160405280600481526020017f70617468000000000000000000000000000000000000000000000000000000008152506040518060400160405280600381526020017f61676500000000000000000000000000000000000000000000000000000000008152508361037d9092919063ffffffff16565b6103116040518060400160405280600581526020017f74696d65730000000000000000000000000000000000000000000000000000008152506001836103b09092919063ffffffff16565b610340600760009054906101000a900473ffffffffffffffffffffffffffffffffffffffff16826009546103e3565b91505090565b60065481565b610354610d14565b61035c610d14565b610373858585846104af909392919063ffffffff16565b9150509392505050565b61039482846080015161055f90919063ffffffff16565b6103ab81846080015161055f90919063ffffffff16565b505050565b6103c782846080015161055f90919063ffffffff16565b6103de81846080015161058490919063ffffffff16565b505050565b60008060045490506001816103f89190610f72565b6004819055506000634042994660e01b60008087600001513089604001518760018c60800151600001516040516024016104399897969594939291906110dd565b604051602081830303815290604052907bffffffffffffffffffffffffffffffffffffffffffffffffffffffff19166020820180517bffffffffffffffffffffffffffffffffffffffffffffffffffffffff838183161783525050505090506104a486838684610631565b925050509392505050565b6104b7610d14565b6104c785608001516101006107c6565b508385600001818152505082856020019073ffffffffffffffffffffffffffffffffffffffff16908173ffffffffffffffffffffffffffffffffffffffff16815250508185604001907bffffffffffffffffffffffffffffffffffffffffffffffffffffffff191690817bffffffffffffffffffffffffffffffffffffffffffffffffffffffff191681525050849050949350505050565b61056c8260038351610830565b61057f81836109b590919063ffffffff16565b505050565b7fffffffffffffffffffffffffffffffffffffffffffffffff00000000000000008112156105bb576105b682826109d7565b61062d565b67ffffffffffffffff8113156105da576105d58282610a4e565b61062c565b600081126105f3576105ee82600083610830565b61062b565b61062a826001837fffffffffffffffffffffffffffffffffffffffffffffffffffffffffffffffff610625919061116c565b610830565b5b5b5b5050565b600030846040516020016106469291906112b9565b604051602081830303815290604052805190602001209050846005600083815260200190815260200160002060006101000a81548173ffffffffffffffffffffffffffffffffffffffff021916908373ffffffffffffffffffffffffffffffffffffffff160217905550807fb5e6e01e79f91267dc17b4e6314d5d4d03593d2ceee0fbb452b750bd70ea5af960405160405180910390a2600260009054906101000a900473ffffffffffffffffffffffffffffffffffffffff1673ffffffffffffffffffffffffffffffffffffffff16634000aea08685856040518463ffffffff1660e01b815260040161073c939291906112e5565b6020604051808303816000875af115801561075b573d6000803e3d6000fd5b505050506040513d601f19601f8201168201806040525081019061077f919061135b565b6107be576040517f08c379a00000000000000000000000000000000000000000000000000000000081526004016107b5906113fa565b60405180910390fd5b949350505050565b6107ce610d81565b60006020836107dd9190611449565b14610809576020826107ef9190611449565b60206107fb919061147a565b826108069190610f72565b91505b81836020018181525050604051808452600081528281016020016040525082905092915050565b60178167ffffffffffffffff1611610867576108618160058460ff16901b60ff161784610a9a90919063ffffffff16565b506109b0565b60ff8167ffffffffffffffff16116108bd57610896601860058460ff16901b1784610a9a90919063ffffffff16565b506108b78167ffffffffffffffff16600185610aba9092919063ffffffff16565b506109af565b61ffff8167ffffffffffffffff1611610914576108ed601960058460ff16901b1784610a9a90919063ffffffff16565b5061090e8167ffffffffffffffff16600285610aba9092919063ffffffff16565b506109ae565b63ffffffff8167ffffffffffffffff161161096d57610946601a60058460ff16901b1784610a9a90919063ffffffff16565b506109678167ffffffffffffffff16600485610aba9092919063ffffffff16565b506109ad565b61098a601b60058460ff16901b1784610a9a90919063ffffffff16565b506109ab8167ffffffffffffffff16600885610aba9092919063ffffffff16565b505b5b5b5b505050565b6109bd610d81565b6109cf83846000015151848551610adc565b905092915050565b6109f560036005600660ff16901b1783610a9a90919063ffffffff16565b50610a4a82827fffffffffffffffffffffffffffffffffffffffffffffffffffffffffffffffff610a26919061116c565b604051602001610a369190610e85565b604051602081830303815290604052610bcb565b5050565b610a6c60026005600660ff16901b1783610a9a90919063ffffffff16565b50610a968282604051602001610a829190610e85565b604051602081830303815290604052610bcb565b5050565b610aa2610d81565b610ab28384600001515184610bf0565b905092915050565b610ac2610d81565b610ad3848560000151518585610c46565b90509392505050565b610ae4610d81565b8251821115610af257600080fd5b84602001518285610b039190610f72565b1115610b3857610b37856002610b2888602001518887610b239190610f72565b610cd4565b610b3291906114ae565b610cf0565b5b600080865180518760208301019350808887011115610b575787860182525b60208701925050505b60208410610b9e5780518252602082610b799190610f72565b9150602081610b889190610f72565b9050602084610b97919061147a565b9350610b60565b60006001856020036101000a03905080198251168184511681811785525050508692505050949350505050565b610bd88260028351610830565b610beb81836109b590919063ffffffff16565b505050565b610bf8610d81565b83602001518310610c1e57610c1d8460028660200151610c1891906114ae565b610cf0565b5b83518051602085830101848153818603610c39576001820183525b5050508390509392505050565b610c4e610d81565b84602001518483610c5f9190610f72565b1115610c8757610c868560028685610c779190610f72565b610c8191906114ae565b610cf0565b5b6000600183610100610c99919061163b565b610ca3919061147a565b90508551838682010185831982511617815281518588011115610cc65784870182525b505085915050949350505050565b600081831115610ce657829050610cea565b8190505b92915050565b600082600001519050610d0383836107c6565b50610d0e83826109b5565b50505050565b6040518060a0016040528060008019168152602001600073ffffffffffffffffffffffffffffffffffffffff16815260200160007bffffffffffffffffffffffffffffffffffffffffffffffffffffffff1916815260200160008152602001610d7b610d81565b81525090565b604051806040016040528060608152602001600081525090565b600080fd5b6000819050919050565b610db381610da0565b8114610dbe57600080fd5b50565b600081359050610dd081610daa565b92915050565b6000819050919050565b610de981610dd6565b8114610df457600080fd5b50565b600081359050610e0681610de0565b92915050565b60008060408385031215610e2357610e22610d9b565b5b6000610e3185828601610dc1565b9250506020610e4285828601610df7565b9150509250929050565b610e5581610da0565b82525050565b6000602082019050610e706000830184610e4c565b92915050565b610e7f81610dd6565b82525050565b6000602082019050610e9a6000830184610e76565b92915050565b600082825260208201905092915050565b7f536f75726365206d75737420626520746865206f7261636c65206f662074686560008201527f2072657175657374000000000000000000000000000000000000000000000000602082015250565b6000610f0d602883610ea0565b9150610f1882610eb1565b604082019050919050565b60006020820190508181036000830152610f3c81610f00565b9050919050565b7f4e487b7100000000000000000000000000000000000000000000000000000000600052601160045260246000fd5b6000610f7d82610dd6565b9150610f8883610dd6565b9250827fffffffffffffffffffffffffffffffffffffffffffffffffffffffffffffffff03821115610fbd57610fbc610f43565b5b828201905092915050565b600073ffffffffffffffffffffffffffffffffffffffff82169050919050565b6000610ff382610fc8565b9050919050565b61100381610fe8565b82525050565b60007fffffffff0000000000000000000000000000000000000000000000000000000082169050919050565b61103e81611009565b82525050565b600081519050919050565b600082825260208201905092915050565b60005b8381101561107e578082015181840152602081019050611063565b8381111561108d576000848401525b50505050565b6000601f19601f8301169050919050565b60006110af82611044565b6110b9818561104f565b93506110c9818560208601611060565b6110d281611093565b840191505092915050565b6000610100820190506110f3600083018b610ffa565b611100602083018a610e76565b61110d6040830189610e4c565b61111a6060830188610ffa565b6111276080830187611035565b61113460a0830186610e76565b61114160c0830185610e76565b81810360e083015261115381846110a4565b90509998505050505050505050565b6000819050919050565b600061117782611162565b915061118283611162565b9250827f8000000000000000000000000000000000000000000000000000000000000000018212600084121516156111bd576111bc610f43565b5b827f7fffffffffffffffffffffffffffffffffffffffffffffffffffffffffffffff0182136000841216156111f5576111f4610f43565b5b828203905092915050565b6000819050919050565b600061122561122061121b84610fc8565b611200565b610fc8565b9050919050565b60006112378261120a565b9050919050565b60006112498261122c565b9050919050565b60008160601b9050919050565b600061126882611250565b9050919050565b600061127a8261125d565b9050919050565b61129261128d8261123e565b61126f565b82525050565b6000819050919050565b6112b36112ae82610dd6565b611298565b82525050565b60006112c58285611281565b6014820191506112d582846112a2565b6020820191508190509392505050565b60006060820190506112fa6000830186610ffa565b6113076020830185610e76565b818103604083015261131981846110a4565b9050949350505050565b60008115159050919050565b61133881611323565b811461134357600080fd5b50565b6000815190506113558161132f565b92915050565b60006020828403121561137157611370610d9b565b5b600061137f84828501611346565b91505092915050565b7f756e61626c6520746f207472616e73666572416e6443616c6c20746f206f726160008201527f636c650000000000000000000000000000000000000000000000000000000000602082015250565b60006113e4602383610ea0565b91506113ef82611388565b604082019050919050565b60006020820190508181036000830152611413816113d7565b9050919050565b7f4e487b7100000000000000000000000000000000000000000000000000000000600052601260045260246000fd5b600061145482610dd6565b915061145f83610dd6565b92508261146f5761146e61141a565b5b828206905092915050565b600061148582610dd6565b915061149083610dd6565b9250828210156114a3576114a2610f43565b5b828203905092915050565b60006114b982610dd6565b91506114c483610dd6565b9250817fffffffffffffffffffffffffffffffffffffffffffffffffffffffffffffffff04831182151516156114fd576114fc610f43565b5b828202905092915050565b60008160011c9050919050565b6000808291508390505b600185111561155f5780860481111561153b5761153a610f43565b5b600185161561154a5780820291505b808102905061155885611508565b945061151f565b94509492505050565b6000826115785760019050611634565b816115865760009050611634565b816001811461159c57600281146115a6576115d5565b6001915050611634565b60ff8411156115b8576115b7610f43565b5b8360020a9150848211156115cf576115ce610f43565b5b50611634565b5060208310610133831016604e8410600b841016171561160a5782820a90508381111561160557611604610f43565b5b611634565b6116178484846001611515565b9250905081840481111561162e5761162d610f43565b5b81810290505b9392505050565b600061164682610dd6565b915061165183610dd6565b925061167e7fffffffffffffffffffffffffffffffffffffffffffffffffffffffffffffffff8484611568565b90509291505056fea264697066735822122014703d2db6ad09cdfeeb909c00a60b0899a8688ddd68c35ef239f5bd772be36464736f6c634300080e0033",
  "immutableReferences": {},
  "source": "// SPDX-License-Identifier: MIT\npragma solidity 0.8.14;\n\nimport \"../node_modules/@chainlink/contracts/src/v0.8/ChainlinkClient.sol\";\n\ncontract Chainlink3 is ChainlinkClient {\n    using Chainlink for Chainlink.Request;\n\n    uint256 public volume;\n\n    address private oracle;\n    bytes32 private jobId;\n    uint256 private fee;\n\n    /**\n     * Network: Kovan\n     * Oracle: 0xc57B33452b4F7BB189bB5AfaE9cc4aBa1f7a4FD8 (Chainlink Devrel\n     * Node)\n     * Job ID: d5270d1c311941d0b08bead21fea7747\n     * Fee: 0.1 LINK\n     */\n    constructor() {\n        setPublicChainlinkToken();\n        oracle = 0xc57B33452b4F7BB189bB5AfaE9cc4aBa1f7a4FD8;\n        jobId = \"d5270d1c311941d0b08bead21fea7747\";\n        fee = 1 * 10**17; // (Varies by network and job)\n    }\n\n    /**\n     * Create a Chainlink request to retrieve API response, find the target\n     * data, then multiply by 1000000000000000000 (to remove decimal places from data).\n     */\n    function requestVolumeData() public returns (bytes32 requestId) {\n        Chainlink.Request memory request = buildChainlinkRequest(\n            jobId,\n            address(this),\n            this.fulfill.selector\n        );\n\n        // Set the URL to perform the GET request on\n        request.add(\"get\", \"https://api.agify.io/?name=cyril\");\n\n        // Set the path to find the desired data in the API response, where the response format is:\n        // {\"RAW\":\n        //   {\"ETH\":\n        //    {\"USD\":\n        //     {\n        //      \"VOLUME24HOUR\": xxx.xxx,\n        //     }\n        //    }\n        //   }\n        //  }\n        // request.add(\"path\", \"RAW.ETH.USD.VOLUME24HOUR\"); // Chainlink nodes prior to 1.0.0 support this format\n        request.add(\"path\", \"age\"); // Chainlink nodes 1.0.0 and later support this format\n\n        // Multiply the result by 1000000000000000000 to remove decimals if necessary\n        request.addInt(\"times\", 1);\n\n        // Sends the request\n        return sendChainlinkRequestTo(oracle, request, fee);\n    }\n\n    /**\n     * Receive the response in the form of uint256\n     */\n    function fulfill(bytes32 _requestId, uint256 _volume)\n        public\n        recordChainlinkFulfillment(_requestId)\n    {\n        volume = _volume;\n    }\n\n    // function withdrawLink() external {} - Implement a withdraw function to avoid locking your LINK in the contract\n}\n",
  "sourcePath": "/home/xav888/Alyra/Alyra-project4-deFi-dApp/truffle/contracts/Chainlink3.sol",
  "compiler": {
    "name": "solc",
    "version": "0.8.14+commit.80d49f37.Emscripten.clang"
  },
  "schemaVersion": "3.4.4",
  "updatedAt": "2022-07-24T18:02:27.781Z",
  "networkType": "ethereum",
  "devdoc": {
    "kind": "dev",
    "methods": {},
    "version": 1
  },
  "userdoc": {
    "kind": "user",
    "methods": {
      "constructor": {
        "notice": "Network: Kovan Oracle: 0xc57B33452b4F7BB189bB5AfaE9cc4aBa1f7a4FD8 (Chainlink Devrel Node) Job ID: d5270d1c311941d0b08bead21fea7747 Fee: 0.1 LINK"
      },
      "fulfill(bytes32,uint256)": {
        "notice": "Receive the response in the form of uint256"
      },
      "requestVolumeData()": {
        "notice": "Create a Chainlink request to retrieve API response, find the target data, then multiply by 1000000000000000000 (to remove decimal places from data)."
      }
    },
    "version": 1
  }
}