{
  "contractName": "ETHStakingManager",
  "abi": [
    {
      "inputs": [
        {
          "internalType": "address",
          "name": "_byxAddress",
          "type": "address"
        },
        {
          "internalType": "address",
          "name": "_PPAddress",
          "type": "address"
        }
      ],
      "stateMutability": "nonpayable",
      "type": "constructor"
    },
    {
      "anonymous": false,
      "inputs": [
        {
          "indexed": false,
          "internalType": "address",
          "name": "user",
          "type": "address"
        }
      ],
      "name": "LogBadCall",
      "type": "event"
    },
    {
      "anonymous": false,
      "inputs": [
        {
          "indexed": false,
          "internalType": "address",
          "name": "user",
          "type": "address"
        },
        {
          "indexed": false,
          "internalType": "uint256",
          "name": "quantity",
          "type": "uint256"
        }
      ],
      "name": "LogDepot",
      "type": "event"
    },
    {
      "anonymous": false,
      "inputs": [
        {
          "indexed": true,
          "internalType": "address",
          "name": "previousOwner",
          "type": "address"
        },
        {
          "indexed": true,
          "internalType": "address",
          "name": "newOwner",
          "type": "address"
        }
      ],
      "name": "OwnershipTransferred",
      "type": "event"
    },
    {
      "anonymous": false,
      "inputs": [],
      "name": "PoolUpdate",
      "type": "event"
    },
    {
      "anonymous": false,
      "inputs": [
        {
          "indexed": false,
          "internalType": "address",
          "name": "user",
          "type": "address"
        },
        {
          "indexed": false,
          "internalType": "uint256",
          "name": "amount",
          "type": "uint256"
        }
      ],
      "name": "RewardsClaimed",
      "type": "event"
    },
    {
      "anonymous": false,
      "inputs": [
        {
          "indexed": false,
          "internalType": "address",
          "name": "user",
          "type": "address"
        },
        {
          "indexed": false,
          "internalType": "uint256",
          "name": "amount",
          "type": "uint256"
        }
      ],
      "name": "Stake",
      "type": "event"
    },
    {
      "anonymous": false,
      "inputs": [
        {
          "indexed": false,
          "internalType": "address",
          "name": "user",
          "type": "address"
        },
        {
          "indexed": false,
          "internalType": "uint256",
          "name": "amount",
          "type": "uint256"
        }
      ],
      "name": "WithdrawStake",
      "type": "event"
    },
    {
      "stateMutability": "nonpayable",
      "type": "fallback"
    },
    {
      "inputs": [],
      "name": "APR",
      "outputs": [
        {
          "internalType": "uint256",
          "name": "",
          "type": "uint256"
        }
      ],
      "stateMutability": "view",
      "type": "function",
      "constant": true
    },
    {
      "inputs": [],
      "name": "owner",
      "outputs": [
        {
          "internalType": "address",
          "name": "",
          "type": "address"
        }
      ],
      "stateMutability": "view",
      "type": "function",
      "constant": true
    },
    {
      "inputs": [],
      "name": "renounceOwnership",
      "outputs": [],
      "stateMutability": "nonpayable",
      "type": "function"
    },
    {
      "inputs": [
        {
          "internalType": "address",
          "name": "newOwner",
          "type": "address"
        }
      ],
      "name": "transferOwnership",
      "outputs": [],
      "stateMutability": "nonpayable",
      "type": "function"
    },
    {
      "stateMutability": "payable",
      "type": "receive",
      "payable": true
    },
    {
      "inputs": [
        {
          "internalType": "address",
          "name": "_user",
          "type": "address"
        }
      ],
      "name": "getUserInfo",
      "outputs": [
        {
          "components": [
            {
              "internalType": "uint256",
              "name": "pendingRewards",
              "type": "uint256"
            },
            {
              "internalType": "uint256",
              "name": "ethAmountStaked",
              "type": "uint256"
            }
          ],
          "internalType": "struct ETHStakingManager.User",
          "name": "",
          "type": "tuple"
        }
      ],
      "stateMutability": "view",
      "type": "function",
      "constant": true
    },
    {
      "inputs": [
        {
          "internalType": "uint256",
          "name": "_amount",
          "type": "uint256"
        }
      ],
      "name": "withdraw",
      "outputs": [],
      "stateMutability": "nonpayable",
      "type": "function"
    },
    {
      "inputs": [],
      "name": "depositStake",
      "outputs": [],
      "stateMutability": "payable",
      "type": "function",
      "payable": true
    },
    {
      "inputs": [
        {
          "internalType": "uint256",
          "name": "_amount",
          "type": "uint256"
        }
      ],
      "name": "withdrawStake",
      "outputs": [],
      "stateMutability": "nonpayable",
      "type": "function"
    },
    {
      "inputs": [],
      "name": "claimRewards",
      "outputs": [],
      "stateMutability": "nonpayable",
      "type": "function"
    },
    {
      "inputs": [],
      "name": "getTotalStaked",
      "outputs": [
        {
          "internalType": "uint256",
          "name": "",
          "type": "uint256"
        }
      ],
      "stateMutability": "view",
      "type": "function",
      "constant": true
    }
  ],
  "bytecode": "0x60806040526a108b2a2c280290940000006004556103206005553480156200002657600080fd5b50604051620018653803806200186583398181016040528101906200004c919062000233565b6200006c62000060620000fd60201b60201c565b6200010560201b60201c565b81600160006101000a81548173ffffffffffffffffffffffffffffffffffffffff021916908373ffffffffffffffffffffffffffffffffffffffff16021790555080600260006101000a81548173ffffffffffffffffffffffffffffffffffffffff021916908373ffffffffffffffffffffffffffffffffffffffff1602179055504360038190555050506200027a565b600033905090565b60008060009054906101000a900473ffffffffffffffffffffffffffffffffffffffff169050816000806101000a81548173ffffffffffffffffffffffffffffffffffffffff021916908373ffffffffffffffffffffffffffffffffffffffff1602179055508173ffffffffffffffffffffffffffffffffffffffff168173ffffffffffffffffffffffffffffffffffffffff167f8be0079c531659141344cd1fd0a4f28419497f9722a3daafe3b4186f6b6457e060405160405180910390a35050565b600080fd5b600073ffffffffffffffffffffffffffffffffffffffff82169050919050565b6000620001fb82620001ce565b9050919050565b6200020d81620001ee565b81146200021957600080fd5b50565b6000815190506200022d8162000202565b92915050565b600080604083850312156200024d576200024c620001c9565b5b60006200025d858286016200021c565b925050602062000270858286016200021c565b9150509250929050565b6115db806200028a6000396000f3fe6080604052600436106100955760003560e01c80636386c1c7116100595780636386c1c7146101b9578063715018a6146101f65780638da5cb5b1461020d578063bd30558e14610238578063f2fde38b14610263576100d5565b80630917e7761461011b5780630d2d76a21461014657806325d5971f146101505780632e1a7d4d14610179578063372500ab146101a2576100d5565b366100d5577f1d76c7e5736b9b335988489baea5b96ec803f8f1194842fe5ce3a6ec85e79b5633346040516100cb929190610eeb565b60405180910390a1005b3480156100e157600080fd5b507fcc97ff3d49208ba08dc7ada5cf9e88e59e047be7d363118838f7af1233c49c43336040516101119190610f14565b60405180910390a1005b34801561012757600080fd5b5061013061028c565b60405161013d9190610f2f565b60405180910390f35b61014e61034c565b005b34801561015c57600080fd5b5061017760048036038101906101729190610f7b565b6104e1565b005b34801561018557600080fd5b506101a0600480360381019061019b9190610f7b565b61066c565b005b3480156101ae57600080fd5b506101b76106e0565b005b3480156101c557600080fd5b506101e060048036038101906101db9190610fd4565b6108d9565b6040516101ed919061103f565b60405180910390f35b34801561020257600080fd5b5061020b610946565b005b34801561021957600080fd5b5061022261095a565b60405161022f9190610f14565b60405180910390f35b34801561024457600080fd5b5061024d610983565b60405161025a9190610f2f565b60405180910390f35b34801561026f57600080fd5b5061028a60048036038101906102859190610fd4565b610989565b005b6000806000905060005b6009805490508110156103445760086000600983815481106102bb576102ba61105a565b5b9060005260206000200160009054906101000a900473ffffffffffffffffffffffffffffffffffffffff1673ffffffffffffffffffffffffffffffffffffffff1673ffffffffffffffffffffffffffffffffffffffff168152602001908152602001600020600101548261032f91906110b8565b9150808061033c9061110e565b915050610296565b508091505090565b67016345785d8a0000341015610397576040517f08c379a000000000000000000000000000000000000000000000000000000000815260040161038e906111b3565b60405180910390fd5b61039f610a0c565b6000600860003373ffffffffffffffffffffffffffffffffffffffff1673ffffffffffffffffffffffffffffffffffffffff168152602001908152602001600020600101540361044d576009339080600181540180825580915050600190039060005260206000200160009091909190916101000a81548173ffffffffffffffffffffffffffffffffffffffff021916908373ffffffffffffffffffffffffffffffffffffffff1602179055505b34600860003373ffffffffffffffffffffffffffffffffffffffff1673ffffffffffffffffffffffffffffffffffffffff168152602001908152602001600020600101600082825461049f91906110b8565b925050819055507febedb8b3c678666e7f36970bc8f57abf6d8fa2e828c0da91ea5b75bf68ed101a33346040516104d7929190610eeb565b60405180910390a1565b600860003373ffffffffffffffffffffffffffffffffffffffff1673ffffffffffffffffffffffffffffffffffffffff16815260200190815260200160002060010154811115610566576040517f08c379a000000000000000000000000000000000000000000000000000000000815260040161055d9061121f565b60405180910390fd5b61056e610a0c565b80600860003373ffffffffffffffffffffffffffffffffffffffff1673ffffffffffffffffffffffffffffffffffffffff16815260200190815260200160002060010160008282546105c0919061123f565b925050819055503373ffffffffffffffffffffffffffffffffffffffff16816040516105eb906112a4565b60006040518083038185875af1925050503d8060008114610628576040519150601f19603f3d011682016040523d82523d6000602084013e61062d565b606091505b5050507f141ef67c4a6d3ec2adfb2f66d33c2b11de5b4f34344757554d430570b18a92ec3382604051610661929190610eeb565b60405180910390a150565b610674610bfd565b3373ffffffffffffffffffffffffffffffffffffffff1681604051610698906112a4565b60006040518083038185875af1925050503d80600081146106d5576040519150601f19603f3d011682016040523d82523d6000602084013e6106da565b606091505b50505050565b6106e8610a0c565b6000600860003373ffffffffffffffffffffffffffffffffffffffff1673ffffffffffffffffffffffffffffffffffffffff168152602001908152602001600020600001541161076d576040517f08c379a000000000000000000000000000000000000000000000000000000000815260040161076490611305565b60405180910390fd5b6000600860003373ffffffffffffffffffffffffffffffffffffffff1673ffffffffffffffffffffffffffffffffffffffff1681526020019081526020016000206000015490506000600860003373ffffffffffffffffffffffffffffffffffffffff1673ffffffffffffffffffffffffffffffffffffffff16815260200190815260200160002060000181905550600160009054906101000a900473ffffffffffffffffffffffffffffffffffffffff1673ffffffffffffffffffffffffffffffffffffffff1663a9059cbb33836040518363ffffffff1660e01b8152600401610859929190610eeb565b6020604051808303816000875af1158015610878573d6000803e3d6000fd5b505050506040513d601f19601f8201168201806040525081019061089c919061135d565b507ffc30cddea38e2bf4d6ea7d3f9ed3b6ad7f176419f4963bd81318067a4aee73fe33826040516108ce929190610eeb565b60405180910390a150565b6108e1610e77565b600860008373ffffffffffffffffffffffffffffffffffffffff1673ffffffffffffffffffffffffffffffffffffffff168152602001908152602001600020604051806040016040529081600082015481526020016001820154815250509050919050565b61094e610bfd565b6109586000610c7b565b565b60008060009054906101000a900473ffffffffffffffffffffffffffffffffffffffff16905090565b60055481565b610991610bfd565b600073ffffffffffffffffffffffffffffffffffffffff168173ffffffffffffffffffffffffffffffffffffffff1603610a00576040517f08c379a00000000000000000000000000000000000000000000000000000000081526004016109f7906113fc565b60405180910390fd5b610a0981610c7b565b50565b611900600354610a1c91906110b8565b431115610bfb57610a2b610d3f565b6000600754600554600654610a40919061141c565b610a4a91906114a5565b9050600060035443610a5c919061123f565b905060005b600980549050811015610bc45760006405705d500083856008600060098781548110610a9057610a8f61105a565b5b9060005260206000200160009054906101000a900473ffffffffffffffffffffffffffffffffffffffff1673ffffffffffffffffffffffffffffffffffffffff1673ffffffffffffffffffffffffffffffffffffffff16815260200190815260200160002060010154610b03919061141c565b610b0d919061141c565b610b1791906114a5565b9050806008600060098581548110610b3257610b3161105a565b5b9060005260206000200160009054906101000a900473ffffffffffffffffffffffffffffffffffffffff1673ffffffffffffffffffffffffffffffffffffffff1673ffffffffffffffffffffffffffffffffffffffff1681526020019081526020016000206000016000828254610ba991906110b8565b92505081905550508080610bbc9061110e565b915050610a61565b50436003819055507f4b45f0e13fcabe9807b071cc5b1dfa0695d028e28bef2d6a2e8715e4841c46a160405160405180910390a150505b565b610c05610e6f565b73ffffffffffffffffffffffffffffffffffffffff16610c2361095a565b73ffffffffffffffffffffffffffffffffffffffff1614610c79576040517f08c379a0000000000000000000000000000000000000000000000000000000008152600401610c7090611522565b60405180910390fd5b565b60008060009054906101000a900473ffffffffffffffffffffffffffffffffffffffff169050816000806101000a81548173ffffffffffffffffffffffffffffffffffffffff021916908373ffffffffffffffffffffffffffffffffffffffff1602179055508173ffffffffffffffffffffffffffffffffffffffff168173ffffffffffffffffffffffffffffffffffffffff167f8be0079c531659141344cd1fd0a4f28419497f9722a3daafe3b4186f6b6457e060405160405180910390a35050565b600260009054906101000a900473ffffffffffffffffffffffffffffffffffffffff1673ffffffffffffffffffffffffffffffffffffffff16636aa83fea6040518163ffffffff1660e01b8152600401602060405180830381865afa158015610dac573d6000803e3d6000fd5b505050506040513d601f19601f82011682018060405250810190610dd09190611578565b600681905550600260009054906101000a900473ffffffffffffffffffffffffffffffffffffffff1673ffffffffffffffffffffffffffffffffffffffff16639f1eaa176040518163ffffffff1660e01b8152600401602060405180830381865afa158015610e43573d6000803e3d6000fd5b505050506040513d601f19601f82011682018060405250810190610e679190611578565b600781905550565b600033905090565b604051806040016040528060008152602001600081525090565b600073ffffffffffffffffffffffffffffffffffffffff82169050919050565b6000610ebc82610e91565b9050919050565b610ecc81610eb1565b82525050565b6000819050919050565b610ee581610ed2565b82525050565b6000604082019050610f006000830185610ec3565b610f0d6020830184610edc565b9392505050565b6000602082019050610f296000830184610ec3565b92915050565b6000602082019050610f446000830184610edc565b92915050565b600080fd5b610f5881610ed2565b8114610f6357600080fd5b50565b600081359050610f7581610f4f565b92915050565b600060208284031215610f9157610f90610f4a565b5b6000610f9f84828501610f66565b91505092915050565b610fb181610eb1565b8114610fbc57600080fd5b50565b600081359050610fce81610fa8565b92915050565b600060208284031215610fea57610fe9610f4a565b5b6000610ff884828501610fbf565b91505092915050565b61100a81610ed2565b82525050565b6040820160008201516110266000850182611001565b5060208201516110396020850182611001565b50505050565b60006040820190506110546000830184611010565b92915050565b7f4e487b7100000000000000000000000000000000000000000000000000000000600052603260045260246000fd5b7f4e487b7100000000000000000000000000000000000000000000000000000000600052601160045260246000fd5b60006110c382610ed2565b91506110ce83610ed2565b9250827fffffffffffffffffffffffffffffffffffffffffffffffffffffffffffffffff0382111561110357611102611089565b5b828201905092915050565b600061111982610ed2565b91507fffffffffffffffffffffffffffffffffffffffffffffffffffffffffffffffff820361114b5761114a611089565b5b600182019050919050565b600082825260208201905092915050565b7f4d696e696d756d207374616b6520697320302e31204554482e00000000000000600082015250565b600061119d601983611156565b91506111a882611167565b602082019050919050565b600060208201905081810360008301526111cc81611190565b9050919050565b7f4e6f7420656e6f75676820455448207374616b65642e00000000000000000000600082015250565b6000611209601683611156565b9150611214826111d3565b602082019050919050565b60006020820190508181036000830152611238816111fc565b9050919050565b600061124a82610ed2565b915061125583610ed2565b92508282101561126857611267611089565b5b828203905092915050565b600081905092915050565b50565b600061128e600083611273565b91506112998261127e565b600082019050919050565b60006112af82611281565b9150819050919050565b7f596f752068617665206e6f207265776172647320746f20636c61696d2e000000600082015250565b60006112ef601d83611156565b91506112fa826112b9565b602082019050919050565b6000602082019050818103600083015261131e816112e2565b9050919050565b60008115159050919050565b61133a81611325565b811461134557600080fd5b50565b60008151905061135781611331565b92915050565b60006020828403121561137357611372610f4a565b5b600061138184828501611348565b91505092915050565b7f4f776e61626c653a206e6577206f776e657220697320746865207a65726f206160008201527f6464726573730000000000000000000000000000000000000000000000000000602082015250565b60006113e6602683611156565b91506113f18261138a565b604082019050919050565b60006020820190508181036000830152611415816113d9565b9050919050565b600061142782610ed2565b915061143283610ed2565b9250817fffffffffffffffffffffffffffffffffffffffffffffffffffffffffffffffff048311821515161561146b5761146a611089565b5b828202905092915050565b7f4e487b7100000000000000000000000000000000000000000000000000000000600052601260045260246000fd5b60006114b082610ed2565b91506114bb83610ed2565b9250826114cb576114ca611476565b5b828204905092915050565b7f4f776e61626c653a2063616c6c6572206973206e6f7420746865206f776e6572600082015250565b600061150c602083611156565b9150611517826114d6565b602082019050919050565b6000602082019050818103600083015261153b816114ff565b9050919050565b6000819050919050565b61155581611542565b811461156057600080fd5b50565b6000815190506115728161154c565b92915050565b60006020828403121561158e5761158d610f4a565b5b600061159c84828501611563565b9150509291505056fea26469706673582212201a43d5f1a945aeb8823c6d21941d258fcc680686d5fae5b6bd7f00c97cc3b27e64736f6c634300080e0033",
  "immutableReferences": {},
  "source": "// SPDX-License-Identifier: MIT\npragma solidity 0.8.14;\n\nimport \"@openzeppelin/contracts/access/Ownable.sol\";\nimport \"@openzeppelin/contracts/token/ERC20/IERC20.sol\";\nimport \"./interfaces/IPriceProvider.sol\";\n\ncontract ETHStakingManager is Ownable {\n\n    IERC20 BYX;\n    IPriceProvider PriceProvider;\n\n    /// BYX token fund for staking rewards\n    uint lastBlockUpdate;\n    uint BYXFund = 20000000 * 10 ** 18; // 20 000 000 tokens\n    uint public APR = 800; // in bps -> 800 bps = 8% annual rate\n    uint ETHPrice;\n    uint BYXPrice;\n\n    struct User {\n        uint pendingRewards;   // in BYX\n        uint ethAmountStaked;  // in ETH\n    }\n\n    mapping(address => User) users;\n    address[] userList;\n\n    event Stake(address user, uint amount);\n    event WithdrawStake(address user, uint amount);\n    event RewardsClaimed(address user, uint amount);\n    event PoolUpdate();\n\n    event LogBadCall(address user);\n    event LogDepot(address user, uint quantity);\n\n    /*************************************************************************************************/\n    /*                                        SPECIAL FUNCTIONS                                      */\n    /*************************************************************************************************/\n\n    constructor(address _byxAddress, address _PPAddress) {\n        // inject BYX address and price provider address in the deploy.\n        BYX = IERC20(_byxAddress);\n        PriceProvider = IPriceProvider(_PPAddress);\n        lastBlockUpdate = block.number;\n    }\n\n    /**\n    * @dev receive function will emit event in case of ether sent to the contract.\n    */\n    receive() external payable {\n        emit LogDepot(msg.sender, msg.value);\n    }\n\n    /**\n     * @dev fallback function will emit event in case of bad call of the contract.\n     */\n    fallback() external {\n        emit LogBadCall(msg.sender);\n    }\n\n    /*************************************************************************************************/\n    /*                                          VIEW FUNCTIONS                                       */\n    /*************************************************************************************************/\n\n    function getUserInfo(address _user) external view returns(User memory){\n        return users[_user];\n    }\n\n    /*************************************************************************************************/\n    /*                                        EXTERNAL FUNCTIONS                                     */\n    /*************************************************************************************************/\n\n    /**\n     * @notice withdraw function. Can only be used by the owner of the contract.\n     *\n     * @dev withdraw function. OnlyOwner.\n     *\n     * @param _amount the amount to withdraw.\n     */\n    function withdraw(uint _amount) external onlyOwner {\n        msg.sender.call{value: _amount}(\"\");\n    }\n\n    function depositStake() external payable {\n        // We set a mimimum amount to stake to protect potential DOS vulnerability in loop in _updateRewards() function.\n        require(msg.value >= 1 * 10 ** 17, 'Minimum stake is 0.1 ETH.');\n        _updateRewards();\n        if(users[msg.sender].ethAmountStaked == 0) {\n            userList.push(msg.sender);\n        }\n        users[msg.sender].ethAmountStaked += msg.value;\n        emit Stake(msg.sender, msg.value);\n    }\n\n    function withdrawStake(uint _amount) external {\n        require(_amount <= users[msg.sender].ethAmountStaked, 'Not enough ETH staked.');\n        _updateRewards();\n        users[msg.sender].ethAmountStaked -= _amount;\n        msg.sender.call{value: _amount}(\"\");\n        emit WithdrawStake(msg.sender, _amount);\n    }\n\n    function claimRewards() external {\n        _updateRewards();\n        require(users[msg.sender].pendingRewards > 0, 'You have no rewards to claim.');\n        uint _amount = users[msg.sender].pendingRewards;\n        users[msg.sender].pendingRewards = 0;\n        BYX.transfer(msg.sender, _amount);\n        emit RewardsClaimed(msg.sender, _amount);\n    }\n\n    /*************************************************************************************************/\n    /*                                        INTERNAL FUNCTIONS                                     */\n    /*************************************************************************************************/\n\n    function _updateRewards() internal {\n        // We decide to update rewards only if it has not been updated for 1 day.\n        if (block.number > lastBlockUpdate + 6400) {\n            _updatePrices();\n            uint BYXYearlyRewardPerETH = ETHPrice * APR / BYXPrice;\n            uint nbOfBlockToUpdate = block.number - lastBlockUpdate;\n            // Risk for DDOS is minimum as potential attacker needs to stake ETH to add an entry in the array\n            // Therefore, we add a minimum amount to stake to protect this potential vulnerability\n            for (uint i = 0; i < userList.length; i++) {\n                // New Reward = user ETH staked amount * yearly reward in BYX (in bps) * period ratio (time passed / a year)\n                uint _newRewards = users[userList[i]].ethAmountStaked * BYXYearlyRewardPerETH * nbOfBlockToUpdate / (10000 * 6400 * 365);\n                users[userList[i]].pendingRewards += _newRewards;\n            }\n            lastBlockUpdate = block.number;\n            emit PoolUpdate();\n        }\n    }\n\n    function _updatePrices() internal {\n        ETHPrice = uint(PriceProvider.getLatestETHUSDPrice());\n        BYXPrice = uint(PriceProvider.getLatestBYXUSDPrice());\n    }\n\n    function getTotalStaked() public view returns (uint) {\n        uint totalStaked = 0;\n        for (uint i = 0; i < userList.length; i++) {\n            totalStaked += users[userList[i]].ethAmountStaked;\n        }\n        return totalStaked;\n    }\n}\n",
  "sourcePath": "/Users/rey/Code/Alyra/6_Defi/Alyra-project4-deFi-dApp/truffle/contracts/ETHStakingManager.sol",
  "compiler": {
    "name": "solc",
    "version": "0.8.14+commit.80d49f37.Emscripten.clang"
  },
  "schemaVersion": "3.4.7",
  "updatedAt": "2022-08-06T21:26:17.154Z",
  "networkType": "ethereum",
  "devdoc": {
    "kind": "dev",
    "methods": {
      "owner()": {
        "details": "Returns the address of the current owner."
      },
      "renounceOwnership()": {
        "details": "Leaves the contract without owner. It will not be possible to call `onlyOwner` functions anymore. Can only be called by the current owner. NOTE: Renouncing ownership will leave the contract without an owner, thereby removing any functionality that is only available to the owner."
      },
      "transferOwnership(address)": {
        "details": "Transfers ownership of the contract to a new account (`newOwner`). Can only be called by the current owner."
      },
      "withdraw(uint256)": {
        "details": "withdraw function. OnlyOwner.",
        "params": {
          "_amount": "the amount to withdraw."
        }
      }
    },
    "version": 1
  },
  "userdoc": {
    "kind": "user",
    "methods": {
      "withdraw(uint256)": {
        "notice": "withdraw function. Can only be used by the owner of the contract."
      }
    },
    "version": 1
  }
}