{
  "contractName": "ETHStakingManager",
  "abi": [
    {
      "inputs": [
        {
          "internalType": "address",
          "name": "_byxAddress",
          "type": "address"
        },
        {
          "internalType": "address",
          "name": "_PPAddress",
          "type": "address"
        }
      ],
      "stateMutability": "nonpayable",
      "type": "constructor"
    },
    {
      "anonymous": false,
      "inputs": [
        {
          "indexed": false,
          "internalType": "address",
          "name": "user",
          "type": "address"
        }
      ],
      "name": "LogBadCall",
      "type": "event"
    },
    {
      "anonymous": false,
      "inputs": [
        {
          "indexed": false,
          "internalType": "address",
          "name": "user",
          "type": "address"
        },
        {
          "indexed": false,
          "internalType": "uint256",
          "name": "quantity",
          "type": "uint256"
        }
      ],
      "name": "LogDepot",
      "type": "event"
    },
    {
      "anonymous": false,
      "inputs": [
        {
          "indexed": true,
          "internalType": "address",
          "name": "previousOwner",
          "type": "address"
        },
        {
          "indexed": true,
          "internalType": "address",
          "name": "newOwner",
          "type": "address"
        }
      ],
      "name": "OwnershipTransferred",
      "type": "event"
    },
    {
      "stateMutability": "nonpayable",
      "type": "fallback"
    },
    {
      "inputs": [],
      "name": "APR",
      "outputs": [
        {
          "internalType": "uint64",
          "name": "",
          "type": "uint64"
        }
      ],
      "stateMutability": "view",
      "type": "function"
    },
    {
      "inputs": [],
      "name": "owner",
      "outputs": [
        {
          "internalType": "address",
          "name": "",
          "type": "address"
        }
      ],
      "stateMutability": "view",
      "type": "function"
    },
    {
      "inputs": [],
      "name": "renounceOwnership",
      "outputs": [],
      "stateMutability": "nonpayable",
      "type": "function"
    },
    {
      "inputs": [
        {
          "internalType": "address",
          "name": "newOwner",
          "type": "address"
        }
      ],
      "name": "transferOwnership",
      "outputs": [],
      "stateMutability": "nonpayable",
      "type": "function"
    },
    {
      "stateMutability": "payable",
      "type": "receive"
    },
    {
      "inputs": [
        {
          "internalType": "uint256",
          "name": "_amount",
          "type": "uint256"
        }
      ],
      "name": "withdraw",
      "outputs": [],
      "stateMutability": "nonpayable",
      "type": "function"
    },
    {
      "inputs": [],
      "name": "depositStake",
      "outputs": [],
      "stateMutability": "payable",
      "type": "function"
    },
    {
      "inputs": [
        {
          "internalType": "uint256",
          "name": "_amount",
          "type": "uint256"
        }
      ],
      "name": "withdrawStake",
      "outputs": [],
      "stateMutability": "nonpayable",
      "type": "function"
    },
    {
      "inputs": [],
      "name": "claimRewards",
      "outputs": [],
      "stateMutability": "nonpayable",
      "type": "function"
    }
  ],
  "bytecode": "0x60806040526a108b2a2c28029094000000600455610320600560006101000a81548167ffffffffffffffff021916908367ffffffffffffffff1602179055503480156200004b57600080fd5b506040516200112b3803806200112b833981810160405281019062000071919062000258565b62000091620000856200012260201b60201c565b6200012a60201b60201c565b81600160006101000a81548173ffffffffffffffffffffffffffffffffffffffff021916908373ffffffffffffffffffffffffffffffffffffffff16021790555080600260006101000a81548173ffffffffffffffffffffffffffffffffffffffff021916908373ffffffffffffffffffffffffffffffffffffffff1602179055504360038190555050506200029f565b600033905090565b60008060009054906101000a900473ffffffffffffffffffffffffffffffffffffffff169050816000806101000a81548173ffffffffffffffffffffffffffffffffffffffff021916908373ffffffffffffffffffffffffffffffffffffffff1602179055508173ffffffffffffffffffffffffffffffffffffffff168173ffffffffffffffffffffffffffffffffffffffff167f8be0079c531659141344cd1fd0a4f28419497f9722a3daafe3b4186f6b6457e060405160405180910390a35050565b600080fd5b600073ffffffffffffffffffffffffffffffffffffffff82169050919050565b60006200022082620001f3565b9050919050565b620002328162000213565b81146200023e57600080fd5b50565b600081519050620002528162000227565b92915050565b60008060408385031215620002725762000271620001ee565b5b6000620002828582860162000241565b9250506020620002958582860162000241565b9150509250929050565b610e7c80620002af6000396000f3fe60806040526004361061007f5760003560e01c8063715018a61161004e578063715018a6146101785780638da5cb5b1461018f578063bd30558e146101ba578063f2fde38b146101e5576100bf565b80630d2d76a21461010557806325d5971f1461010f5780632e1a7d4d14610138578063372500ab14610161576100bf565b366100bf577f1d76c7e5736b9b335988489baea5b96ec803f8f1194842fe5ce3a6ec85e79b5633346040516100b5929190610956565b60405180910390a1005b3480156100cb57600080fd5b507fcc97ff3d49208ba08dc7ada5cf9e88e59e047be7d363118838f7af1233c49c43336040516100fb919061097f565b60405180910390a1005b61010d61020e565b005b34801561011b57600080fd5b50610136600480360381019061013191906109cb565b610362565b005b34801561014457600080fd5b5061015f600480360381019061015a91906109cb565b6104ac565b005b34801561016d57600080fd5b50610176610520565b005b34801561018457600080fd5b5061018d6106d8565b005b34801561019b57600080fd5b506101a46106ec565b6040516101b1919061097f565b60405180910390f35b3480156101c657600080fd5b506101cf610715565b6040516101dc9190610a1b565b60405180910390f35b3480156101f157600080fd5b5061020c60048036038101906102079190610a62565b61072f565b005b67016345785d8a0000341015610259576040517f08c379a000000000000000000000000000000000000000000000000000000000815260040161025090610aec565b60405180910390fd5b6000600860003373ffffffffffffffffffffffffffffffffffffffff1673ffffffffffffffffffffffffffffffffffffffff1681526020019081526020016000206001015403610307576009339080600181540180825580915050600190039060005260206000200160009091909190916101000a81548173ffffffffffffffffffffffffffffffffffffffff021916908373ffffffffffffffffffffffffffffffffffffffff1602179055505b34600860003373ffffffffffffffffffffffffffffffffffffffff1673ffffffffffffffffffffffffffffffffffffffff16815260200190815260200160002060010160008282546103599190610b3b565b92505081905550565b600860003373ffffffffffffffffffffffffffffffffffffffff1673ffffffffffffffffffffffffffffffffffffffff168152602001908152602001600020600101548111156103e7576040517f08c379a00000000000000000000000000000000000000000000000000000000081526004016103de90610bdd565b60405180910390fd5b80600860003373ffffffffffffffffffffffffffffffffffffffff1673ffffffffffffffffffffffffffffffffffffffff16815260200190815260200160002060010160008282546104399190610bfd565b925050819055503373ffffffffffffffffffffffffffffffffffffffff168160405161046490610c62565b60006040518083038185875af1925050503d80600081146104a1576040519150601f19603f3d011682016040523d82523d6000602084013e6104a6565b606091505b50505050565b6104b46107b2565b3373ffffffffffffffffffffffffffffffffffffffff16816040516104d890610c62565b60006040518083038185875af1925050503d8060008114610515576040519150601f19603f3d011682016040523d82523d6000602084013e61051a565b606091505b50505050565b6000600860003373ffffffffffffffffffffffffffffffffffffffff1673ffffffffffffffffffffffffffffffffffffffff16815260200190815260200160002060000154116105a5576040517f08c379a000000000000000000000000000000000000000000000000000000000815260040161059c90610cc3565b60405180910390fd5b6000600860003373ffffffffffffffffffffffffffffffffffffffff1673ffffffffffffffffffffffffffffffffffffffff1681526020019081526020016000206000015490506000600860003373ffffffffffffffffffffffffffffffffffffffff1673ffffffffffffffffffffffffffffffffffffffff16815260200190815260200160002060000181905550600160009054906101000a900473ffffffffffffffffffffffffffffffffffffffff1673ffffffffffffffffffffffffffffffffffffffff1663a9059cbb33836040518363ffffffff1660e01b8152600401610691929190610956565b6020604051808303816000875af11580156106b0573d6000803e3d6000fd5b505050506040513d601f19601f820116820180604052508101906106d49190610d1b565b5050565b6106e06107b2565b6106ea6000610830565b565b60008060009054906101000a900473ffffffffffffffffffffffffffffffffffffffff16905090565b600560009054906101000a900467ffffffffffffffff1681565b6107376107b2565b600073ffffffffffffffffffffffffffffffffffffffff168173ffffffffffffffffffffffffffffffffffffffff16036107a6576040517f08c379a000000000000000000000000000000000000000000000000000000000815260040161079d90610dba565b60405180910390fd5b6107af81610830565b50565b6107ba6108f4565b73ffffffffffffffffffffffffffffffffffffffff166107d86106ec565b73ffffffffffffffffffffffffffffffffffffffff161461082e576040517f08c379a000000000000000000000000000000000000000000000000000000000815260040161082590610e26565b60405180910390fd5b565b60008060009054906101000a900473ffffffffffffffffffffffffffffffffffffffff169050816000806101000a81548173ffffffffffffffffffffffffffffffffffffffff021916908373ffffffffffffffffffffffffffffffffffffffff1602179055508173ffffffffffffffffffffffffffffffffffffffff168173ffffffffffffffffffffffffffffffffffffffff167f8be0079c531659141344cd1fd0a4f28419497f9722a3daafe3b4186f6b6457e060405160405180910390a35050565b600033905090565b600073ffffffffffffffffffffffffffffffffffffffff82169050919050565b6000610927826108fc565b9050919050565b6109378161091c565b82525050565b6000819050919050565b6109508161093d565b82525050565b600060408201905061096b600083018561092e565b6109786020830184610947565b9392505050565b6000602082019050610994600083018461092e565b92915050565b600080fd5b6109a88161093d565b81146109b357600080fd5b50565b6000813590506109c58161099f565b92915050565b6000602082840312156109e1576109e061099a565b5b60006109ef848285016109b6565b91505092915050565b600067ffffffffffffffff82169050919050565b610a15816109f8565b82525050565b6000602082019050610a306000830184610a0c565b92915050565b610a3f8161091c565b8114610a4a57600080fd5b50565b600081359050610a5c81610a36565b92915050565b600060208284031215610a7857610a7761099a565b5b6000610a8684828501610a4d565b91505092915050565b600082825260208201905092915050565b7f4d696e696d756d207374616b6520697320302e31204554482e00000000000000600082015250565b6000610ad6601983610a8f565b9150610ae182610aa0565b602082019050919050565b60006020820190508181036000830152610b0581610ac9565b9050919050565b7f4e487b7100000000000000000000000000000000000000000000000000000000600052601160045260246000fd5b6000610b468261093d565b9150610b518361093d565b9250827fffffffffffffffffffffffffffffffffffffffffffffffffffffffffffffffff03821115610b8657610b85610b0c565b5b828201905092915050565b7f4e6f7420656e6f75676820455448207374616b65642e00000000000000000000600082015250565b6000610bc7601683610a8f565b9150610bd282610b91565b602082019050919050565b60006020820190508181036000830152610bf681610bba565b9050919050565b6000610c088261093d565b9150610c138361093d565b925082821015610c2657610c25610b0c565b5b828203905092915050565b600081905092915050565b50565b6000610c4c600083610c31565b9150610c5782610c3c565b600082019050919050565b6000610c6d82610c3f565b9150819050919050565b7f596f752068617665206e6f207265776172647320746f20636c61696d00000000600082015250565b6000610cad601c83610a8f565b9150610cb882610c77565b602082019050919050565b60006020820190508181036000830152610cdc81610ca0565b9050919050565b60008115159050919050565b610cf881610ce3565b8114610d0357600080fd5b50565b600081519050610d1581610cef565b92915050565b600060208284031215610d3157610d3061099a565b5b6000610d3f84828501610d06565b91505092915050565b7f4f776e61626c653a206e6577206f776e657220697320746865207a65726f206160008201527f6464726573730000000000000000000000000000000000000000000000000000602082015250565b6000610da4602683610a8f565b9150610daf82610d48565b604082019050919050565b60006020820190508181036000830152610dd381610d97565b9050919050565b7f4f776e61626c653a2063616c6c6572206973206e6f7420746865206f776e6572600082015250565b6000610e10602083610a8f565b9150610e1b82610dda565b602082019050919050565b60006020820190508181036000830152610e3f81610e03565b905091905056fea26469706673582212202b4a49a58c3fa977d12cde666fc8adc6886ece5eae9c58583ef869300096cfcd64736f6c634300080e0033",
  "immutableReferences": {},
  "source": "// SPDX-License-Identifier: MIT\npragma solidity 0.8.14;\n\nimport \"@openzeppelin/contracts/access/Ownable.sol\";\nimport \"@openzeppelin/contracts/token/ERC20/IERC20.sol\";\nimport \"./interfaces/IPriceProvider.sol\";\n\ncontract ETHStakingManager is Ownable {\n\n    IERC20 BYX;\n    IPriceProvider PriceProvider;\n\n    /// BYX token fund for staking rewards\n    uint lastBlockUpdate;\n    uint BYXFund = 20000000 * 10 ** 18; // 20 000 000 tokens\n    uint64 public APR = 800; // in bps -> 800 bps = 8% annual rate\n    uint ETHPrice;\n    uint BYXPrice;\n\n    struct User {\n        uint pendingRewards;   // in BYX\n        uint ethAmountStaked;  // in ETH\n    }\n\n    mapping(address => User) users;\n    address[] userList;\n\n    event LogBadCall(address user);\n    event LogDepot(address user, uint quantity);\n\n    /*************************************************************************************************/\n    /*                                        SPECIAL FUNCTIONS                                      */\n    /*************************************************************************************************/\n\n    constructor(address _byxAddress, address _PPAddress) {\n        // inject BYX address and price provider address in the deploy.\n        BYX = IERC20(_byxAddress);\n        PriceProvider = IPriceProvider(_PPAddress);\n        lastBlockUpdate = block.number;\n    }\n\n    /**\n    * @dev receive function will emit event in case of ether sent to the contract.\n    */\n    receive() external payable {\n        emit LogDepot(msg.sender, msg.value);\n    }\n\n    /**\n     * @dev fallback function will emit event in case of bad call of the contract.\n     */\n    fallback() external {\n        emit LogBadCall(msg.sender);\n    }\n\n    /*************************************************************************************************/\n    /*                                          VIEW FUNCTIONS                                       */\n    /*************************************************************************************************/\n\n    /*************************************************************************************************/\n    /*                                        EXTERNAL FUNCTIONS                                     */\n    /*************************************************************************************************/\n\n    /**\n     * @notice withdraw function. Can only be used by the owner of the contract.\n     *\n     * @dev withdraw function. OnlyOwner.\n     *\n     * @param _amount the amount to withdraw.\n     */\n    function withdraw(uint _amount) external onlyOwner {\n        msg.sender.call{value: _amount}(\"\");\n    }\n\n    function depositStake() external payable {\n        // We set a mimimum amount to stake to protect potential DOS vulnerability in loop in _updateRewards() function.\n        require(msg.value >= 1 * 10 ** 17, 'Minimum stake is 0.1 ETH.');\n        if(users[msg.sender].ethAmountStaked == 0) {\n            userList.push(msg.sender);\n        }\n        users[msg.sender].ethAmountStaked += msg.value;\n    }\n\n    function withdrawStake(uint _amount) external {\n        require(_amount <= users[msg.sender].ethAmountStaked, 'Not enough ETH staked.');\n        users[msg.sender].ethAmountStaked -= _amount;\n        msg.sender.call{value: _amount}(\"\");\n    }\n\n    function claimRewards() external {\n        require(users[msg.sender].pendingRewards > 0, 'You have no rewards to claim');\n        uint _amount = users[msg.sender].pendingRewards;\n        users[msg.sender].pendingRewards = 0;\n        BYX.transfer(msg.sender, _amount);\n    }\n\n    /*************************************************************************************************/\n    /*                                        INTERNAL FUNCTIONS                                     */\n    /*************************************************************************************************/\n\n    function _updateRewards() internal {\n        // We decide to update rewards only if it has not been updated for 1 day.\n        if (block.number > lastBlockUpdate + 6400) {\n            _updatePrices();\n            uint BYXYearlyRewardPerETH = ETHPrice * APR * BYXPrice;\n            uint nbOfBlockToUpdate = block.number - lastBlockUpdate;\n            // Risk for DDOS is minimum as potential attacker needs to stake ETH to add an entry in the array\n            // Therefore, we add a minimum amount to stake to protect this potential vulnerability\n            for (uint i = 0; i < userList.length; i++) {\n                // New Reward = user ETH staked amount * yearly reward in BYX (in bps) * period ratio (time passed / a year)\n                uint _newRewards = users[userList[i]].ethAmountStaked * BYXYearlyRewardPerETH / 10000 * nbOfBlockToUpdate / 6400* 365;\n                users[userList[i]].pendingRewards += _newRewards;\n            }\n            lastBlockUpdate = block.number;\n        }\n    }\n\n    function _updatePrices() internal {\n        ETHPrice = uint(PriceProvider.getLatestETHUSDPrice());\n        BYXPrice = uint(PriceProvider.getLatestBYXUSDPrice());\n    }\n\n}\n",
  "sourcePath": "/home/jack/Dev/PROJEX/4_Alyra_Projet_deFi_Staking_App/truffle/contracts/ETHStakingManager.sol",
  "compiler": {
    "name": "solc",
    "version": "0.8.14+commit.80d49f37.Emscripten.clang"
  },
  "schemaVersion": "3.4.7",
  "updatedAt": "2022-08-05T09:31:47.477Z",
  "devdoc": {
    "kind": "dev",
    "methods": {
      "owner()": {
        "details": "Returns the address of the current owner."
      },
      "renounceOwnership()": {
        "details": "Leaves the contract without owner. It will not be possible to call `onlyOwner` functions anymore. Can only be called by the current owner. NOTE: Renouncing ownership will leave the contract without an owner, thereby removing any functionality that is only available to the owner."
      },
      "transferOwnership(address)": {
        "details": "Transfers ownership of the contract to a new account (`newOwner`). Can only be called by the current owner."
      },
      "withdraw(uint256)": {
        "details": "withdraw function. OnlyOwner.",
        "params": {
          "_amount": "the amount to withdraw."
        }
      }
    },
    "version": 1
  },
  "userdoc": {
    "kind": "user",
    "methods": {
      "withdraw(uint256)": {
        "notice": "withdraw function. Can only be used by the owner of the contract."
      }
    },
    "version": 1
  }
}