{
  "contractName": "ETHStakingManager",
  "abi": [
    {
      "inputs": [
        {
          "internalType": "address",
          "name": "_byxAddress",
          "type": "address"
        },
        {
          "internalType": "address",
          "name": "_PPAddress",
          "type": "address"
        }
      ],
      "stateMutability": "nonpayable",
      "type": "constructor"
    },
    {
      "anonymous": false,
      "inputs": [
        {
          "indexed": false,
          "internalType": "address",
          "name": "user",
          "type": "address"
        }
      ],
      "name": "LogBadCall",
      "type": "event"
    },
    {
      "anonymous": false,
      "inputs": [
        {
          "indexed": false,
          "internalType": "address",
          "name": "user",
          "type": "address"
        },
        {
          "indexed": false,
          "internalType": "uint256",
          "name": "quantity",
          "type": "uint256"
        }
      ],
      "name": "LogDepot",
      "type": "event"
    },
    {
      "anonymous": false,
      "inputs": [
        {
          "indexed": true,
          "internalType": "address",
          "name": "previousOwner",
          "type": "address"
        },
        {
          "indexed": true,
          "internalType": "address",
          "name": "newOwner",
          "type": "address"
        }
      ],
      "name": "OwnershipTransferred",
      "type": "event"
    },
    {
      "stateMutability": "nonpayable",
      "type": "fallback"
    },
    {
      "inputs": [],
      "name": "APR",
      "outputs": [
        {
          "internalType": "uint64",
          "name": "",
          "type": "uint64"
        }
      ],
      "stateMutability": "view",
      "type": "function"
    },
    {
      "inputs": [],
      "name": "owner",
      "outputs": [
        {
          "internalType": "address",
          "name": "",
          "type": "address"
        }
      ],
      "stateMutability": "view",
      "type": "function"
    },
    {
      "inputs": [],
      "name": "renounceOwnership",
      "outputs": [],
      "stateMutability": "nonpayable",
      "type": "function"
    },
    {
      "inputs": [
        {
          "internalType": "address",
          "name": "newOwner",
          "type": "address"
        }
      ],
      "name": "transferOwnership",
      "outputs": [],
      "stateMutability": "nonpayable",
      "type": "function"
    },
    {
      "inputs": [
        {
          "internalType": "address",
          "name": "",
          "type": "address"
        }
      ],
      "name": "users",
      "outputs": [
        {
          "internalType": "uint256",
          "name": "pendingRewards",
          "type": "uint256"
        },
        {
          "internalType": "uint256",
          "name": "ethAmountStaked",
          "type": "uint256"
        }
      ],
      "stateMutability": "view",
      "type": "function"
    },
    {
      "stateMutability": "payable",
      "type": "receive"
    },
    {
      "inputs": [
        {
          "internalType": "uint256",
          "name": "_amount",
          "type": "uint256"
        }
      ],
      "name": "withdraw",
      "outputs": [],
      "stateMutability": "nonpayable",
      "type": "function"
    },
    {
      "inputs": [],
      "name": "depositStake",
      "outputs": [],
      "stateMutability": "payable",
      "type": "function"
    },
    {
      "inputs": [
        {
          "internalType": "uint256",
          "name": "_amount",
          "type": "uint256"
        }
      ],
      "name": "withdrawStake",
      "outputs": [],
      "stateMutability": "nonpayable",
      "type": "function"
    },
    {
      "inputs": [],
      "name": "claimRewards",
      "outputs": [],
      "stateMutability": "nonpayable",
      "type": "function"
    }
  ],
  "bytecode": "0x60806040526a108b2a2c28029094000000600455610320600560006101000a81548167ffffffffffffffff021916908367ffffffffffffffff1602179055503480156200004b57600080fd5b50604051620011c1380380620011c1833981810160405281019062000071919062000258565b62000091620000856200012260201b60201c565b6200012a60201b60201c565b81600160006101000a81548173ffffffffffffffffffffffffffffffffffffffff021916908373ffffffffffffffffffffffffffffffffffffffff16021790555080600260006101000a81548173ffffffffffffffffffffffffffffffffffffffff021916908373ffffffffffffffffffffffffffffffffffffffff1602179055504360038190555050506200029f565b600033905090565b60008060009054906101000a900473ffffffffffffffffffffffffffffffffffffffff169050816000806101000a81548173ffffffffffffffffffffffffffffffffffffffff021916908373ffffffffffffffffffffffffffffffffffffffff1602179055508173ffffffffffffffffffffffffffffffffffffffff168173ffffffffffffffffffffffffffffffffffffffff167f8be0079c531659141344cd1fd0a4f28419497f9722a3daafe3b4186f6b6457e060405160405180910390a35050565b600080fd5b600073ffffffffffffffffffffffffffffffffffffffff82169050919050565b60006200022082620001f3565b9050919050565b620002328162000213565b81146200023e57600080fd5b50565b600081519050620002528162000227565b92915050565b60008060408385031215620002725762000271620001ee565b5b6000620002828582860162000241565b9250506020620002958582860162000241565b9150509250929050565b610f1280620002af6000396000f3fe60806040526004361061008a5760003560e01c8063715018a611610059578063715018a6146101835780638da5cb5b1461019a578063a87430ba146101c5578063bd30558e14610203578063f2fde38b1461022e576100ca565b80630d2d76a21461011057806325d5971f1461011a5780632e1a7d4d14610143578063372500ab1461016c576100ca565b366100ca577f1d76c7e5736b9b335988489baea5b96ec803f8f1194842fe5ce3a6ec85e79b5633346040516100c09291906109c3565b60405180910390a1005b3480156100d657600080fd5b507fcc97ff3d49208ba08dc7ada5cf9e88e59e047be7d363118838f7af1233c49c433360405161010691906109ec565b60405180910390a1005b610118610257565b005b34801561012657600080fd5b50610141600480360381019061013c9190610a38565b6103ab565b005b34801561014f57600080fd5b5061016a60048036038101906101659190610a38565b6104f5565b005b34801561017857600080fd5b50610181610569565b005b34801561018f57600080fd5b50610198610721565b005b3480156101a657600080fd5b506101af610735565b6040516101bc91906109ec565b60405180910390f35b3480156101d157600080fd5b506101ec60048036038101906101e79190610a91565b61075e565b6040516101fa929190610abe565b60405180910390f35b34801561020f57600080fd5b50610218610782565b6040516102259190610b0a565b60405180910390f35b34801561023a57600080fd5b5061025560048036038101906102509190610a91565b61079c565b005b67016345785d8a00003410156102a2576040517f08c379a000000000000000000000000000000000000000000000000000000000815260040161029990610b82565b60405180910390fd5b6000600860003373ffffffffffffffffffffffffffffffffffffffff1673ffffffffffffffffffffffffffffffffffffffff1681526020019081526020016000206001015403610350576009339080600181540180825580915050600190039060005260206000200160009091909190916101000a81548173ffffffffffffffffffffffffffffffffffffffff021916908373ffffffffffffffffffffffffffffffffffffffff1602179055505b34600860003373ffffffffffffffffffffffffffffffffffffffff1673ffffffffffffffffffffffffffffffffffffffff16815260200190815260200160002060010160008282546103a29190610bd1565b92505081905550565b600860003373ffffffffffffffffffffffffffffffffffffffff1673ffffffffffffffffffffffffffffffffffffffff16815260200190815260200160002060010154811115610430576040517f08c379a000000000000000000000000000000000000000000000000000000000815260040161042790610c73565b60405180910390fd5b80600860003373ffffffffffffffffffffffffffffffffffffffff1673ffffffffffffffffffffffffffffffffffffffff16815260200190815260200160002060010160008282546104829190610c93565b925050819055503373ffffffffffffffffffffffffffffffffffffffff16816040516104ad90610cf8565b60006040518083038185875af1925050503d80600081146104ea576040519150601f19603f3d011682016040523d82523d6000602084013e6104ef565b606091505b50505050565b6104fd61081f565b3373ffffffffffffffffffffffffffffffffffffffff168160405161052190610cf8565b60006040518083038185875af1925050503d806000811461055e576040519150601f19603f3d011682016040523d82523d6000602084013e610563565b606091505b50505050565b6000600860003373ffffffffffffffffffffffffffffffffffffffff1673ffffffffffffffffffffffffffffffffffffffff16815260200190815260200160002060000154116105ee576040517f08c379a00000000000000000000000000000000000000000000000000000000081526004016105e590610d59565b60405180910390fd5b6000600860003373ffffffffffffffffffffffffffffffffffffffff1673ffffffffffffffffffffffffffffffffffffffff1681526020019081526020016000206000015490506000600860003373ffffffffffffffffffffffffffffffffffffffff1673ffffffffffffffffffffffffffffffffffffffff16815260200190815260200160002060000181905550600160009054906101000a900473ffffffffffffffffffffffffffffffffffffffff1673ffffffffffffffffffffffffffffffffffffffff1663a9059cbb33836040518363ffffffff1660e01b81526004016106da9291906109c3565b6020604051808303816000875af11580156106f9573d6000803e3d6000fd5b505050506040513d601f19601f8201168201806040525081019061071d9190610db1565b5050565b61072961081f565b610733600061089d565b565b60008060009054906101000a900473ffffffffffffffffffffffffffffffffffffffff16905090565b60086020528060005260406000206000915090508060000154908060010154905082565b600560009054906101000a900467ffffffffffffffff1681565b6107a461081f565b600073ffffffffffffffffffffffffffffffffffffffff168173ffffffffffffffffffffffffffffffffffffffff1603610813576040517f08c379a000000000000000000000000000000000000000000000000000000000815260040161080a90610e50565b60405180910390fd5b61081c8161089d565b50565b610827610961565b73ffffffffffffffffffffffffffffffffffffffff16610845610735565b73ffffffffffffffffffffffffffffffffffffffff161461089b576040517f08c379a000000000000000000000000000000000000000000000000000000000815260040161089290610ebc565b60405180910390fd5b565b60008060009054906101000a900473ffffffffffffffffffffffffffffffffffffffff169050816000806101000a81548173ffffffffffffffffffffffffffffffffffffffff021916908373ffffffffffffffffffffffffffffffffffffffff1602179055508173ffffffffffffffffffffffffffffffffffffffff168173ffffffffffffffffffffffffffffffffffffffff167f8be0079c531659141344cd1fd0a4f28419497f9722a3daafe3b4186f6b6457e060405160405180910390a35050565b600033905090565b600073ffffffffffffffffffffffffffffffffffffffff82169050919050565b600061099482610969565b9050919050565b6109a481610989565b82525050565b6000819050919050565b6109bd816109aa565b82525050565b60006040820190506109d8600083018561099b565b6109e560208301846109b4565b9392505050565b6000602082019050610a01600083018461099b565b92915050565b600080fd5b610a15816109aa565b8114610a2057600080fd5b50565b600081359050610a3281610a0c565b92915050565b600060208284031215610a4e57610a4d610a07565b5b6000610a5c84828501610a23565b91505092915050565b610a6e81610989565b8114610a7957600080fd5b50565b600081359050610a8b81610a65565b92915050565b600060208284031215610aa757610aa6610a07565b5b6000610ab584828501610a7c565b91505092915050565b6000604082019050610ad360008301856109b4565b610ae060208301846109b4565b9392505050565b600067ffffffffffffffff82169050919050565b610b0481610ae7565b82525050565b6000602082019050610b1f6000830184610afb565b92915050565b600082825260208201905092915050565b7f4d696e696d756d207374616b6520697320302e31204554482e00000000000000600082015250565b6000610b6c601983610b25565b9150610b7782610b36565b602082019050919050565b60006020820190508181036000830152610b9b81610b5f565b9050919050565b7f4e487b7100000000000000000000000000000000000000000000000000000000600052601160045260246000fd5b6000610bdc826109aa565b9150610be7836109aa565b9250827fffffffffffffffffffffffffffffffffffffffffffffffffffffffffffffffff03821115610c1c57610c1b610ba2565b5b828201905092915050565b7f4e6f7420656e6f75676820455448207374616b65642e00000000000000000000600082015250565b6000610c5d601683610b25565b9150610c6882610c27565b602082019050919050565b60006020820190508181036000830152610c8c81610c50565b9050919050565b6000610c9e826109aa565b9150610ca9836109aa565b925082821015610cbc57610cbb610ba2565b5b828203905092915050565b600081905092915050565b50565b6000610ce2600083610cc7565b9150610ced82610cd2565b600082019050919050565b6000610d0382610cd5565b9150819050919050565b7f596f752068617665206e6f207265776172647320746f20636c61696d00000000600082015250565b6000610d43601c83610b25565b9150610d4e82610d0d565b602082019050919050565b60006020820190508181036000830152610d7281610d36565b9050919050565b60008115159050919050565b610d8e81610d79565b8114610d9957600080fd5b50565b600081519050610dab81610d85565b92915050565b600060208284031215610dc757610dc6610a07565b5b6000610dd584828501610d9c565b91505092915050565b7f4f776e61626c653a206e6577206f776e657220697320746865207a65726f206160008201527f6464726573730000000000000000000000000000000000000000000000000000602082015250565b6000610e3a602683610b25565b9150610e4582610dde565b604082019050919050565b60006020820190508181036000830152610e6981610e2d565b9050919050565b7f4f776e61626c653a2063616c6c6572206973206e6f7420746865206f776e6572600082015250565b6000610ea6602083610b25565b9150610eb182610e70565b602082019050919050565b60006020820190508181036000830152610ed581610e99565b905091905056fea26469706673582212205c6f01780108e57c9da23b26da4283694cafc13e0a045432f6d8cfbb52652bab64736f6c634300080e0033",
  "immutableReferences": {},
  "source": "// SPDX-License-Identifier: MIT\npragma solidity 0.8.14;\n\nimport \"@openzeppelin/contracts/access/Ownable.sol\";\nimport \"@openzeppelin/contracts/token/ERC20/IERC20.sol\";\nimport \"./interfaces/IPriceProvider.sol\";\n\ncontract ETHStakingManager is Ownable {\n\n    IERC20 BYX;\n    IPriceProvider PriceProvider;\n\n    /// BYX token fund for staking rewards\n    uint lastBlockUpdate;\n    uint BYXFund = 20000000 * 10 ** 18; // 20 000 000 tokens\n    uint64 public APR = 800; // in bps -> 800 bps = 8% annual rate\n    uint ETHPrice;\n    uint BYXPrice;\n\n    struct User {\n        uint pendingRewards;   // in BYX\n        uint ethAmountStaked;  // in ETH\n    }\n\n    mapping(address => User) public users;\n    address[] userList;\n\n    event LogBadCall(address user);\n    event LogDepot(address user, uint quantity);\n\n    /*************************************************************************************************/\n    /*                                        SPECIAL FUNCTIONS                                      */\n    /*************************************************************************************************/\n\n    constructor(address _byxAddress, address _PPAddress) {\n        // inject BYX address and price provider address in the deploy.\n        BYX = IERC20(_byxAddress);\n        PriceProvider = IPriceProvider(_PPAddress);\n        lastBlockUpdate = block.number;\n    }\n\n    /**\n    * @dev receive function will emit event in case of ether sent to the contract.\n    */\n    receive() external payable {\n        emit LogDepot(msg.sender, msg.value);\n    }\n\n    /**\n     * @dev fallback function will emit event in case of bad call of the contract.\n     */\n    fallback() external {\n        emit LogBadCall(msg.sender);\n    }\n\n    /*************************************************************************************************/\n    /*                                          VIEW FUNCTIONS                                       */\n    /*************************************************************************************************/\n\n    /*************************************************************************************************/\n    /*                                        EXTERNAL FUNCTIONS                                     */\n    /*************************************************************************************************/\n\n    /**\n     * @notice withdraw function. Can only be used by the owner of the contract.\n     *\n     * @dev withdraw function. OnlyOwner.\n     *\n     * @param _amount the amount to withdraw.\n     */\n    function withdraw(uint _amount) external onlyOwner {\n        msg.sender.call{value: _amount}(\"\");\n    }\n\n    function depositStake() external payable {\n        // We set a mimimum amount to stake to protect potential DOS vulnerability in loop in _updateRewards() function.\n        require(msg.value >= 1 * 10 ** 17, 'Minimum stake is 0.1 ETH.');\n        if(users[msg.sender].ethAmountStaked == 0) {\n            userList.push(msg.sender);\n        }\n        users[msg.sender].ethAmountStaked += msg.value;\n    }\n\n    function withdrawStake(uint _amount) external {\n        require(_amount <= users[msg.sender].ethAmountStaked, 'Not enough ETH staked.');\n        users[msg.sender].ethAmountStaked -= _amount;\n        msg.sender.call{value: _amount}(\"\");\n    }\n\n    function claimRewards() external {\n        require(users[msg.sender].pendingRewards > 0, 'You have no rewards to claim');\n        uint _amount = users[msg.sender].pendingRewards;\n        users[msg.sender].pendingRewards = 0;\n        BYX.transfer(msg.sender, _amount);\n    }\n\n    /*************************************************************************************************/\n    /*                                        INTERNAL FUNCTIONS                                     */\n    /*************************************************************************************************/\n\n    function _updateRewards() internal {\n        // We decide to update rewards only if it has not been updated for 1 day.\n        if (block.number > lastBlockUpdate + 6400) {\n            _updatePrices();\n            uint BYXYearlyRewardPerETH = ETHPrice * APR * BYXPrice;\n            uint nbOfBlockToUpdate = block.number - lastBlockUpdate;\n            // Risk for DDOS is minimum as potential attacker needs to stake ETH to add an entry in the array\n            // Therefore, we add a minimum amount to stake to protect this potential vulnerability\n            for (uint i = 0; i < userList.length; i++) {\n                // New Reward = user ETH staked amount * yearly reward in BYX (in bps) * period ratio (time passed / a year)\n                uint _newRewards = users[userList[i]].ethAmountStaked * BYXYearlyRewardPerETH / 10000 * nbOfBlockToUpdate / 6400* 365;\n                users[userList[i]].pendingRewards += _newRewards;\n            }\n            lastBlockUpdate = block.number;\n        }\n    }\n\n    function _updatePrices() internal {\n        ETHPrice = uint(PriceProvider.getLatestETHUSDPrice());\n        BYXPrice = uint(PriceProvider.getLatestBYXUSDPrice());\n    }\n\n}\n",
  "sourcePath": "/Users/rey/Code/Alyra/6_Defi/Alyra-project4-deFi-dApp/truffle/contracts/ETHStakingManager.sol",
  "compiler": {
    "name": "solc",
    "version": "0.8.14+commit.80d49f37.Emscripten.clang"
  },
  "schemaVersion": "3.4.7",
  "updatedAt": "2022-08-05T20:21:14.939Z",
  "devdoc": {
    "kind": "dev",
    "methods": {
      "owner()": {
        "details": "Returns the address of the current owner."
      },
      "renounceOwnership()": {
        "details": "Leaves the contract without owner. It will not be possible to call `onlyOwner` functions anymore. Can only be called by the current owner. NOTE: Renouncing ownership will leave the contract without an owner, thereby removing any functionality that is only available to the owner."
      },
      "transferOwnership(address)": {
        "details": "Transfers ownership of the contract to a new account (`newOwner`). Can only be called by the current owner."
      },
      "withdraw(uint256)": {
        "details": "withdraw function. OnlyOwner.",
        "params": {
          "_amount": "the amount to withdraw."
        }
      }
    },
    "version": 1
  },
  "userdoc": {
    "kind": "user",
    "methods": {
      "withdraw(uint256)": {
        "notice": "withdraw function. Can only be used by the owner of the contract."
      }
    },
    "version": 1
  }
}