{
  "contractName": "ETHStakingManager",
  "abi": [
    {
      "inputs": [
        {
          "internalType": "address",
          "name": "_byxAddress",
          "type": "address"
        },
        {
          "internalType": "address",
          "name": "_PPAddress",
          "type": "address"
        }
      ],
      "stateMutability": "nonpayable",
      "type": "constructor"
    },
    {
      "anonymous": false,
      "inputs": [
        {
          "indexed": false,
          "internalType": "address",
          "name": "user",
          "type": "address"
        }
      ],
      "name": "LogBadCall",
      "type": "event"
    },
    {
      "anonymous": false,
      "inputs": [
        {
          "indexed": false,
          "internalType": "address",
          "name": "user",
          "type": "address"
        },
        {
          "indexed": false,
          "internalType": "uint256",
          "name": "quantity",
          "type": "uint256"
        }
      ],
      "name": "LogDepot",
      "type": "event"
    },
    {
      "anonymous": false,
      "inputs": [
        {
          "indexed": true,
          "internalType": "address",
          "name": "previousOwner",
          "type": "address"
        },
        {
          "indexed": true,
          "internalType": "address",
          "name": "newOwner",
          "type": "address"
        }
      ],
      "name": "OwnershipTransferred",
      "type": "event"
    },
    {
      "anonymous": false,
      "inputs": [],
      "name": "PoolUpdate",
      "type": "event"
    },
    {
      "anonymous": false,
      "inputs": [
        {
          "indexed": false,
          "internalType": "address",
          "name": "user",
          "type": "address"
        },
        {
          "indexed": false,
          "internalType": "uint256",
          "name": "amount",
          "type": "uint256"
        }
      ],
      "name": "RewardsClaimed",
      "type": "event"
    },
    {
      "anonymous": false,
      "inputs": [
        {
          "indexed": false,
          "internalType": "address",
          "name": "user",
          "type": "address"
        },
        {
          "indexed": false,
          "internalType": "uint256",
          "name": "amount",
          "type": "uint256"
        }
      ],
      "name": "Stake",
      "type": "event"
    },
    {
      "anonymous": false,
      "inputs": [
        {
          "indexed": false,
          "internalType": "address",
          "name": "user",
          "type": "address"
        },
        {
          "indexed": false,
          "internalType": "uint256",
          "name": "amount",
          "type": "uint256"
        }
      ],
      "name": "WithdrawStake",
      "type": "event"
    },
    {
      "stateMutability": "nonpayable",
      "type": "fallback"
    },
    {
      "inputs": [],
      "name": "APR",
      "outputs": [
        {
          "internalType": "uint256",
          "name": "",
          "type": "uint256"
        }
      ],
      "stateMutability": "view",
      "type": "function",
      "constant": true
    },
    {
      "inputs": [],
      "name": "owner",
      "outputs": [
        {
          "internalType": "address",
          "name": "",
          "type": "address"
        }
      ],
      "stateMutability": "view",
      "type": "function",
      "constant": true
    },
    {
      "inputs": [],
      "name": "renounceOwnership",
      "outputs": [],
      "stateMutability": "nonpayable",
      "type": "function"
    },
    {
      "inputs": [
        {
          "internalType": "address",
          "name": "newOwner",
          "type": "address"
        }
      ],
      "name": "transferOwnership",
      "outputs": [],
      "stateMutability": "nonpayable",
      "type": "function"
    },
    {
      "stateMutability": "payable",
      "type": "receive",
      "payable": true
    },
    {
      "inputs": [
        {
          "internalType": "address",
          "name": "_user",
          "type": "address"
        }
      ],
      "name": "getUserInfo",
      "outputs": [
        {
          "components": [
            {
              "internalType": "uint256",
              "name": "pendingRewards",
              "type": "uint256"
            },
            {
              "internalType": "uint256",
              "name": "ethAmountStaked",
              "type": "uint256"
            }
          ],
          "internalType": "struct ETHStakingManager.User",
          "name": "",
          "type": "tuple"
        }
      ],
      "stateMutability": "view",
      "type": "function",
      "constant": true
    },
    {
      "inputs": [
        {
          "internalType": "uint256",
          "name": "_amount",
          "type": "uint256"
        }
      ],
      "name": "withdraw",
      "outputs": [],
      "stateMutability": "nonpayable",
      "type": "function"
    },
    {
      "inputs": [],
      "name": "depositStake",
      "outputs": [],
      "stateMutability": "payable",
      "type": "function",
      "payable": true
    },
    {
      "inputs": [
        {
          "internalType": "uint256",
          "name": "_amount",
          "type": "uint256"
        }
      ],
      "name": "withdrawStake",
      "outputs": [],
      "stateMutability": "nonpayable",
      "type": "function"
    },
    {
      "inputs": [],
      "name": "claimRewards",
      "outputs": [],
      "stateMutability": "nonpayable",
      "type": "function"
    }
  ],
  "bytecode": "0x60806040526a108b2a2c280290940000006004556103206005553480156200002657600080fd5b506040516200176f3803806200176f83398181016040528101906200004c919062000233565b6200006c62000060620000fd60201b60201c565b6200010560201b60201c565b81600160006101000a81548173ffffffffffffffffffffffffffffffffffffffff021916908373ffffffffffffffffffffffffffffffffffffffff16021790555080600260006101000a81548173ffffffffffffffffffffffffffffffffffffffff021916908373ffffffffffffffffffffffffffffffffffffffff1602179055504360038190555050506200027a565b600033905090565b60008060009054906101000a900473ffffffffffffffffffffffffffffffffffffffff169050816000806101000a81548173ffffffffffffffffffffffffffffffffffffffff021916908373ffffffffffffffffffffffffffffffffffffffff1602179055508173ffffffffffffffffffffffffffffffffffffffff168173ffffffffffffffffffffffffffffffffffffffff167f8be0079c531659141344cd1fd0a4f28419497f9722a3daafe3b4186f6b6457e060405160405180910390a35050565b600080fd5b600073ffffffffffffffffffffffffffffffffffffffff82169050919050565b6000620001fb82620001ce565b9050919050565b6200020d81620001ee565b81146200021957600080fd5b50565b6000815190506200022d8162000202565b92915050565b600080604083850312156200024d576200024c620001c9565b5b60006200025d858286016200021c565b925050602062000270858286016200021c565b9150509250929050565b6114e5806200028a6000396000f3fe60806040526004361061008a5760003560e01c80636386c1c7116100595780636386c1c714610183578063715018a6146101c05780638da5cb5b146101d7578063bd30558e14610202578063f2fde38b1461022d576100ca565b80630d2d76a21461011057806325d5971f1461011a5780632e1a7d4d14610143578063372500ab1461016c576100ca565b366100ca577f1d76c7e5736b9b335988489baea5b96ec803f8f1194842fe5ce3a6ec85e79b5633346040516100c0929190610df5565b60405180910390a1005b3480156100d657600080fd5b507fcc97ff3d49208ba08dc7ada5cf9e88e59e047be7d363118838f7af1233c49c43336040516101069190610e1e565b60405180910390a1005b610118610256565b005b34801561012657600080fd5b50610141600480360381019061013c9190610e6a565b6103eb565b005b34801561014f57600080fd5b5061016a60048036038101906101659190610e6a565b610576565b005b34801561017857600080fd5b506101816105ea565b005b34801561018f57600080fd5b506101aa60048036038101906101a59190610ec3565b6107e3565b6040516101b79190610f2e565b60405180910390f35b3480156101cc57600080fd5b506101d5610850565b005b3480156101e357600080fd5b506101ec610864565b6040516101f99190610e1e565b60405180910390f35b34801561020e57600080fd5b5061021761088d565b6040516102249190610f49565b60405180910390f35b34801561023957600080fd5b50610254600480360381019061024f9190610ec3565b610893565b005b67016345785d8a00003410156102a1576040517f08c379a000000000000000000000000000000000000000000000000000000000815260040161029890610fc1565b60405180910390fd5b6102a9610916565b6000600860003373ffffffffffffffffffffffffffffffffffffffff1673ffffffffffffffffffffffffffffffffffffffff1681526020019081526020016000206001015403610357576009339080600181540180825580915050600190039060005260206000200160009091909190916101000a81548173ffffffffffffffffffffffffffffffffffffffff021916908373ffffffffffffffffffffffffffffffffffffffff1602179055505b34600860003373ffffffffffffffffffffffffffffffffffffffff1673ffffffffffffffffffffffffffffffffffffffff16815260200190815260200160002060010160008282546103a99190611010565b925050819055507febedb8b3c678666e7f36970bc8f57abf6d8fa2e828c0da91ea5b75bf68ed101a33346040516103e1929190610df5565b60405180910390a1565b600860003373ffffffffffffffffffffffffffffffffffffffff1673ffffffffffffffffffffffffffffffffffffffff16815260200190815260200160002060010154811115610470576040517f08c379a0000000000000000000000000000000000000000000000000000000008152600401610467906110b2565b60405180910390fd5b610478610916565b80600860003373ffffffffffffffffffffffffffffffffffffffff1673ffffffffffffffffffffffffffffffffffffffff16815260200190815260200160002060010160008282546104ca91906110d2565b925050819055503373ffffffffffffffffffffffffffffffffffffffff16816040516104f590611137565b60006040518083038185875af1925050503d8060008114610532576040519150601f19603f3d011682016040523d82523d6000602084013e610537565b606091505b5050507f141ef67c4a6d3ec2adfb2f66d33c2b11de5b4f34344757554d430570b18a92ec338260405161056b929190610df5565b60405180910390a150565b61057e610b07565b3373ffffffffffffffffffffffffffffffffffffffff16816040516105a290611137565b60006040518083038185875af1925050503d80600081146105df576040519150601f19603f3d011682016040523d82523d6000602084013e6105e4565b606091505b50505050565b6105f2610916565b6000600860003373ffffffffffffffffffffffffffffffffffffffff1673ffffffffffffffffffffffffffffffffffffffff1681526020019081526020016000206000015411610677576040517f08c379a000000000000000000000000000000000000000000000000000000000815260040161066e90611198565b60405180910390fd5b6000600860003373ffffffffffffffffffffffffffffffffffffffff1673ffffffffffffffffffffffffffffffffffffffff1681526020019081526020016000206000015490506000600860003373ffffffffffffffffffffffffffffffffffffffff1673ffffffffffffffffffffffffffffffffffffffff16815260200190815260200160002060000181905550600160009054906101000a900473ffffffffffffffffffffffffffffffffffffffff1673ffffffffffffffffffffffffffffffffffffffff1663a9059cbb33836040518363ffffffff1660e01b8152600401610763929190610df5565b6020604051808303816000875af1158015610782573d6000803e3d6000fd5b505050506040513d601f19601f820116820180604052508101906107a691906111f0565b507ffc30cddea38e2bf4d6ea7d3f9ed3b6ad7f176419f4963bd81318067a4aee73fe33826040516107d8929190610df5565b60405180910390a150565b6107eb610d81565b600860008373ffffffffffffffffffffffffffffffffffffffff1673ffffffffffffffffffffffffffffffffffffffff168152602001908152602001600020604051806040016040529081600082015481526020016001820154815250509050919050565b610858610b07565b6108626000610b85565b565b60008060009054906101000a900473ffffffffffffffffffffffffffffffffffffffff16905090565b60055481565b61089b610b07565b600073ffffffffffffffffffffffffffffffffffffffff168173ffffffffffffffffffffffffffffffffffffffff160361090a576040517f08c379a00000000000000000000000000000000000000000000000000000000081526004016109019061128f565b60405180910390fd5b61091381610b85565b50565b6119006003546109269190611010565b431115610b0557610935610c49565b600060075460055460065461094a91906112af565b6109549190611338565b905060006003544361096691906110d2565b905060005b600980549050811015610ace5760006405705d50008385600860006009878154811061099a57610999611369565b5b9060005260206000200160009054906101000a900473ffffffffffffffffffffffffffffffffffffffff1673ffffffffffffffffffffffffffffffffffffffff1673ffffffffffffffffffffffffffffffffffffffff16815260200190815260200160002060010154610a0d91906112af565b610a1791906112af565b610a219190611338565b9050806008600060098581548110610a3c57610a3b611369565b5b9060005260206000200160009054906101000a900473ffffffffffffffffffffffffffffffffffffffff1673ffffffffffffffffffffffffffffffffffffffff1673ffffffffffffffffffffffffffffffffffffffff1681526020019081526020016000206000016000828254610ab39190611010565b92505081905550508080610ac690611398565b91505061096b565b50436003819055507f4b45f0e13fcabe9807b071cc5b1dfa0695d028e28bef2d6a2e8715e4841c46a160405160405180910390a150505b565b610b0f610d79565b73ffffffffffffffffffffffffffffffffffffffff16610b2d610864565b73ffffffffffffffffffffffffffffffffffffffff1614610b83576040517f08c379a0000000000000000000000000000000000000000000000000000000008152600401610b7a9061142c565b60405180910390fd5b565b60008060009054906101000a900473ffffffffffffffffffffffffffffffffffffffff169050816000806101000a81548173ffffffffffffffffffffffffffffffffffffffff021916908373ffffffffffffffffffffffffffffffffffffffff1602179055508173ffffffffffffffffffffffffffffffffffffffff168173ffffffffffffffffffffffffffffffffffffffff167f8be0079c531659141344cd1fd0a4f28419497f9722a3daafe3b4186f6b6457e060405160405180910390a35050565b600260009054906101000a900473ffffffffffffffffffffffffffffffffffffffff1673ffffffffffffffffffffffffffffffffffffffff16636aa83fea6040518163ffffffff1660e01b8152600401602060405180830381865afa158015610cb6573d6000803e3d6000fd5b505050506040513d601f19601f82011682018060405250810190610cda9190611482565b600681905550600260009054906101000a900473ffffffffffffffffffffffffffffffffffffffff1673ffffffffffffffffffffffffffffffffffffffff16639f1eaa176040518163ffffffff1660e01b8152600401602060405180830381865afa158015610d4d573d6000803e3d6000fd5b505050506040513d601f19601f82011682018060405250810190610d719190611482565b600781905550565b600033905090565b604051806040016040528060008152602001600081525090565b600073ffffffffffffffffffffffffffffffffffffffff82169050919050565b6000610dc682610d9b565b9050919050565b610dd681610dbb565b82525050565b6000819050919050565b610def81610ddc565b82525050565b6000604082019050610e0a6000830185610dcd565b610e176020830184610de6565b9392505050565b6000602082019050610e336000830184610dcd565b92915050565b600080fd5b610e4781610ddc565b8114610e5257600080fd5b50565b600081359050610e6481610e3e565b92915050565b600060208284031215610e8057610e7f610e39565b5b6000610e8e84828501610e55565b91505092915050565b610ea081610dbb565b8114610eab57600080fd5b50565b600081359050610ebd81610e97565b92915050565b600060208284031215610ed957610ed8610e39565b5b6000610ee784828501610eae565b91505092915050565b610ef981610ddc565b82525050565b604082016000820151610f156000850182610ef0565b506020820151610f286020850182610ef0565b50505050565b6000604082019050610f436000830184610eff565b92915050565b6000602082019050610f5e6000830184610de6565b92915050565b600082825260208201905092915050565b7f4d696e696d756d207374616b6520697320302e31204554482e00000000000000600082015250565b6000610fab601983610f64565b9150610fb682610f75565b602082019050919050565b60006020820190508181036000830152610fda81610f9e565b9050919050565b7f4e487b7100000000000000000000000000000000000000000000000000000000600052601160045260246000fd5b600061101b82610ddc565b915061102683610ddc565b9250827fffffffffffffffffffffffffffffffffffffffffffffffffffffffffffffffff0382111561105b5761105a610fe1565b5b828201905092915050565b7f4e6f7420656e6f75676820455448207374616b65642e00000000000000000000600082015250565b600061109c601683610f64565b91506110a782611066565b602082019050919050565b600060208201905081810360008301526110cb8161108f565b9050919050565b60006110dd82610ddc565b91506110e883610ddc565b9250828210156110fb576110fa610fe1565b5b828203905092915050565b600081905092915050565b50565b6000611121600083611106565b915061112c82611111565b600082019050919050565b600061114282611114565b9150819050919050565b7f596f752068617665206e6f207265776172647320746f20636c61696d2e000000600082015250565b6000611182601d83610f64565b915061118d8261114c565b602082019050919050565b600060208201905081810360008301526111b181611175565b9050919050565b60008115159050919050565b6111cd816111b8565b81146111d857600080fd5b50565b6000815190506111ea816111c4565b92915050565b60006020828403121561120657611205610e39565b5b6000611214848285016111db565b91505092915050565b7f4f776e61626c653a206e6577206f776e657220697320746865207a65726f206160008201527f6464726573730000000000000000000000000000000000000000000000000000602082015250565b6000611279602683610f64565b91506112848261121d565b604082019050919050565b600060208201905081810360008301526112a88161126c565b9050919050565b60006112ba82610ddc565b91506112c583610ddc565b9250817fffffffffffffffffffffffffffffffffffffffffffffffffffffffffffffffff04831182151516156112fe576112fd610fe1565b5b828202905092915050565b7f4e487b7100000000000000000000000000000000000000000000000000000000600052601260045260246000fd5b600061134382610ddc565b915061134e83610ddc565b92508261135e5761135d611309565b5b828204905092915050565b7f4e487b7100000000000000000000000000000000000000000000000000000000600052603260045260246000fd5b60006113a382610ddc565b91507fffffffffffffffffffffffffffffffffffffffffffffffffffffffffffffffff82036113d5576113d4610fe1565b5b600182019050919050565b7f4f776e61626c653a2063616c6c6572206973206e6f7420746865206f776e6572600082015250565b6000611416602083610f64565b9150611421826113e0565b602082019050919050565b6000602082019050818103600083015261144581611409565b9050919050565b6000819050919050565b61145f8161144c565b811461146a57600080fd5b50565b60008151905061147c81611456565b92915050565b60006020828403121561149857611497610e39565b5b60006114a68482850161146d565b9150509291505056fea26469706673582212201ea403f7c0dbdcaa6df430c7143813db7220d7703a14e3918886ebbf2854efae64736f6c634300080e0033",
  "immutableReferences": {},
  "source": "// SPDX-License-Identifier: MIT\npragma solidity 0.8.14;\n\nimport \"@openzeppelin/contracts/access/Ownable.sol\";\nimport \"@openzeppelin/contracts/token/ERC20/IERC20.sol\";\nimport \"./interfaces/IPriceProvider.sol\";\n\ncontract ETHStakingManager is Ownable {\n\n    IERC20 BYX;\n    IPriceProvider PriceProvider;\n\n    /// BYX token fund for staking rewards\n    uint lastBlockUpdate;\n    uint BYXFund = 20000000 * 10 ** 18; // 20 000 000 tokens\n    uint public APR = 800; // in bps -> 800 bps = 8% annual rate\n    uint ETHPrice;\n    uint BYXPrice;\n\n    struct User {\n        uint pendingRewards;   // in BYX\n        uint ethAmountStaked;  // in ETH\n    }\n\n    mapping(address => User) users;\n    address[] userList;\n\n    event Stake(address user, uint amount);\n    event WithdrawStake(address user, uint amount);\n    event RewardsClaimed(address user, uint amount);\n    event PoolUpdate();\n\n    event LogBadCall(address user);\n    event LogDepot(address user, uint quantity);\n\n    /*************************************************************************************************/\n    /*                                        SPECIAL FUNCTIONS                                      */\n    /*************************************************************************************************/\n\n    constructor(address _byxAddress, address _PPAddress) {\n        // inject BYX address and price provider address in the deploy.\n        BYX = IERC20(_byxAddress);\n        PriceProvider = IPriceProvider(_PPAddress);\n        lastBlockUpdate = block.number;\n    }\n\n    /**\n    * @dev receive function will emit event in case of ether sent to the contract.\n    */\n    receive() external payable {\n        emit LogDepot(msg.sender, msg.value);\n    }\n\n    /**\n     * @dev fallback function will emit event in case of bad call of the contract.\n     */\n    fallback() external {\n        emit LogBadCall(msg.sender);\n    }\n\n    /*************************************************************************************************/\n    /*                                          VIEW FUNCTIONS                                       */\n    /*************************************************************************************************/\n\n    function getUserInfo(address _user) external view returns(User memory){\n        return users[_user];\n    }\n\n    /*************************************************************************************************/\n    /*                                        EXTERNAL FUNCTIONS                                     */\n    /*************************************************************************************************/\n\n    /**\n     * @notice withdraw function. Can only be used by the owner of the contract.\n     *\n     * @dev withdraw function. OnlyOwner.\n     *\n     * @param _amount the amount to withdraw.\n     */\n    function withdraw(uint _amount) external onlyOwner {\n        msg.sender.call{value: _amount}(\"\");\n    }\n\n    function depositStake() external payable {\n        // We set a mimimum amount to stake to protect potential DOS vulnerability in loop in _updateRewards() function.\n        require(msg.value >= 1 * 10 ** 17, 'Minimum stake is 0.1 ETH.');\n        _updateRewards();\n        if(users[msg.sender].ethAmountStaked == 0) {\n            userList.push(msg.sender);\n        }\n        users[msg.sender].ethAmountStaked += msg.value;\n        emit Stake(msg.sender, msg.value);\n    }\n\n    function withdrawStake(uint _amount) external {\n        require(_amount <= users[msg.sender].ethAmountStaked, 'Not enough ETH staked.');\n        _updateRewards();\n        users[msg.sender].ethAmountStaked -= _amount;\n        msg.sender.call{value: _amount}(\"\");\n        emit WithdrawStake(msg.sender, _amount);\n    }\n\n    function claimRewards() external {\n        _updateRewards();\n        require(users[msg.sender].pendingRewards > 0, 'You have no rewards to claim.');\n        uint _amount = users[msg.sender].pendingRewards;\n        users[msg.sender].pendingRewards = 0;\n        BYX.transfer(msg.sender, _amount);\n        emit RewardsClaimed(msg.sender, _amount);\n    }\n\n    /*************************************************************************************************/\n    /*                                        INTERNAL FUNCTIONS                                     */\n    /*************************************************************************************************/\n\n    function _updateRewards() internal {\n        // We decide to update rewards only if it has not been updated for 1 day.\n        if (block.number > lastBlockUpdate + 6400) {\n            _updatePrices();\n            uint BYXYearlyRewardPerETH = ETHPrice * APR / BYXPrice;\n            uint nbOfBlockToUpdate = block.number - lastBlockUpdate;\n            // Risk for DDOS is minimum as potential attacker needs to stake ETH to add an entry in the array\n            // Therefore, we add a minimum amount to stake to protect this potential vulnerability\n            for (uint i = 0; i < userList.length; i++) {\n                // New Reward = user ETH staked amount * yearly reward in BYX (in bps) * period ratio (time passed / a year)\n                uint _newRewards = users[userList[i]].ethAmountStaked * BYXYearlyRewardPerETH * nbOfBlockToUpdate / (10000 * 6400 * 365);\n                users[userList[i]].pendingRewards += _newRewards;\n            }\n            lastBlockUpdate = block.number;\n            emit PoolUpdate();\n        }\n    }\n\n    function _updatePrices() internal {\n        ETHPrice = uint(PriceProvider.getLatestETHUSDPrice());\n        BYXPrice = uint(PriceProvider.getLatestBYXUSDPrice());\n    }\n\n}\n",
  "sourcePath": "/Users/rey/Code/Alyra/6_Defi/Alyra-project4-deFi-dApp/truffle/contracts/ETHStakingManager.sol",
  "compiler": {
    "name": "solc",
    "version": "0.8.14+commit.80d49f37.Emscripten.clang"
  },
  "schemaVersion": "3.4.7",
  "updatedAt": "2022-08-06T21:20:57.459Z",
  "networkType": "ethereum",
  "devdoc": {
    "kind": "dev",
    "methods": {
      "owner()": {
        "details": "Returns the address of the current owner."
      },
      "renounceOwnership()": {
        "details": "Leaves the contract without owner. It will not be possible to call `onlyOwner` functions anymore. Can only be called by the current owner. NOTE: Renouncing ownership will leave the contract without an owner, thereby removing any functionality that is only available to the owner."
      },
      "transferOwnership(address)": {
        "details": "Transfers ownership of the contract to a new account (`newOwner`). Can only be called by the current owner."
      },
      "withdraw(uint256)": {
        "details": "withdraw function. OnlyOwner.",
        "params": {
          "_amount": "the amount to withdraw."
        }
      }
    },
    "version": 1
  },
  "userdoc": {
    "kind": "user",
    "methods": {
      "withdraw(uint256)": {
        "notice": "withdraw function. Can only be used by the owner of the contract."
      }
    },
    "version": 1
  }
}