{
  "contractName": "ETHStakingManager",
  "abi": [
    {
      "inputs": [
        {
          "internalType": "address",
          "name": "_byxAddress",
          "type": "address"
        },
        {
          "internalType": "address",
          "name": "_PPAddress",
          "type": "address"
        }
      ],
      "stateMutability": "nonpayable",
      "type": "constructor"
    },
    {
      "anonymous": false,
      "inputs": [
        {
          "indexed": false,
          "internalType": "address",
          "name": "user",
          "type": "address"
        }
      ],
      "name": "LogBadCall",
      "type": "event"
    },
    {
      "anonymous": false,
      "inputs": [
        {
          "indexed": false,
          "internalType": "address",
          "name": "user",
          "type": "address"
        },
        {
          "indexed": false,
          "internalType": "uint256",
          "name": "quantity",
          "type": "uint256"
        }
      ],
      "name": "LogDepot",
      "type": "event"
    },
    {
      "anonymous": false,
      "inputs": [
        {
          "indexed": true,
          "internalType": "address",
          "name": "previousOwner",
          "type": "address"
        },
        {
          "indexed": true,
          "internalType": "address",
          "name": "newOwner",
          "type": "address"
        }
      ],
      "name": "OwnershipTransferred",
      "type": "event"
    },
    {
      "anonymous": false,
      "inputs": [],
      "name": "PoolUpdate",
      "type": "event"
    },
    {
      "anonymous": false,
      "inputs": [
        {
          "indexed": false,
          "internalType": "address",
          "name": "user",
          "type": "address"
        },
        {
          "indexed": false,
          "internalType": "uint256",
          "name": "amount",
          "type": "uint256"
        }
      ],
      "name": "RewardsClaimed",
      "type": "event"
    },
    {
      "anonymous": false,
      "inputs": [
        {
          "indexed": false,
          "internalType": "address",
          "name": "user",
          "type": "address"
        },
        {
          "indexed": false,
          "internalType": "uint256",
          "name": "amount",
          "type": "uint256"
        }
      ],
      "name": "Stake",
      "type": "event"
    },
    {
      "anonymous": false,
      "inputs": [
        {
          "indexed": false,
          "internalType": "address",
          "name": "user",
          "type": "address"
        },
        {
          "indexed": false,
          "internalType": "uint256",
          "name": "amount",
          "type": "uint256"
        }
      ],
      "name": "WithdrawStake",
      "type": "event"
    },
    {
      "stateMutability": "nonpayable",
      "type": "fallback"
    },
    {
      "inputs": [],
      "name": "APR",
      "outputs": [
        {
          "internalType": "uint256",
          "name": "",
          "type": "uint256"
        }
      ],
      "stateMutability": "view",
      "type": "function",
      "constant": true
    },
    {
      "inputs": [],
      "name": "owner",
      "outputs": [
        {
          "internalType": "address",
          "name": "",
          "type": "address"
        }
      ],
      "stateMutability": "view",
      "type": "function",
      "constant": true
    },
    {
      "inputs": [],
      "name": "renounceOwnership",
      "outputs": [],
      "stateMutability": "nonpayable",
      "type": "function"
    },
    {
      "inputs": [
        {
          "internalType": "address",
          "name": "newOwner",
          "type": "address"
        }
      ],
      "name": "transferOwnership",
      "outputs": [],
      "stateMutability": "nonpayable",
      "type": "function"
    },
    {
      "stateMutability": "payable",
      "type": "receive",
      "payable": true
    },
    {
      "inputs": [
        {
          "internalType": "address",
          "name": "_user",
          "type": "address"
        }
      ],
      "name": "getUserInfo",
      "outputs": [
        {
          "components": [
            {
              "internalType": "uint256",
              "name": "pendingRewards",
              "type": "uint256"
            },
            {
              "internalType": "uint256",
              "name": "ethAmountStaked",
              "type": "uint256"
            }
          ],
          "internalType": "struct ETHStakingManager.User",
          "name": "",
          "type": "tuple"
        }
      ],
      "stateMutability": "view",
      "type": "function",
      "constant": true
    },
    {
      "inputs": [
        {
          "internalType": "uint256",
          "name": "_amount",
          "type": "uint256"
        }
      ],
      "name": "withdraw",
      "outputs": [],
      "stateMutability": "nonpayable",
      "type": "function"
    },
    {
      "inputs": [],
      "name": "depositStake",
      "outputs": [],
      "stateMutability": "payable",
      "type": "function",
      "payable": true
    },
    {
      "inputs": [
        {
          "internalType": "uint256",
          "name": "_amount",
          "type": "uint256"
        }
      ],
      "name": "withdrawStake",
      "outputs": [],
      "stateMutability": "nonpayable",
      "type": "function"
    },
    {
      "inputs": [],
      "name": "claimRewards",
      "outputs": [],
      "stateMutability": "nonpayable",
      "type": "function"
    }
  ],
  "bytecode": "0x60806040526a108b2a2c280290940000006004556103206005553480156200002657600080fd5b50604051620017853803806200178583398181016040528101906200004c919062000233565b6200006c62000060620000fd60201b60201c565b6200010560201b60201c565b81600160006101000a81548173ffffffffffffffffffffffffffffffffffffffff021916908373ffffffffffffffffffffffffffffffffffffffff16021790555080600260006101000a81548173ffffffffffffffffffffffffffffffffffffffff021916908373ffffffffffffffffffffffffffffffffffffffff1602179055504360038190555050506200027a565b600033905090565b60008060009054906101000a900473ffffffffffffffffffffffffffffffffffffffff169050816000806101000a81548173ffffffffffffffffffffffffffffffffffffffff021916908373ffffffffffffffffffffffffffffffffffffffff1602179055508173ffffffffffffffffffffffffffffffffffffffff168173ffffffffffffffffffffffffffffffffffffffff167f8be0079c531659141344cd1fd0a4f28419497f9722a3daafe3b4186f6b6457e060405160405180910390a35050565b600080fd5b600073ffffffffffffffffffffffffffffffffffffffff82169050919050565b6000620001fb82620001ce565b9050919050565b6200020d81620001ee565b81146200021957600080fd5b50565b6000815190506200022d8162000202565b92915050565b600080604083850312156200024d576200024c620001c9565b5b60006200025d858286016200021c565b925050602062000270858286016200021c565b9150509250929050565b6114fb806200028a6000396000f3fe60806040526004361061008a5760003560e01c80636386c1c7116100595780636386c1c714610183578063715018a6146101c05780638da5cb5b146101d7578063bd30558e14610202578063f2fde38b1461022d576100ca565b80630d2d76a21461011057806325d5971f1461011a5780632e1a7d4d14610143578063372500ab1461016c576100ca565b366100ca577f1d76c7e5736b9b335988489baea5b96ec803f8f1194842fe5ce3a6ec85e79b5633346040516100c0929190610e0b565b60405180910390a1005b3480156100d657600080fd5b507fcc97ff3d49208ba08dc7ada5cf9e88e59e047be7d363118838f7af1233c49c43336040516101069190610e34565b60405180910390a1005b610118610256565b005b34801561012657600080fd5b50610141600480360381019061013c9190610e80565b6103eb565b005b34801561014f57600080fd5b5061016a60048036038101906101659190610e80565b6103f7565b005b34801561017857600080fd5b5061018161046b565b005b34801561018f57600080fd5b506101aa60048036038101906101a59190610ed9565b610475565b6040516101b79190610f44565b60405180910390f35b3480156101cc57600080fd5b506101d56104e2565b005b3480156101e357600080fd5b506101ec6104f6565b6040516101f99190610e34565b60405180910390f35b34801561020e57600080fd5b5061021761051f565b6040516102249190610f5f565b60405180910390f35b34801561023957600080fd5b50610254600480360381019061024f9190610ed9565b610525565b005b67016345785d8a00003410156102a1576040517f08c379a000000000000000000000000000000000000000000000000000000000815260040161029890610fd7565b60405180910390fd5b6102a96105a8565b6000600860003373ffffffffffffffffffffffffffffffffffffffff1673ffffffffffffffffffffffffffffffffffffffff1681526020019081526020016000206001015403610357576009339080600181540180825580915050600190039060005260206000200160009091909190916101000a81548173ffffffffffffffffffffffffffffffffffffffff021916908373ffffffffffffffffffffffffffffffffffffffff1602179055505b34600860003373ffffffffffffffffffffffffffffffffffffffff1673ffffffffffffffffffffffffffffffffffffffff16815260200190815260200160002060010160008282546103a99190611026565b925050819055507febedb8b3c678666e7f36970bc8f57abf6d8fa2e828c0da91ea5b75bf68ed101a33346040516103e1929190610e0b565b60405180910390a1565b6103f481610799565b50565b6103ff610924565b3373ffffffffffffffffffffffffffffffffffffffff1681604051610423906110ad565b60006040518083038185875af1925050503d8060008114610460576040519150601f19603f3d011682016040523d82523d6000602084013e610465565b606091505b50505050565b6104736109a2565b565b61047d610d97565b600860008373ffffffffffffffffffffffffffffffffffffffff1673ffffffffffffffffffffffffffffffffffffffff168152602001908152602001600020604051806040016040529081600082015481526020016001820154815250509050919050565b6104ea610924565b6104f46000610b9b565b565b60008060009054906101000a900473ffffffffffffffffffffffffffffffffffffffff16905090565b60055481565b61052d610924565b600073ffffffffffffffffffffffffffffffffffffffff168173ffffffffffffffffffffffffffffffffffffffff160361059c576040517f08c379a000000000000000000000000000000000000000000000000000000000815260040161059390611134565b60405180910390fd5b6105a581610b9b565b50565b6119006003546105b89190611026565b431115610797576105c7610c5f565b60006007546006546005546105dc9190611154565b6105e691906111dd565b90506000600354436105f8919061120e565b905060005b6009805490508110156107605760006405705d50008385600860006009878154811061062c5761062b611242565b5b9060005260206000200160009054906101000a900473ffffffffffffffffffffffffffffffffffffffff1673ffffffffffffffffffffffffffffffffffffffff1673ffffffffffffffffffffffffffffffffffffffff1681526020019081526020016000206001015461069f9190611154565b6106a99190611154565b6106b391906111dd565b90508060086000600985815481106106ce576106cd611242565b5b9060005260206000200160009054906101000a900473ffffffffffffffffffffffffffffffffffffffff1673ffffffffffffffffffffffffffffffffffffffff1673ffffffffffffffffffffffffffffffffffffffff16815260200190815260200160002060000160008282546107459190611026565b9250508190555050808061075890611271565b9150506105fd565b50436003819055507f4b45f0e13fcabe9807b071cc5b1dfa0695d028e28bef2d6a2e8715e4841c46a160405160405180910390a150505b565b6107a16105a8565b600860003373ffffffffffffffffffffffffffffffffffffffff1673ffffffffffffffffffffffffffffffffffffffff16815260200190815260200160002060010154811115610826576040517f08c379a000000000000000000000000000000000000000000000000000000000815260040161081d90611305565b60405180910390fd5b80600860003373ffffffffffffffffffffffffffffffffffffffff1673ffffffffffffffffffffffffffffffffffffffff1681526020019081526020016000206001016000828254610878919061120e565b925050819055503373ffffffffffffffffffffffffffffffffffffffff16816040516108a3906110ad565b60006040518083038185875af1925050503d80600081146108e0576040519150601f19603f3d011682016040523d82523d6000602084013e6108e5565b606091505b5050507f141ef67c4a6d3ec2adfb2f66d33c2b11de5b4f34344757554d430570b18a92ec3382604051610919929190610e0b565b60405180910390a150565b61092c610d8f565b73ffffffffffffffffffffffffffffffffffffffff1661094a6104f6565b73ffffffffffffffffffffffffffffffffffffffff16146109a0576040517f08c379a000000000000000000000000000000000000000000000000000000000815260040161099790611371565b60405180910390fd5b565b6109aa6105a8565b6000600860003373ffffffffffffffffffffffffffffffffffffffff1673ffffffffffffffffffffffffffffffffffffffff1681526020019081526020016000206000015411610a2f576040517f08c379a0000000000000000000000000000000000000000000000000000000008152600401610a26906113dd565b60405180910390fd5b6000600860003373ffffffffffffffffffffffffffffffffffffffff1673ffffffffffffffffffffffffffffffffffffffff1681526020019081526020016000206000015490506000600860003373ffffffffffffffffffffffffffffffffffffffff1673ffffffffffffffffffffffffffffffffffffffff16815260200190815260200160002060000181905550600160009054906101000a900473ffffffffffffffffffffffffffffffffffffffff1673ffffffffffffffffffffffffffffffffffffffff1663a9059cbb33836040518363ffffffff1660e01b8152600401610b1b929190610e0b565b6020604051808303816000875af1158015610b3a573d6000803e3d6000fd5b505050506040513d601f19601f82011682018060405250810190610b5e9190611435565b507ffc30cddea38e2bf4d6ea7d3f9ed3b6ad7f176419f4963bd81318067a4aee73fe3382604051610b90929190610e0b565b60405180910390a150565b60008060009054906101000a900473ffffffffffffffffffffffffffffffffffffffff169050816000806101000a81548173ffffffffffffffffffffffffffffffffffffffff021916908373ffffffffffffffffffffffffffffffffffffffff1602179055508173ffffffffffffffffffffffffffffffffffffffff168173ffffffffffffffffffffffffffffffffffffffff167f8be0079c531659141344cd1fd0a4f28419497f9722a3daafe3b4186f6b6457e060405160405180910390a35050565b600260009054906101000a900473ffffffffffffffffffffffffffffffffffffffff1673ffffffffffffffffffffffffffffffffffffffff16636aa83fea6040518163ffffffff1660e01b8152600401602060405180830381865afa158015610ccc573d6000803e3d6000fd5b505050506040513d601f19601f82011682018060405250810190610cf09190611498565b600681905550600260009054906101000a900473ffffffffffffffffffffffffffffffffffffffff1673ffffffffffffffffffffffffffffffffffffffff16639f1eaa176040518163ffffffff1660e01b8152600401602060405180830381865afa158015610d63573d6000803e3d6000fd5b505050506040513d601f19601f82011682018060405250810190610d879190611498565b600781905550565b600033905090565b604051806040016040528060008152602001600081525090565b600073ffffffffffffffffffffffffffffffffffffffff82169050919050565b6000610ddc82610db1565b9050919050565b610dec81610dd1565b82525050565b6000819050919050565b610e0581610df2565b82525050565b6000604082019050610e206000830185610de3565b610e2d6020830184610dfc565b9392505050565b6000602082019050610e496000830184610de3565b92915050565b600080fd5b610e5d81610df2565b8114610e6857600080fd5b50565b600081359050610e7a81610e54565b92915050565b600060208284031215610e9657610e95610e4f565b5b6000610ea484828501610e6b565b91505092915050565b610eb681610dd1565b8114610ec157600080fd5b50565b600081359050610ed381610ead565b92915050565b600060208284031215610eef57610eee610e4f565b5b6000610efd84828501610ec4565b91505092915050565b610f0f81610df2565b82525050565b604082016000820151610f2b6000850182610f06565b506020820151610f3e6020850182610f06565b50505050565b6000604082019050610f596000830184610f15565b92915050565b6000602082019050610f746000830184610dfc565b92915050565b600082825260208201905092915050565b7f4d696e696d756d207374616b6520697320302e31204554482e00000000000000600082015250565b6000610fc1601983610f7a565b9150610fcc82610f8b565b602082019050919050565b60006020820190508181036000830152610ff081610fb4565b9050919050565b7f4e487b7100000000000000000000000000000000000000000000000000000000600052601160045260246000fd5b600061103182610df2565b915061103c83610df2565b9250827fffffffffffffffffffffffffffffffffffffffffffffffffffffffffffffffff0382111561107157611070610ff7565b5b828201905092915050565b600081905092915050565b50565b600061109760008361107c565b91506110a282611087565b600082019050919050565b60006110b88261108a565b9150819050919050565b7f4f776e61626c653a206e6577206f776e657220697320746865207a65726f206160008201527f6464726573730000000000000000000000000000000000000000000000000000602082015250565b600061111e602683610f7a565b9150611129826110c2565b604082019050919050565b6000602082019050818103600083015261114d81611111565b9050919050565b600061115f82610df2565b915061116a83610df2565b9250817fffffffffffffffffffffffffffffffffffffffffffffffffffffffffffffffff04831182151516156111a3576111a2610ff7565b5b828202905092915050565b7f4e487b7100000000000000000000000000000000000000000000000000000000600052601260045260246000fd5b60006111e882610df2565b91506111f383610df2565b925082611203576112026111ae565b5b828204905092915050565b600061121982610df2565b915061122483610df2565b92508282101561123757611236610ff7565b5b828203905092915050565b7f4e487b7100000000000000000000000000000000000000000000000000000000600052603260045260246000fd5b600061127c82610df2565b91507fffffffffffffffffffffffffffffffffffffffffffffffffffffffffffffffff82036112ae576112ad610ff7565b5b600182019050919050565b7f4e6f7420656e6f75676820455448207374616b65642e00000000000000000000600082015250565b60006112ef601683610f7a565b91506112fa826112b9565b602082019050919050565b6000602082019050818103600083015261131e816112e2565b9050919050565b7f4f776e61626c653a2063616c6c6572206973206e6f7420746865206f776e6572600082015250565b600061135b602083610f7a565b915061136682611325565b602082019050919050565b6000602082019050818103600083015261138a8161134e565b9050919050565b7f596f752068617665206e6f207265776172647320746f20636c61696d2e000000600082015250565b60006113c7601d83610f7a565b91506113d282611391565b602082019050919050565b600060208201905081810360008301526113f6816113ba565b9050919050565b60008115159050919050565b611412816113fd565b811461141d57600080fd5b50565b60008151905061142f81611409565b92915050565b60006020828403121561144b5761144a610e4f565b5b600061145984828501611420565b91505092915050565b6000819050919050565b61147581611462565b811461148057600080fd5b50565b6000815190506114928161146c565b92915050565b6000602082840312156114ae576114ad610e4f565b5b60006114bc84828501611483565b9150509291505056fea26469706673582212206e5e981af1b2c295a8450a295b18540c3e816e9510305690a27fc5a1f68dd38164736f6c634300080e0033",
  "immutableReferences": {},
  "source": "// SPDX-License-Identifier: MIT\npragma solidity 0.8.14;\n\nimport \"@openzeppelin/contracts/access/Ownable.sol\";\nimport \"@openzeppelin/contracts/token/ERC20/IERC20.sol\";\nimport \"./interfaces/IPriceProvider.sol\";\n\ncontract ETHStakingManager is Ownable {\n\n    /// External contract\n    IERC20 BYX;\n    IPriceProvider PriceProvider;\n\n    /// BYX token fund for staking rewards\n    uint lastBlockUpdate;\n    uint BYXFund = 20000000 * 10 ** 18; // 20 000 000 tokens\n    uint public APR = 800; // in bps -> 800 bps = 8% annual rate\n    uint ETHPrice;\n    uint BYXPrice;\n\n    /// User Info\n    struct User {\n        uint pendingRewards;   // in BYX\n        uint ethAmountStaked;  // in ETH\n    }\n    /// User retrievers\n    mapping(address => User) users;\n    address[] userList;\n\n    /// Events for activity tracking\n    event Stake(address user, uint amount);\n    event WithdrawStake(address user, uint amount);\n    event RewardsClaimed(address user, uint amount);\n    event PoolUpdate();\n\n    /// Events emitted in case of bad call or unexpected depot on the contract\n    event LogBadCall(address user);\n    event LogDepot(address user, uint quantity);\n\n    /*************************************************************************************************/\n    /*                                        SPECIAL FUNCTIONS                                      */\n    /*************************************************************************************************/\n\n    /**\n     * @notice constructor\n     *\n     * @dev constructor\n     *\n     * @param _byxAddress. The address of BYX contract.\n     *\n     * @param _PPAddress. The address of Price Provider contract.\n     */\n    constructor(address _byxAddress, address _PPAddress) {\n        // inject BYX address and price provider address in the deploy.\n        BYX = IERC20(_byxAddress);\n        PriceProvider = IPriceProvider(_PPAddress);\n        lastBlockUpdate = block.number;\n    }\n\n    /**\n    * @dev receive function will emit event in case of ether sent to the contract.\n    */\n    receive() external payable {\n        emit LogDepot(msg.sender, msg.value);\n    }\n\n    /**\n     * @dev fallback function will emit event in case of bad call of the contract.\n     */\n    fallback() external {\n        emit LogBadCall(msg.sender);\n    }\n\n    /*************************************************************************************************/\n    /*                                          VIEW FUNCTIONS                                       */\n    /*************************************************************************************************/\n\n    /**\n     * @notice Get User Info.\n     *\n     * @dev Get User Info.\n     *     struct User {\n     *      uint pendingRewards;   // in BYX\n     *      uint ethAmountStaked;  // in ETH\n     *     }\n     *\n     * @param _user the address of the user.\n     *\n     * @return User memory. A User (struct described above).\n     */\n    function getUserInfo(address _user) external view returns(User memory){\n        return users[_user];\n    }\n\n    /*************************************************************************************************/\n    /*                                        EXTERNAL FUNCTIONS                                     */\n    /*************************************************************************************************/\n\n    /**\n     * @notice withdraw function. Can only be used by the owner of the contract.\n     *\n     * @dev withdraw function. OnlyOwner.\n     *\n     * @param _amount the amount to withdraw.\n     */\n    function withdraw(uint _amount) external onlyOwner {\n        msg.sender.call{value: _amount}(\"\");\n    }\n\n    /**\n     * @notice staking function. Deposit ETH in the contract for staking.\n     *\n     * @dev staking function. Amount staked is in msg.value.\n     */\n    function depositStake() external payable {\n        // We set a mimimum amount to stake to protect potential DOS vulnerability in loop in _updateRewards() function.\n        require(msg.value >= 1 * 10 ** 17, 'Minimum stake is 0.1 ETH.');\n        _updateRewards();\n        if(users[msg.sender].ethAmountStaked == 0) {\n            userList.push(msg.sender);\n        }\n        users[msg.sender].ethAmountStaked += msg.value;\n        emit Stake(msg.sender, msg.value);\n    }\n\n    /**\n     * @notice unstake function.\n     *\n     * @dev unstake function.\n     *\n     * @param _amount the amount to withdraw.\n     */\n    function withdrawStake(uint _amount) external {\n        _withdrawStake(_amount);\n    }\n\n    /**\n     * @notice claim function.\n     *\n     * @dev claim function.\n     */\n    function claimRewards() external {\n        _claimRewards();\n    }\n\n    /*************************************************************************************************/\n    /*                                        INTERNAL FUNCTIONS                                     */\n    /*************************************************************************************************/\n\n    /**\n     * @dev unstake function.\n     *\n     * @param _amount the amount to withdraw.\n     */\n    function _withdrawStake(uint _amount) internal {\n        _updateRewards();\n        require(_amount <= users[msg.sender].ethAmountStaked, 'Not enough ETH staked.');\n        users[msg.sender].ethAmountStaked -= _amount;\n        msg.sender.call{value: _amount}(\"\");\n        emit WithdrawStake(msg.sender, _amount);\n    }\n\n    /**\n     * @dev claim function.\n     */\n    function _claimRewards() internal {\n        _updateRewards();\n        require(users[msg.sender].pendingRewards > 0, 'You have no rewards to claim.');\n        uint _amount = users[msg.sender].pendingRewards;\n        users[msg.sender].pendingRewards = 0;\n        BYX.transfer(msg.sender, _amount);\n        emit RewardsClaimed(msg.sender, _amount);\n    }\n\n    /**\n     * @dev update function.\n     */\n    function _updateRewards() internal {\n        // We decide to update rewards only if it has not been updated for 1 day.\n        if (block.number > lastBlockUpdate + 6400) {\n            _updatePrices();\n            uint BYXYearlyRewardPerETH = APR * ETHPrice / BYXPrice;\n            uint nbOfBlockToUpdate = block.number - lastBlockUpdate;\n            // Risk for DDOS is minimum as potential attacker needs to stake ETH to add an entry in the array\n            // Therefore, we add a minimum amount to stake to protect this potential vulnerability\n            for (uint i = 0; i < userList.length; i++) {\n                // New Reward = user ETH staked amount * yearly reward in BYX (in bps) * period ratio (time passed / a year)\n                uint _newRewards = users[userList[i]].ethAmountStaked * BYXYearlyRewardPerETH * nbOfBlockToUpdate / (10000 * 6400 * 365);\n                users[userList[i]].pendingRewards += _newRewards;\n            }\n            lastBlockUpdate = block.number;\n            emit PoolUpdate();\n        }\n    }\n\n    /**\n     * @dev update ETH & BYX Prices.\n     * Prices are get from PriceProvider which get them from Chainlink data feed.\n     *\n     * !!! Use appropriate Price Provider depending on deployed network !!!\n     */\n    function _updatePrices() internal {\n        ETHPrice = uint(PriceProvider.getLatestETHUSDPrice());\n        BYXPrice = uint(PriceProvider.getLatestBYXUSDPrice());\n    }\n\n}",
  "sourcePath": "/home/jack/Dev/PROJEX/4_Alyra_Projet_deFi_Staking_App/truffle/contracts/ETHStakingManager.sol",
  "compiler": {
    "name": "solc",
    "version": "0.8.14+commit.80d49f37.Emscripten.clang"
  },
  "schemaVersion": "3.4.7",
  "updatedAt": "2022-08-07T13:11:22.290Z",
  "networkType": "ethereum",
  "devdoc": {
    "kind": "dev",
    "methods": {
      "claimRewards()": {
        "details": "claim function."
      },
      "constructor": {
        "details": "constructor",
        "params": {
          "_PPAddress": ". The address of Price Provider contract.",
          "_byxAddress": ". The address of BYX contract."
        }
      },
      "depositStake()": {
        "details": "staking function. Amount staked is in msg.value."
      },
      "getUserInfo(address)": {
        "details": "Get User Info.     struct User {      uint pendingRewards;   // in BYX      uint ethAmountStaked;  // in ETH     }",
        "params": {
          "_user": "the address of the user."
        },
        "returns": {
          "_0": "User memory. A User (struct described above)."
        }
      },
      "owner()": {
        "details": "Returns the address of the current owner."
      },
      "renounceOwnership()": {
        "details": "Leaves the contract without owner. It will not be possible to call `onlyOwner` functions anymore. Can only be called by the current owner. NOTE: Renouncing ownership will leave the contract without an owner, thereby removing any functionality that is only available to the owner."
      },
      "transferOwnership(address)": {
        "details": "Transfers ownership of the contract to a new account (`newOwner`). Can only be called by the current owner."
      },
      "withdraw(uint256)": {
        "details": "withdraw function. OnlyOwner.",
        "params": {
          "_amount": "the amount to withdraw."
        }
      },
      "withdrawStake(uint256)": {
        "details": "unstake function.",
        "params": {
          "_amount": "the amount to withdraw."
        }
      }
    },
    "version": 1
  },
  "userdoc": {
    "events": {
      "LogBadCall(address)": {
        "notice": "Events emitted in case of bad call or unexpected depot on the contract"
      },
      "Stake(address,uint256)": {
        "notice": "Events for activity tracking"
      }
    },
    "kind": "user",
    "methods": {
      "claimRewards()": {
        "notice": "claim function."
      },
      "constructor": {
        "notice": "constructor"
      },
      "depositStake()": {
        "notice": "staking function. Deposit ETH in the contract for staking."
      },
      "getUserInfo(address)": {
        "notice": "Get User Info."
      },
      "withdraw(uint256)": {
        "notice": "withdraw function. Can only be used by the owner of the contract."
      },
      "withdrawStake(uint256)": {
        "notice": "unstake function."
      }
    },
    "version": 1
  }
}