{
  "contractName": "ETHUSDPriceProvider",
  "abi": [
    {
      "inputs": [],
      "stateMutability": "nonpayable",
      "type": "constructor"
    },
    {
      "anonymous": false,
      "inputs": [
        {
          "indexed": false,
          "internalType": "address",
          "name": "user",
          "type": "address"
        }
      ],
      "name": "LogBadCall",
      "type": "event"
    },
    {
      "anonymous": false,
      "inputs": [
        {
          "indexed": false,
          "internalType": "address",
          "name": "user",
          "type": "address"
        },
        {
          "indexed": false,
          "internalType": "uint256",
          "name": "quantity",
          "type": "uint256"
        }
      ],
      "name": "LogDepot",
      "type": "event"
    },
    {
      "anonymous": false,
      "inputs": [
        {
          "indexed": true,
          "internalType": "address",
          "name": "previousOwner",
          "type": "address"
        },
        {
          "indexed": true,
          "internalType": "address",
          "name": "newOwner",
          "type": "address"
        }
      ],
      "name": "OwnershipTransferred",
      "type": "event"
    },
    {
      "stateMutability": "nonpayable",
      "type": "fallback"
    },
    {
      "inputs": [],
      "name": "owner",
      "outputs": [
        {
          "internalType": "address",
          "name": "",
          "type": "address"
        }
      ],
      "stateMutability": "view",
      "type": "function",
      "constant": true
    },
    {
      "inputs": [],
      "name": "renounceOwnership",
      "outputs": [],
      "stateMutability": "nonpayable",
      "type": "function"
    },
    {
      "inputs": [
        {
          "internalType": "address",
          "name": "newOwner",
          "type": "address"
        }
      ],
      "name": "transferOwnership",
      "outputs": [],
      "stateMutability": "nonpayable",
      "type": "function"
    },
    {
      "stateMutability": "payable",
      "type": "receive",
      "payable": true
    },
    {
      "inputs": [
        {
          "internalType": "uint256",
          "name": "_amount",
          "type": "uint256"
        }
      ],
      "name": "withdraw",
      "outputs": [],
      "stateMutability": "nonpayable",
      "type": "function"
    },
    {
      "inputs": [
        {
          "internalType": "address",
          "name": "_pair",
          "type": "address"
        }
      ],
      "name": "setAddr",
      "outputs": [],
      "stateMutability": "nonpayable",
      "type": "function"
    },
    {
      "inputs": [],
      "name": "getLatestPrice",
      "outputs": [
        {
          "internalType": "int256",
          "name": "",
          "type": "int256"
        }
      ],
      "stateMutability": "view",
      "type": "function",
      "constant": true
    }
  ],
  "bytecode": "0x608060405234801561001057600080fd5b5061002d61002261008760201b60201c565b61008f60201b60201c565b739326bfa02add2366b30bacb125260af641031331600160006101000a81548173ffffffffffffffffffffffffffffffffffffffff021916908373ffffffffffffffffffffffffffffffffffffffff160217905550610153565b600033905090565b60008060009054906101000a900473ffffffffffffffffffffffffffffffffffffffff169050816000806101000a81548173ffffffffffffffffffffffffffffffffffffffff021916908373ffffffffffffffffffffffffffffffffffffffff1602179055508173ffffffffffffffffffffffffffffffffffffffff168173ffffffffffffffffffffffffffffffffffffffff167f8be0079c531659141344cd1fd0a4f28419497f9722a3daafe3b4186f6b6457e060405160405180910390a35050565b61093c806101626000396000f3fe6080604052600436106100595760003560e01c80632e1a7d4d146100df578063715018a6146101085780638da5cb5b1461011f5780638e15f4731461014a578063d1d80fdf14610175578063f2fde38b1461019e57610099565b36610099577f1d76c7e5736b9b335988489baea5b96ec803f8f1194842fe5ce3a6ec85e79b56333460405161008f929190610584565b60405180910390a1005b3480156100a557600080fd5b507fcc97ff3d49208ba08dc7ada5cf9e88e59e047be7d363118838f7af1233c49c43336040516100d591906105ad565b60405180910390a1005b3480156100eb57600080fd5b50610106600480360381019061010191906105f9565b6101c7565b005b34801561011457600080fd5b5061011d61023b565b005b34801561012b57600080fd5b5061013461024f565b60405161014191906105ad565b60405180910390f35b34801561015657600080fd5b5061015f610278565b60405161016c919061063f565b60405180910390f35b34801561018157600080fd5b5061019c60048036038101906101979190610686565b610319565b005b3480156101aa57600080fd5b506101c560048036038101906101c09190610686565b61035d565b005b6101cf6103e0565b3373ffffffffffffffffffffffffffffffffffffffff16816040516101f3906106e4565b60006040518083038185875af1925050503d8060008114610230576040519150601f19603f3d011682016040523d82523d6000602084013e610235565b606091505b50505050565b6102436103e0565b61024d600061045e565b565b60008060009054906101000a900473ffffffffffffffffffffffffffffffffffffffff16905090565b600080600160009054906101000a900473ffffffffffffffffffffffffffffffffffffffff1673ffffffffffffffffffffffffffffffffffffffff1663feaf968c6040518163ffffffff1660e01b815260040160a060405180830381865afa1580156102e8573d6000803e3d6000fd5b505050506040513d601f19601f8201168201806040525081019061030c919061077c565b5050509150508091505090565b80600160006101000a81548173ffffffffffffffffffffffffffffffffffffffff021916908373ffffffffffffffffffffffffffffffffffffffff16021790555050565b6103656103e0565b600073ffffffffffffffffffffffffffffffffffffffff168173ffffffffffffffffffffffffffffffffffffffff16036103d4576040517f08c379a00000000000000000000000000000000000000000000000000000000081526004016103cb9061087a565b60405180910390fd5b6103dd8161045e565b50565b6103e8610522565b73ffffffffffffffffffffffffffffffffffffffff1661040661024f565b73ffffffffffffffffffffffffffffffffffffffff161461045c576040517f08c379a0000000000000000000000000000000000000000000000000000000008152600401610453906108e6565b60405180910390fd5b565b60008060009054906101000a900473ffffffffffffffffffffffffffffffffffffffff169050816000806101000a81548173ffffffffffffffffffffffffffffffffffffffff021916908373ffffffffffffffffffffffffffffffffffffffff1602179055508173ffffffffffffffffffffffffffffffffffffffff168173ffffffffffffffffffffffffffffffffffffffff167f8be0079c531659141344cd1fd0a4f28419497f9722a3daafe3b4186f6b6457e060405160405180910390a35050565b600033905090565b600073ffffffffffffffffffffffffffffffffffffffff82169050919050565b60006105558261052a565b9050919050565b6105658161054a565b82525050565b6000819050919050565b61057e8161056b565b82525050565b6000604082019050610599600083018561055c565b6105a66020830184610575565b9392505050565b60006020820190506105c2600083018461055c565b92915050565b600080fd5b6105d68161056b565b81146105e157600080fd5b50565b6000813590506105f3816105cd565b92915050565b60006020828403121561060f5761060e6105c8565b5b600061061d848285016105e4565b91505092915050565b6000819050919050565b61063981610626565b82525050565b60006020820190506106546000830184610630565b92915050565b6106638161054a565b811461066e57600080fd5b50565b6000813590506106808161065a565b92915050565b60006020828403121561069c5761069b6105c8565b5b60006106aa84828501610671565b91505092915050565b600081905092915050565b50565b60006106ce6000836106b3565b91506106d9826106be565b600082019050919050565b60006106ef826106c1565b9150819050919050565b600069ffffffffffffffffffff82169050919050565b610718816106f9565b811461072357600080fd5b50565b6000815190506107358161070f565b92915050565b61074481610626565b811461074f57600080fd5b50565b6000815190506107618161073b565b92915050565b600081519050610776816105cd565b92915050565b600080600080600060a08688031215610798576107976105c8565b5b60006107a688828901610726565b95505060206107b788828901610752565b94505060406107c888828901610767565b93505060606107d988828901610767565b92505060806107ea88828901610726565b9150509295509295909350565b600082825260208201905092915050565b7f4f776e61626c653a206e6577206f776e657220697320746865207a65726f206160008201527f6464726573730000000000000000000000000000000000000000000000000000602082015250565b60006108646026836107f7565b915061086f82610808565b604082019050919050565b6000602082019050818103600083015261089381610857565b9050919050565b7f4f776e61626c653a2063616c6c6572206973206e6f7420746865206f776e6572600082015250565b60006108d06020836107f7565b91506108db8261089a565b602082019050919050565b600060208201905081810360008301526108ff816108c3565b905091905056fea2646970667358221220d07ba1d07cbd9ebdbb4d87bd2490e3aca395b77074e172ca42421bf0e046f60f64736f6c634300080e0033",
  "immutableReferences": {},
  "source": "// SPDX-License-Identifier: MIT\npragma solidity 0.8.14;\n\nimport \"@chainlink/contracts/src/v0.8/interfaces/AggregatorV3Interface.sol\";\nimport \"@openzeppelin/contracts/access/Ownable.sol\";\n\ncontract ETHUSDPriceProvider is Ownable {\n\n    AggregatorV3Interface internal priceFeed;\n\n\n    event LogBadCall(address user);\n    event LogDepot(address user, uint quantity);\n\n\n    /** * Network: Kovan\n     * Aggregator: ETH/USD\n     * Address: 0x9326BFA02ADD2366b30bacB125260Af641031331 */\n    constructor() {\n        priceFeed = AggregatorV3Interface(\n            0x9326BFA02ADD2366b30bacB125260Af641031331\n        );\n    }\n\n\n    /**\n    * @dev receive function will emit event in case of ether sent to the contract.\n    */\n    receive() external payable {\n        emit LogDepot(msg.sender, msg.value);\n    }\n\n    /**\n     * @dev fallback function will emit event in case of bad call of the contract.\n     */\n    fallback() external {\n        emit LogBadCall(msg.sender);\n    }\n\n    /**\n     * @notice withdraw function. Can only be used by the owner of the contract.\n     *\n     * @dev withdraw function. OnlyOwner.\n     *\n     * @param _amount the amount to withdraw.\n     */\n    function withdraw(uint _amount) external onlyOwner {\n        msg.sender.call{value: _amount}(\"\");\n    }\n\n    /**\n     * @notice set a pair address\n     *\n     * @dev to set the adress of another pair on chainlink data feed\n     *\n     * @param _pair the address of the pair you want to set\n     *\n     *\n     */\n    function setAddr(address _pair) public {\n        priceFeed = AggregatorV3Interface(_pair);\n    }\n\n    /**\n     *\n     * @dev to set the adress of another pair on chainlink data feed\n     *\n     * @return Returns the latest price\n     *\n     *@dev returns an int256 of latest price\n     */\n    function getLatestPrice() public view returns (int256) {\n        (   /*uint80 roundID*/\n            , int256 price,\n            , /*uint startedAt*/\n            , /*uint timeStamp*/\n            /*uint80 answeredInRound*/\n        ) = priceFeed.latestRoundData();\n        return price;\n    }\n}\n",
  "sourcePath": "/home/xav888/Alyra/Alyra-project4-deFi-dApp/truffle/contracts/EthUsdPrice.sol",
  "compiler": {
    "name": "solc",
    "version": "0.8.14+commit.80d49f37.Emscripten.clang"
  },
  "schemaVersion": "3.4.4",
  "updatedAt": "2022-08-05T12:22:10.462Z",
  "networkType": "ethereum",
  "devdoc": {
    "kind": "dev",
    "methods": {
      "getLatestPrice()": {
        "details": "to set the adress of another pair on chainlink data feedreturns an int256 of latest price",
        "returns": {
          "_0": "Returns the latest price"
        }
      },
      "owner()": {
        "details": "Returns the address of the current owner."
      },
      "renounceOwnership()": {
        "details": "Leaves the contract without owner. It will not be possible to call `onlyOwner` functions anymore. Can only be called by the current owner. NOTE: Renouncing ownership will leave the contract without an owner, thereby removing any functionality that is only available to the owner."
      },
      "setAddr(address)": {
        "details": "to set the adress of another pair on chainlink data feed",
        "params": {
          "_pair": "the address of the pair you want to set"
        }
      },
      "transferOwnership(address)": {
        "details": "Transfers ownership of the contract to a new account (`newOwner`). Can only be called by the current owner."
      },
      "withdraw(uint256)": {
        "details": "withdraw function. OnlyOwner.",
        "params": {
          "_amount": "the amount to withdraw."
        }
      }
    },
    "version": 1
  },
  "userdoc": {
    "kind": "user",
    "methods": {
      "constructor": {
        "notice": "* Network: Kovan Aggregator: ETH/USD Address: 0x9326BFA02ADD2366b30bacB125260Af641031331 "
      },
      "setAddr(address)": {
        "notice": "set a pair address"
      },
      "withdraw(uint256)": {
        "notice": "withdraw function. Can only be used by the owner of the contract."
      }
    },
    "version": 1
  }
}