{
  "contractName": "MockedPriceProvider",
  "abi": [
    {
      "anonymous": false,
      "inputs": [
        {
          "indexed": true,
          "internalType": "address",
          "name": "previousOwner",
          "type": "address"
        },
        {
          "indexed": true,
          "internalType": "address",
          "name": "newOwner",
          "type": "address"
        }
      ],
      "name": "OwnershipTransferred",
      "type": "event"
    },
    {
      "inputs": [],
      "name": "owner",
      "outputs": [
        {
          "internalType": "address",
          "name": "",
          "type": "address"
        }
      ],
      "stateMutability": "view",
      "type": "function",
      "constant": true
    },
    {
      "inputs": [],
      "name": "renounceOwnership",
      "outputs": [],
      "stateMutability": "nonpayable",
      "type": "function"
    },
    {
      "inputs": [
        {
          "internalType": "address",
          "name": "newOwner",
          "type": "address"
        }
      ],
      "name": "transferOwnership",
      "outputs": [],
      "stateMutability": "nonpayable",
      "type": "function"
    },
    {
      "inputs": [],
      "name": "getLatestETHUSDPrice",
      "outputs": [
        {
          "internalType": "int256",
          "name": "",
          "type": "int256"
        }
      ],
      "stateMutability": "pure",
      "type": "function",
      "constant": true
    },
    {
      "inputs": [],
      "name": "getLatestBYXUSDPrice",
      "outputs": [
        {
          "internalType": "int256",
          "name": "",
          "type": "int256"
        }
      ],
      "stateMutability": "pure",
      "type": "function",
      "constant": true
    }
  ],
  "bytecode": "0x608060405234801561001057600080fd5b5061002d61002261003260201b60201c565b61003a60201b60201c565b6100fe565b600033905090565b60008060009054906101000a900473ffffffffffffffffffffffffffffffffffffffff169050816000806101000a81548173ffffffffffffffffffffffffffffffffffffffff021916908373ffffffffffffffffffffffffffffffffffffffff1602179055508173ffffffffffffffffffffffffffffffffffffffff168173ffffffffffffffffffffffffffffffffffffffff167f8be0079c531659141344cd1fd0a4f28419497f9722a3daafe3b4186f6b6457e060405160405180910390a35050565b61053a8061010d6000396000f3fe608060405234801561001057600080fd5b50600436106100575760003560e01c80636aa83fea1461005c578063715018a61461007a5780638da5cb5b146100845780639f1eaa17146100a2578063f2fde38b146100c0575b600080fd5b6100646100dc565b6040516100719190610320565b60405180910390f35b6100826100ed565b005b61008c610101565b604051610099919061037c565b60405180910390f35b6100aa61012a565b6040516100b79190610320565b60405180910390f35b6100da60048036038101906100d591906103c8565b61013a565b005b60006863f18fbb0228850000905090565b6100f56101bd565b6100ff600061023b565b565b60008060009054906101000a900473ffffffffffffffffffffffffffffffffffffffff16905090565b6000677ef4398825460000905090565b6101426101bd565b600073ffffffffffffffffffffffffffffffffffffffff168173ffffffffffffffffffffffffffffffffffffffff16036101b1576040517f08c379a00000000000000000000000000000000000000000000000000000000081526004016101a890610478565b60405180910390fd5b6101ba8161023b565b50565b6101c56102ff565b73ffffffffffffffffffffffffffffffffffffffff166101e3610101565b73ffffffffffffffffffffffffffffffffffffffff1614610239576040517f08c379a0000000000000000000000000000000000000000000000000000000008152600401610230906104e4565b60405180910390fd5b565b60008060009054906101000a900473ffffffffffffffffffffffffffffffffffffffff169050816000806101000a81548173ffffffffffffffffffffffffffffffffffffffff021916908373ffffffffffffffffffffffffffffffffffffffff1602179055508173ffffffffffffffffffffffffffffffffffffffff168173ffffffffffffffffffffffffffffffffffffffff167f8be0079c531659141344cd1fd0a4f28419497f9722a3daafe3b4186f6b6457e060405160405180910390a35050565b600033905090565b6000819050919050565b61031a81610307565b82525050565b60006020820190506103356000830184610311565b92915050565b600073ffffffffffffffffffffffffffffffffffffffff82169050919050565b60006103668261033b565b9050919050565b6103768161035b565b82525050565b6000602082019050610391600083018461036d565b92915050565b600080fd5b6103a58161035b565b81146103b057600080fd5b50565b6000813590506103c28161039c565b92915050565b6000602082840312156103de576103dd610397565b5b60006103ec848285016103b3565b91505092915050565b600082825260208201905092915050565b7f4f776e61626c653a206e6577206f776e657220697320746865207a65726f206160008201527f6464726573730000000000000000000000000000000000000000000000000000602082015250565b60006104626026836103f5565b915061046d82610406565b604082019050919050565b6000602082019050818103600083015261049181610455565b9050919050565b7f4f776e61626c653a2063616c6c6572206973206e6f7420746865206f776e6572600082015250565b60006104ce6020836103f5565b91506104d982610498565b602082019050919050565b600060208201905081810360008301526104fd816104c1565b905091905056fea2646970667358221220a510c0e99b2de612b540cbf4ea889214cee5d9ac2fa354e48d49bbaff05b85f964736f6c634300080e0033",
  "immutableReferences": {},
  "source": "// SPDX-License-Identifier: MIT\npragma solidity 0.8.14;\n\nimport \"@chainlink/contracts/src/v0.8/interfaces/AggregatorV3Interface.sol\";\nimport \"@openzeppelin/contracts/access/Ownable.sol\";\nimport \"./interfaces/IPriceProvider.sol\";\n\ncontract MockedPriceProvider is Ownable, IPriceProvider {\n\n    AggregatorV3Interface internal ethPriceFeed;\n    AggregatorV3Interface internal byxPriceFeed;\n\n    function getLatestETHUSDPrice() public pure returns (int256) {\n        return 1843634 * 10 ** 15;\n    }\n\n    function getLatestBYXUSDPrice() public pure returns (int256) {\n        return 9148 * 10 ** 15;\n    }\n}\n",
  "sourcePath": "/Users/rey/Code/Alyra/6_Defi/Alyra-project4-deFi-dApp/truffle/contracts/MockedPriceProvider.sol",
  "compiler": {
    "name": "solc",
    "version": "0.8.14+commit.80d49f37.Emscripten.clang"
  },
  "schemaVersion": "3.4.7",
  "updatedAt": "2022-08-06T21:26:17.164Z",
  "networkType": "ethereum",
  "devdoc": {
    "kind": "dev",
    "methods": {
      "getLatestBYXUSDPrice()": {
        "details": "give last BYXUSD price"
      },
      "getLatestETHUSDPrice()": {
        "details": "give last ETHUSD price."
      },
      "owner()": {
        "details": "Returns the address of the current owner."
      },
      "renounceOwnership()": {
        "details": "Leaves the contract without owner. It will not be possible to call `onlyOwner` functions anymore. Can only be called by the current owner. NOTE: Renouncing ownership will leave the contract without an owner, thereby removing any functionality that is only available to the owner."
      },
      "transferOwnership(address)": {
        "details": "Transfers ownership of the contract to a new account (`newOwner`). Can only be called by the current owner."
      }
    },
    "version": 1
  },
  "userdoc": {
    "kind": "user",
    "methods": {},
    "version": 1
  }
}