{
  "contractName": "MockedPriceProvider",
  "abi": [
    {
      "inputs": [],
      "name": "getLatestETHUSDPrice",
      "outputs": [
        {
          "internalType": "int256",
          "name": "",
          "type": "int256"
        }
      ],
      "stateMutability": "pure",
      "type": "function",
      "constant": true
    },
    {
      "inputs": [],
      "name": "getLatestBYXUSDPrice",
      "outputs": [
        {
          "internalType": "int256",
          "name": "",
          "type": "int256"
        }
      ],
      "stateMutability": "pure",
      "type": "function",
      "constant": true
    }
  ],
  "bytecode": "0x608060405234801561001057600080fd5b5060f28061001f6000396000f3fe6080604052348015600f57600080fd5b506004361060325760003560e01c80636aa83fea1460375780639f1eaa17146051575b600080fd5b603d606b565b6040516048919060a3565b60405180910390f35b6057607c565b6040516062919060a3565b60405180910390f35b60006863f18fbb0228850000905090565b6000677ef4398825460000905090565b6000819050919050565b609d81608c565b82525050565b600060208201905060b660008301846096565b9291505056fea26469706673582212207affe4d4d9c3de9e9c3c9c2ce429c8fbcca25c28957309cfdb19a4665016367d64736f6c634300080e0033",
  "immutableReferences": {},
  "source": "// SPDX-License-Identifier: MIT\npragma solidity 0.8.14;\n\nimport \"./interfaces/IPriceProvider.sol\";\n\n/**\n * This contract is a mocked contract of PriceProvider.sol\n * As PriceProvider.sol can work only on Kovan network, we need to mock his functions for local network testing purpose.\n */\ncontract MockedPriceProvider is IPriceProvider{\n\n    /**\n     * @dev Return mocked ETHUSD price\n     *\n     * @return Returns the mocked ETHUSD price\n     */\n    function getLatestETHUSDPrice() public pure returns (int256) {\n        return 1843634 * 10 ** 15;\n    }\n\n    /**\n     * @dev Return mocked BYXUSD price\n     *\n     * @return Returns the mocked BYXUSD price\n     */\n    function getLatestBYXUSDPrice() public pure returns (int256) {\n        return 9148 * 10 ** 15;\n    }\n}\n",
  "sourcePath": "/home/jack/Dev/PROJEX/4_Alyra_Projet_deFi_Staking_App/truffle/contracts/MockedPriceProvider.sol",
  "compiler": {
    "name": "solc",
    "version": "0.8.14+commit.80d49f37.Emscripten.clang"
  },
  "schemaVersion": "3.4.7",
  "updatedAt": "2022-08-07T08:14:38.271Z",
  "networkType": "ethereum",
  "devdoc": {
    "kind": "dev",
    "methods": {
      "getLatestBYXUSDPrice()": {
        "details": "Return mocked BYXUSD price",
        "returns": {
          "_0": "Returns the mocked BYXUSD price"
        }
      },
      "getLatestETHUSDPrice()": {
        "details": "Return mocked ETHUSD price",
        "returns": {
          "_0": "Returns the mocked ETHUSD price"
        }
      }
    },
    "version": 1
  },
  "userdoc": {
    "kind": "user",
    "methods": {},
    "notice": "This contract is a mocked contract of PriceProvider.sol As PriceProvider.sol can work only on Kovan network, we need to mock his functions for local network testing purpose.",
    "version": 1
  }
}