{
  "contractName": "MyByxProject",
  "abi": [
    {
      "inputs": [
        {
          "internalType": "address",
          "name": "byxAddress",
          "type": "address"
        }
      ],
      "stateMutability": "nonpayable",
      "type": "constructor"
    },
    {
      "inputs": [
        {
          "internalType": "address",
          "name": "recipient",
          "type": "address"
        },
        {
          "internalType": "uint256",
          "name": "amount",
          "type": "uint256"
        }
      ],
      "name": "foo",
      "outputs": [],
      "stateMutability": "nonpayable",
      "type": "function"
    }
  ],
  "bytecode": "0x608060405234801561001057600080fd5b506040516103c13803806103c1833981810160405281019061003291906100db565b806000806101000a81548173ffffffffffffffffffffffffffffffffffffffff021916908373ffffffffffffffffffffffffffffffffffffffff16021790555050610108565b600080fd5b600073ffffffffffffffffffffffffffffffffffffffff82169050919050565b60006100a88261007d565b9050919050565b6100b88161009d565b81146100c357600080fd5b50565b6000815190506100d5816100af565b92915050565b6000602082840312156100f1576100f0610078565b5b60006100ff848285016100c6565b91505092915050565b6102aa806101176000396000f3fe608060405234801561001057600080fd5b506004361061002b5760003560e01c8063bd0d639f14610030575b600080fd5b61004a60048036038101906100459190610188565b61004c565b005b60008054906101000a900473ffffffffffffffffffffffffffffffffffffffff1673ffffffffffffffffffffffffffffffffffffffff1663a9059cbb83836040518363ffffffff1660e01b81526004016100a79291906101e6565b6020604051808303816000875af11580156100c6573d6000803e3d6000fd5b505050506040513d601f19601f820116820180604052508101906100ea9190610247565b505050565b600080fd5b600073ffffffffffffffffffffffffffffffffffffffff82169050919050565b600061011f826100f4565b9050919050565b61012f81610114565b811461013a57600080fd5b50565b60008135905061014c81610126565b92915050565b6000819050919050565b61016581610152565b811461017057600080fd5b50565b6000813590506101828161015c565b92915050565b6000806040838503121561019f5761019e6100ef565b5b60006101ad8582860161013d565b92505060206101be85828601610173565b9150509250929050565b6101d181610114565b82525050565b6101e081610152565b82525050565b60006040820190506101fb60008301856101c8565b61020860208301846101d7565b9392505050565b60008115159050919050565b6102248161020f565b811461022f57600080fd5b50565b6000815190506102418161021b565b92915050565b60006020828403121561025d5761025c6100ef565b5b600061026b84828501610232565b9150509291505056fea2646970667358221220b990da072a5b96db60ef304b0254790efb9721762b8064bdfe3b93ff069c638a64736f6c634300080e0033",
  "immutableReferences": {},
  "source": "// MyDeFiProject.sol\npragma solidity 0.8.14;\nimport \"@openzeppelin/contracts/token/ERC20/IERC20.sol\";\n\ncontract MyByxProject {\n    IERC20 byx;\n\n    constructor(address byxAddress) {\n        // injecter l'address du token Byx  utiliser\n        byx = IERC20(byxAddress);\n    }\n\n    // fonction qui permet d'effectuer un transfer de dai vers le recipient\n    function foo(address recipient, uint256 amount) external {\n        // quelques instructions\n        byx.transfer(recipient, amount);\n    }\n}\n",
  "sourcePath": "/home/xav888/Alyra/Alyra-project4-deFi-dApp/truffle/contracts/MyByxProject.sol",
  "compiler": {
    "name": "solc",
    "version": "0.8.14+commit.80d49f37.Emscripten.clang"
  },
  "schemaVersion": "3.4.4",
  "updatedAt": "2022-07-23T14:41:21.200Z",
  "networkType": "ethereum",
  "devdoc": {
    "kind": "dev",
    "methods": {},
    "version": 1
  },
  "userdoc": {
    "kind": "user",
    "methods": {},
    "version": 1
  }
}