{
  "contractName": "PriceProvider",
  "abi": [
    {
      "inputs": [],
      "stateMutability": "nonpayable",
      "type": "constructor"
    },
    {
      "anonymous": false,
      "inputs": [
        {
          "indexed": false,
          "internalType": "address",
          "name": "user",
          "type": "address"
        }
      ],
      "name": "LogBadCall",
      "type": "event"
    },
    {
      "anonymous": false,
      "inputs": [
        {
          "indexed": false,
          "internalType": "address",
          "name": "user",
          "type": "address"
        },
        {
          "indexed": false,
          "internalType": "uint256",
          "name": "quantity",
          "type": "uint256"
        }
      ],
      "name": "LogDepot",
      "type": "event"
    },
    {
      "anonymous": false,
      "inputs": [
        {
          "indexed": true,
          "internalType": "address",
          "name": "previousOwner",
          "type": "address"
        },
        {
          "indexed": true,
          "internalType": "address",
          "name": "newOwner",
          "type": "address"
        }
      ],
      "name": "OwnershipTransferred",
      "type": "event"
    },
    {
      "stateMutability": "nonpayable",
      "type": "fallback"
    },
    {
      "inputs": [],
      "name": "owner",
      "outputs": [
        {
          "internalType": "address",
          "name": "",
          "type": "address"
        }
      ],
      "stateMutability": "view",
      "type": "function",
      "constant": true
    },
    {
      "inputs": [],
      "name": "renounceOwnership",
      "outputs": [],
      "stateMutability": "nonpayable",
      "type": "function"
    },
    {
      "inputs": [
        {
          "internalType": "address",
          "name": "newOwner",
          "type": "address"
        }
      ],
      "name": "transferOwnership",
      "outputs": [],
      "stateMutability": "nonpayable",
      "type": "function"
    },
    {
      "stateMutability": "payable",
      "type": "receive",
      "payable": true
    },
    {
      "inputs": [],
      "name": "getLatestETHUSDPrice",
      "outputs": [
        {
          "internalType": "int256",
          "name": "",
          "type": "int256"
        }
      ],
      "stateMutability": "view",
      "type": "function",
      "constant": true
    },
    {
      "inputs": [],
      "name": "getLatestBYXUSDPrice",
      "outputs": [
        {
          "internalType": "int256",
          "name": "",
          "type": "int256"
        }
      ],
      "stateMutability": "view",
      "type": "function",
      "constant": true
    },
    {
      "inputs": [
        {
          "internalType": "uint256",
          "name": "_amount",
          "type": "uint256"
        }
      ],
      "name": "withdraw",
      "outputs": [],
      "stateMutability": "nonpayable",
      "type": "function"
    },
    {
      "inputs": [
        {
          "internalType": "address",
          "name": "_pair",
          "type": "address"
        }
      ],
      "name": "setEthAddr",
      "outputs": [],
      "stateMutability": "nonpayable",
      "type": "function"
    },
    {
      "inputs": [
        {
          "internalType": "address",
          "name": "_pair",
          "type": "address"
        }
      ],
      "name": "setByxAddr",
      "outputs": [],
      "stateMutability": "nonpayable",
      "type": "function"
    }
  ],
  "bytecode": "0x608060405234801561001057600080fd5b5061002d6100226100dc60201b60201c565b6100e460201b60201c565b739326bfa02add2366b30bacb125260af641031331600160006101000a81548173ffffffffffffffffffffffffffffffffffffffff021916908373ffffffffffffffffffffffffffffffffffffffff16021790555073da5904bdbfb4ef12a3955aeca103f51dc87c7c39600260006101000a81548173ffffffffffffffffffffffffffffffffffffffff021916908373ffffffffffffffffffffffffffffffffffffffff1602179055506101a8565b600033905090565b60008060009054906101000a900473ffffffffffffffffffffffffffffffffffffffff169050816000806101000a81548173ffffffffffffffffffffffffffffffffffffffff021916908373ffffffffffffffffffffffffffffffffffffffff1602179055508173ffffffffffffffffffffffffffffffffffffffff168173ffffffffffffffffffffffffffffffffffffffff167f8be0079c531659141344cd1fd0a4f28419497f9722a3daafe3b4186f6b6457e060405160405180910390a35050565b610aab806101b76000396000f3fe60806040526004361061007f5760003560e01c8063715018a61161004e578063715018a6146101ab5780638da5cb5b146101c25780639f1eaa17146101ed578063f2fde38b14610218576100bf565b80632e1a7d4d1461010557806358e0df8a1461012e5780635fcd96b8146101575780636aa83fea14610180576100bf565b366100bf577f1d76c7e5736b9b335988489baea5b96ec803f8f1194842fe5ce3a6ec85e79b5633346040516100b59291906106f3565b60405180910390a1005b3480156100cb57600080fd5b507fcc97ff3d49208ba08dc7ada5cf9e88e59e047be7d363118838f7af1233c49c43336040516100fb919061071c565b60405180910390a1005b34801561011157600080fd5b5061012c60048036038101906101279190610768565b610241565b005b34801561013a57600080fd5b50610155600480360381019061015091906107c1565b6102b5565b005b34801561016357600080fd5b5061017e600480360381019061017991906107c1565b610301565b005b34801561018c57600080fd5b5061019561034d565b6040516101a29190610807565b60405180910390f35b3480156101b757600080fd5b506101c06103ee565b005b3480156101ce57600080fd5b506101d7610402565b6040516101e4919061071c565b60405180910390f35b3480156101f957600080fd5b5061020261042b565b60405161020f9190610807565b60405180910390f35b34801561022457600080fd5b5061023f600480360381019061023a91906107c1565b6104cc565b005b61024961054f565b3373ffffffffffffffffffffffffffffffffffffffff168160405161026d90610853565b60006040518083038185875af1925050503d80600081146102aa576040519150601f19603f3d011682016040523d82523d6000602084013e6102af565b606091505b50505050565b6102bd61054f565b80600260006101000a81548173ffffffffffffffffffffffffffffffffffffffff021916908373ffffffffffffffffffffffffffffffffffffffff16021790555050565b61030961054f565b80600160006101000a81548173ffffffffffffffffffffffffffffffffffffffff021916908373ffffffffffffffffffffffffffffffffffffffff16021790555050565b600080600160009054906101000a900473ffffffffffffffffffffffffffffffffffffffff1673ffffffffffffffffffffffffffffffffffffffff1663feaf968c6040518163ffffffff1660e01b815260040160a060405180830381865afa1580156103bd573d6000803e3d6000fd5b505050506040513d601f19601f820116820180604052508101906103e191906108eb565b5050509150508091505090565b6103f661054f565b61040060006105cd565b565b60008060009054906101000a900473ffffffffffffffffffffffffffffffffffffffff16905090565b600080600260009054906101000a900473ffffffffffffffffffffffffffffffffffffffff1673ffffffffffffffffffffffffffffffffffffffff1663feaf968c6040518163ffffffff1660e01b815260040160a060405180830381865afa15801561049b573d6000803e3d6000fd5b505050506040513d601f19601f820116820180604052508101906104bf91906108eb565b5050509150508091505090565b6104d461054f565b600073ffffffffffffffffffffffffffffffffffffffff168173ffffffffffffffffffffffffffffffffffffffff1603610543576040517f08c379a000000000000000000000000000000000000000000000000000000000815260040161053a906109e9565b60405180910390fd5b61054c816105cd565b50565b610557610691565b73ffffffffffffffffffffffffffffffffffffffff16610575610402565b73ffffffffffffffffffffffffffffffffffffffff16146105cb576040517f08c379a00000000000000000000000000000000000000000000000000000000081526004016105c290610a55565b60405180910390fd5b565b60008060009054906101000a900473ffffffffffffffffffffffffffffffffffffffff169050816000806101000a81548173ffffffffffffffffffffffffffffffffffffffff021916908373ffffffffffffffffffffffffffffffffffffffff1602179055508173ffffffffffffffffffffffffffffffffffffffff168173ffffffffffffffffffffffffffffffffffffffff167f8be0079c531659141344cd1fd0a4f28419497f9722a3daafe3b4186f6b6457e060405160405180910390a35050565b600033905090565b600073ffffffffffffffffffffffffffffffffffffffff82169050919050565b60006106c482610699565b9050919050565b6106d4816106b9565b82525050565b6000819050919050565b6106ed816106da565b82525050565b600060408201905061070860008301856106cb565b61071560208301846106e4565b9392505050565b600060208201905061073160008301846106cb565b92915050565b600080fd5b610745816106da565b811461075057600080fd5b50565b6000813590506107628161073c565b92915050565b60006020828403121561077e5761077d610737565b5b600061078c84828501610753565b91505092915050565b61079e816106b9565b81146107a957600080fd5b50565b6000813590506107bb81610795565b92915050565b6000602082840312156107d7576107d6610737565b5b60006107e5848285016107ac565b91505092915050565b6000819050919050565b610801816107ee565b82525050565b600060208201905061081c60008301846107f8565b92915050565b600081905092915050565b50565b600061083d600083610822565b91506108488261082d565b600082019050919050565b600061085e82610830565b9150819050919050565b600069ffffffffffffffffffff82169050919050565b61088781610868565b811461089257600080fd5b50565b6000815190506108a48161087e565b92915050565b6108b3816107ee565b81146108be57600080fd5b50565b6000815190506108d0816108aa565b92915050565b6000815190506108e58161073c565b92915050565b600080600080600060a0868803121561090757610906610737565b5b600061091588828901610895565b9550506020610926888289016108c1565b9450506040610937888289016108d6565b9350506060610948888289016108d6565b925050608061095988828901610895565b9150509295509295909350565b600082825260208201905092915050565b7f4f776e61626c653a206e6577206f776e657220697320746865207a65726f206160008201527f6464726573730000000000000000000000000000000000000000000000000000602082015250565b60006109d3602683610966565b91506109de82610977565b604082019050919050565b60006020820190508181036000830152610a02816109c6565b9050919050565b7f4f776e61626c653a2063616c6c6572206973206e6f7420746865206f776e6572600082015250565b6000610a3f602083610966565b9150610a4a82610a09565b602082019050919050565b60006020820190508181036000830152610a6e81610a32565b905091905056fea264697066735822122068dae182a368405f88d671aa0b13593c8bafabfae834827952e0b4868ad451ac64736f6c634300080e0033",
  "immutableReferences": {},
  "source": "// SPDX-License-Identifier: MIT\npragma solidity 0.8.14;\n\nimport \"@chainlink/contracts/src/v0.8/interfaces/AggregatorV3Interface.sol\";\nimport \"@openzeppelin/contracts/access/Ownable.sol\";\nimport \"./interfaces/IPriceProvider.sol\";\n\ncontract PriceProvider is Ownable, IPriceProvider {\n\n    AggregatorV3Interface internal ethPriceFeed;\n    AggregatorV3Interface internal byxPriceFeed;\n\n    event LogBadCall(address user);\n    event LogDepot(address user, uint quantity);\n\n    /*************************************************************************************************/\n    /*                                        SPECIAL FUNCTIONS                                      */\n    /*************************************************************************************************/\n\n    /** * Network: Kovan\n     * Aggregator: ETH/USD\n     * Address: 0x9326BFA02ADD2366b30bacB125260Af641031331\n     *\n     * Aggregator: UNI/USD\n     * Address: 0xDA5904BdBfB4EF12a3955aEcA103F51dc87c7C39\n     *\n     * @notice : As we do not have data feed for BYX price, we use UNI price instead for exercise purpose.\n     */\n    constructor() {\n        ethPriceFeed = AggregatorV3Interface(\n            0x9326BFA02ADD2366b30bacB125260Af641031331\n        );\n        byxPriceFeed = AggregatorV3Interface(\n            0xDA5904BdBfB4EF12a3955aEcA103F51dc87c7C39\n        );\n    }\n\n    /**\n    * @dev receive function will emit event in case of ether sent to the contract.\n    */\n    receive() external payable {\n        emit LogDepot(msg.sender, msg.value);\n    }\n\n    /**\n     * @dev fallback function will emit event in case of bad call of the contract.\n     */\n    fallback() external {\n        emit LogBadCall(msg.sender);\n    }\n\n    /*************************************************************************************************/\n    /*                                          VIEW FUNCTIONS                                       */\n    /*************************************************************************************************/\n\n    /**\n     *\n     * @dev Return ETHUSD price\n     *\n     * @return Returns the latest price\n     */\n    function getLatestETHUSDPrice() public view returns (int256) {\n        (   /*uint80 roundID*/\n            , int256 price,\n            , /*uint startedAt*/\n            , /*uint timeStamp*/\n            /*uint80 answeredInRound*/\n            ) = ethPriceFeed.latestRoundData();\n        return price;\n    }\n\n    /**\n    *\n    * @dev Return BYXUSD price\n    *\n    * @return Returns the latest price\n    */\n    function getLatestBYXUSDPrice() public view returns (int256) {\n        (   /*uint80 roundID*/\n            , int256 price,\n            , /*uint startedAt*/\n            , /*uint timeStamp*/\n            /*uint80 answeredInRound*/\n        ) = byxPriceFeed.latestRoundData();\n        return price;\n    }\n\n    /*************************************************************************************************/\n    /*                                        EXTERNAL FUNCTIONS                                     */\n    /*************************************************************************************************/\n\n    /**\n     * @notice withdraw function. Can only be used by the owner of the contract.\n     *\n     * @dev withdraw function. OnlyOwner.\n     *\n     * @param _amount the amount to withdraw.\n     */\n    function withdraw(uint _amount) external onlyOwner {\n        msg.sender.call{value: _amount}(\"\");\n    }\n\n    /**\n     * @notice set ETHUSD pair address\n     *\n     * @dev to set the adress of ETHUSD pair on chainlink data feed\n     *\n     * @param _pair the address of the ETHUSD pair\n     */\n    function setEthAddr(address _pair) external onlyOwner {\n        ethPriceFeed = AggregatorV3Interface(_pair);\n    }\n\n    /**\n    * @notice set BYXUSD pair address\n    *\n    * @dev to set the adress of BYXUSD pair on chainlink data feed\n    *\n    * @param _pair the address of the BYXUSD pair\n    */\n    function setByxAddr(address _pair) external onlyOwner {\n        byxPriceFeed = AggregatorV3Interface(_pair);\n    }\n\n}",
  "sourcePath": "/home/jack/Dev/PROJEX/4_Alyra_Projet_deFi_Staking_App/truffle/contracts/PriceProvider.sol",
  "compiler": {
    "name": "solc",
    "version": "0.8.14+commit.80d49f37.Emscripten.clang"
  },
  "schemaVersion": "3.4.7",
  "updatedAt": "2022-08-06T14:27:29.815Z",
  "networkType": "ethereum",
  "devdoc": {
    "kind": "dev",
    "methods": {
      "getLatestBYXUSDPrice()": {
        "details": "Return BYXUSD price",
        "returns": {
          "_0": "Returns the latest price"
        }
      },
      "getLatestETHUSDPrice()": {
        "details": "Return ETHUSD price",
        "returns": {
          "_0": "Returns the latest price"
        }
      },
      "owner()": {
        "details": "Returns the address of the current owner."
      },
      "renounceOwnership()": {
        "details": "Leaves the contract without owner. It will not be possible to call `onlyOwner` functions anymore. Can only be called by the current owner. NOTE: Renouncing ownership will leave the contract without an owner, thereby removing any functionality that is only available to the owner."
      },
      "setByxAddr(address)": {
        "details": "to set the adress of BYXUSD pair on chainlink data feed",
        "params": {
          "_pair": "the address of the BYXUSD pair"
        }
      },
      "setEthAddr(address)": {
        "details": "to set the adress of ETHUSD pair on chainlink data feed",
        "params": {
          "_pair": "the address of the ETHUSD pair"
        }
      },
      "transferOwnership(address)": {
        "details": "Transfers ownership of the contract to a new account (`newOwner`). Can only be called by the current owner."
      },
      "withdraw(uint256)": {
        "details": "withdraw function. OnlyOwner.",
        "params": {
          "_amount": "the amount to withdraw."
        }
      }
    },
    "version": 1
  },
  "userdoc": {
    "kind": "user",
    "methods": {
      "constructor": {
        "notice": "* Network: Kovan Aggregator: ETH/USD Address: 0x9326BFA02ADD2366b30bacB125260Af641031331 Aggregator: UNI/USD Address: 0xDA5904BdBfB4EF12a3955aEcA103F51dc87c7C39: As we do not have data feed for BYX price, we use UNI price instead for exercise purpose."
      },
      "setByxAddr(address)": {
        "notice": "set BYXUSD pair address"
      },
      "setEthAddr(address)": {
        "notice": "set ETHUSD pair address"
      },
      "withdraw(uint256)": {
        "notice": "withdraw function. Can only be used by the owner of the contract."
      }
    },
    "version": 1
  }
}