{
  "contractName": "sBYX",
  "abi": [
    {
      "inputs": [],
      "stateMutability": "nonpayable",
      "type": "constructor"
    },
    {
      "anonymous": false,
      "inputs": [
        {
          "indexed": true,
          "internalType": "address",
          "name": "owner",
          "type": "address"
        },
        {
          "indexed": true,
          "internalType": "address",
          "name": "spender",
          "type": "address"
        },
        {
          "indexed": false,
          "internalType": "uint256",
          "name": "value",
          "type": "uint256"
        }
      ],
      "name": "Approval",
      "type": "event"
    },
    {
      "anonymous": false,
      "inputs": [
        {
          "indexed": false,
          "internalType": "address",
          "name": "user",
          "type": "address"
        }
      ],
      "name": "LogBadCall",
      "type": "event"
    },
    {
      "anonymous": false,
      "inputs": [
        {
          "indexed": false,
          "internalType": "address",
          "name": "user",
          "type": "address"
        },
        {
          "indexed": false,
          "internalType": "uint256",
          "name": "quantity",
          "type": "uint256"
        }
      ],
      "name": "LogDepot",
      "type": "event"
    },
    {
      "anonymous": false,
      "inputs": [
        {
          "indexed": true,
          "internalType": "address",
          "name": "previousOwner",
          "type": "address"
        },
        {
          "indexed": true,
          "internalType": "address",
          "name": "newOwner",
          "type": "address"
        }
      ],
      "name": "OwnershipTransferred",
      "type": "event"
    },
    {
      "anonymous": false,
      "inputs": [
        {
          "indexed": true,
          "internalType": "address",
          "name": "from",
          "type": "address"
        },
        {
          "indexed": true,
          "internalType": "address",
          "name": "to",
          "type": "address"
        },
        {
          "indexed": false,
          "internalType": "uint256",
          "name": "value",
          "type": "uint256"
        }
      ],
      "name": "Transfer",
      "type": "event"
    },
    {
      "stateMutability": "nonpayable",
      "type": "fallback"
    },
    {
      "inputs": [
        {
          "internalType": "address",
          "name": "owner",
          "type": "address"
        },
        {
          "internalType": "address",
          "name": "spender",
          "type": "address"
        }
      ],
      "name": "allowance",
      "outputs": [
        {
          "internalType": "uint256",
          "name": "",
          "type": "uint256"
        }
      ],
      "stateMutability": "view",
      "type": "function",
      "constant": true
    },
    {
      "inputs": [
        {
          "internalType": "address",
          "name": "spender",
          "type": "address"
        },
        {
          "internalType": "uint256",
          "name": "amount",
          "type": "uint256"
        }
      ],
      "name": "approve",
      "outputs": [
        {
          "internalType": "bool",
          "name": "",
          "type": "bool"
        }
      ],
      "stateMutability": "nonpayable",
      "type": "function"
    },
    {
      "inputs": [
        {
          "internalType": "address",
          "name": "account",
          "type": "address"
        }
      ],
      "name": "balanceOf",
      "outputs": [
        {
          "internalType": "uint256",
          "name": "",
          "type": "uint256"
        }
      ],
      "stateMutability": "view",
      "type": "function",
      "constant": true
    },
    {
      "inputs": [],
      "name": "decimals",
      "outputs": [
        {
          "internalType": "uint8",
          "name": "",
          "type": "uint8"
        }
      ],
      "stateMutability": "view",
      "type": "function",
      "constant": true
    },
    {
      "inputs": [
        {
          "internalType": "address",
          "name": "spender",
          "type": "address"
        },
        {
          "internalType": "uint256",
          "name": "subtractedValue",
          "type": "uint256"
        }
      ],
      "name": "decreaseAllowance",
      "outputs": [
        {
          "internalType": "bool",
          "name": "",
          "type": "bool"
        }
      ],
      "stateMutability": "nonpayable",
      "type": "function"
    },
    {
      "inputs": [
        {
          "internalType": "address",
          "name": "spender",
          "type": "address"
        },
        {
          "internalType": "uint256",
          "name": "addedValue",
          "type": "uint256"
        }
      ],
      "name": "increaseAllowance",
      "outputs": [
        {
          "internalType": "bool",
          "name": "",
          "type": "bool"
        }
      ],
      "stateMutability": "nonpayable",
      "type": "function"
    },
    {
      "inputs": [],
      "name": "name",
      "outputs": [
        {
          "internalType": "string",
          "name": "",
          "type": "string"
        }
      ],
      "stateMutability": "view",
      "type": "function",
      "constant": true
    },
    {
      "inputs": [],
      "name": "owner",
      "outputs": [
        {
          "internalType": "address",
          "name": "",
          "type": "address"
        }
      ],
      "stateMutability": "view",
      "type": "function",
      "constant": true
    },
    {
      "inputs": [],
      "name": "renounceOwnership",
      "outputs": [],
      "stateMutability": "nonpayable",
      "type": "function"
    },
    {
      "inputs": [],
      "name": "symbol",
      "outputs": [
        {
          "internalType": "string",
          "name": "",
          "type": "string"
        }
      ],
      "stateMutability": "view",
      "type": "function",
      "constant": true
    },
    {
      "inputs": [],
      "name": "totalSupply",
      "outputs": [
        {
          "internalType": "uint256",
          "name": "",
          "type": "uint256"
        }
      ],
      "stateMutability": "view",
      "type": "function",
      "constant": true
    },
    {
      "inputs": [
        {
          "internalType": "address",
          "name": "to",
          "type": "address"
        },
        {
          "internalType": "uint256",
          "name": "amount",
          "type": "uint256"
        }
      ],
      "name": "transfer",
      "outputs": [
        {
          "internalType": "bool",
          "name": "",
          "type": "bool"
        }
      ],
      "stateMutability": "nonpayable",
      "type": "function"
    },
    {
      "inputs": [
        {
          "internalType": "address",
          "name": "from",
          "type": "address"
        },
        {
          "internalType": "address",
          "name": "to",
          "type": "address"
        },
        {
          "internalType": "uint256",
          "name": "amount",
          "type": "uint256"
        }
      ],
      "name": "transferFrom",
      "outputs": [
        {
          "internalType": "bool",
          "name": "",
          "type": "bool"
        }
      ],
      "stateMutability": "nonpayable",
      "type": "function"
    },
    {
      "inputs": [
        {
          "internalType": "address",
          "name": "newOwner",
          "type": "address"
        }
      ],
      "name": "transferOwnership",
      "outputs": [],
      "stateMutability": "nonpayable",
      "type": "function"
    },
    {
      "stateMutability": "payable",
      "type": "receive",
      "payable": true
    },
    {
      "inputs": [
        {
          "internalType": "uint256",
          "name": "_amount",
          "type": "uint256"
        }
      ],
      "name": "withdraw",
      "outputs": [],
      "stateMutability": "nonpayable",
      "type": "function"
    },
    {
      "inputs": [
        {
          "internalType": "address",
          "name": "_addr",
          "type": "address"
        }
      ],
      "name": "authorize",
      "outputs": [],
      "stateMutability": "nonpayable",
      "type": "function"
    },
    {
      "inputs": [
        {
          "internalType": "address",
          "name": "_to",
          "type": "address"
        },
        {
          "internalType": "uint256",
          "name": "_amount",
          "type": "uint256"
        }
      ],
      "name": "mint",
      "outputs": [],
      "stateMutability": "nonpayable",
      "type": "function"
    },
    {
      "inputs": [
        {
          "internalType": "uint256",
          "name": "amount",
          "type": "uint256"
        }
      ],
      "name": "burn",
      "outputs": [],
      "stateMutability": "nonpayable",
      "type": "function"
    },
    {
      "inputs": [
        {
          "internalType": "address",
          "name": "account",
          "type": "address"
        },
        {
          "internalType": "uint256",
          "name": "amount",
          "type": "uint256"
        }
      ],
      "name": "burnFrom",
      "outputs": [],
      "stateMutability": "nonpayable",
      "type": "function"
    }
  ],
  "bytecode": "0x60806040523480156200001157600080fd5b506040518060400160405280600a81526020017f5374616b656420427978000000000000000000000000000000000000000000008152506040518060400160405280600481526020017f73425958000000000000000000000000000000000000000000000000000000008152506200009e62000092620000d860201b60201c565b620000e060201b60201c565b8160049080519060200190620000b6929190620001a4565b508060059080519060200190620000cf929190620001a4565b505050620002b8565b600033905090565b60008060009054906101000a900473ffffffffffffffffffffffffffffffffffffffff169050816000806101000a81548173ffffffffffffffffffffffffffffffffffffffff021916908373ffffffffffffffffffffffffffffffffffffffff1602179055508173ffffffffffffffffffffffffffffffffffffffff168173ffffffffffffffffffffffffffffffffffffffff167f8be0079c531659141344cd1fd0a4f28419497f9722a3daafe3b4186f6b6457e060405160405180910390a35050565b828054620001b29062000283565b90600052602060002090601f016020900481019282620001d6576000855562000222565b82601f10620001f157805160ff191683800117855562000222565b8280016001018555821562000222579182015b828111156200022157825182559160200191906001019062000204565b5b50905062000231919062000235565b5090565b5b808211156200025057600081600090555060010162000236565b5090565b7f4e487b7100000000000000000000000000000000000000000000000000000000600052602260045260246000fd5b600060028204905060018216806200029c57607f821691505b602082108103620002b257620002b162000254565b5b50919050565b61209380620002c86000396000f3fe6080604052600436106101185760003560e01c806370a08231116100a0578063a457c2d711610064578063a457c2d714610424578063a9059cbb14610461578063b6a5d7de1461049e578063dd62ed3e146104c7578063f2fde38b1461050457610158565b806370a0823114610351578063715018a61461038e57806379cc6790146103a55780638da5cb5b146103ce57806395d89b41146103f957610158565b80632e1a7d4d116100e75780632e1a7d4d1461026e578063313ce5671461029757806339509351146102c257806340c10f19146102ff57806342966c681461032857610158565b806306fdde031461019e578063095ea7b3146101c957806318160ddd1461020657806323b872dd1461023157610158565b36610158577f1d76c7e5736b9b335988489baea5b96ec803f8f1194842fe5ce3a6ec85e79b56333460405161014e92919061151b565b60405180910390a1005b34801561016457600080fd5b507fcc97ff3d49208ba08dc7ada5cf9e88e59e047be7d363118838f7af1233c49c43336040516101949190611544565b60405180910390a1005b3480156101aa57600080fd5b506101b361052d565b6040516101c091906115f8565b60405180910390f35b3480156101d557600080fd5b506101f060048036038101906101eb9190611677565b6105bf565b6040516101fd91906116d2565b60405180910390f35b34801561021257600080fd5b5061021b6105e2565b60405161022891906116ed565b60405180910390f35b34801561023d57600080fd5b5061025860048036038101906102539190611708565b6105ec565b60405161026591906116d2565b60405180910390f35b34801561027a57600080fd5b506102956004803603810190610290919061175b565b61061b565b005b3480156102a357600080fd5b506102ac61068f565b6040516102b991906117a4565b60405180910390f35b3480156102ce57600080fd5b506102e960048036038101906102e49190611677565b610698565b6040516102f691906116d2565b60405180910390f35b34801561030b57600080fd5b5061032660048036038101906103219190611677565b6106cf565b005b34801561033457600080fd5b5061034f600480360381019061034a919061175b565b610770565b005b34801561035d57600080fd5b50610378600480360381019061037391906117bf565b61078c565b60405161038591906116ed565b60405180910390f35b34801561039a57600080fd5b506103a36107d5565b005b3480156103b157600080fd5b506103cc60048036038101906103c79190611677565b6107e9565b005b3480156103da57600080fd5b506103e361089c565b6040516103f09190611544565b60405180910390f35b34801561040557600080fd5b5061040e6108c5565b60405161041b91906115f8565b60405180910390f35b34801561043057600080fd5b5061044b60048036038101906104469190611677565b610957565b60405161045891906116d2565b60405180910390f35b34801561046d57600080fd5b5061048860048036038101906104839190611677565b6109ce565b60405161049591906116d2565b60405180910390f35b3480156104aa57600080fd5b506104c560048036038101906104c091906117bf565b6109f1565b005b3480156104d357600080fd5b506104ee60048036038101906104e991906117ec565b610a54565b6040516104fb91906116ed565b60405180910390f35b34801561051057600080fd5b5061052b600480360381019061052691906117bf565b610adb565b005b60606004805461053c9061185b565b80601f01602080910402602001604051908101604052809291908181526020018280546105689061185b565b80156105b55780601f1061058a576101008083540402835291602001916105b5565b820191906000526020600020905b81548152906001019060200180831161059857829003601f168201915b5050505050905090565b6000806105ca610b5e565b90506105d7818585610b66565b600191505092915050565b6000600354905090565b6000806105f7610b5e565b9050610604858285610d2f565b61060f858585610dbb565b60019150509392505050565b61062361103d565b3373ffffffffffffffffffffffffffffffffffffffff1681604051610647906118bd565b60006040518083038185875af1925050503d8060008114610684576040519150601f19603f3d011682016040523d82523d6000602084013e610689565b606091505b50505050565b60006012905090565b6000806106a3610b5e565b90506106c48185856106b58589610a54565b6106bf9190611901565b610b66565b600191505092915050565b60011515600660003373ffffffffffffffffffffffffffffffffffffffff1673ffffffffffffffffffffffffffffffffffffffff16815260200190815260200160002060009054906101000a900460ff16151514610762576040517f08c379a0000000000000000000000000000000000000000000000000000000008152600401610759906119a3565b60405180910390fd5b61076c82826110bb565b5050565b61077861103d565b610789610783610b5e565b8261121b565b50565b6000600160008373ffffffffffffffffffffffffffffffffffffffff1673ffffffffffffffffffffffffffffffffffffffff168152602001908152602001600020549050919050565b6107dd61103d565b6107e760006113f3565b565b60011515600660003373ffffffffffffffffffffffffffffffffffffffff1673ffffffffffffffffffffffffffffffffffffffff16815260200190815260200160002060009054906101000a900460ff1615151461087c576040517f08c379a0000000000000000000000000000000000000000000000000000000008152600401610873906119a3565b60405180910390fd5b61088e82610888610b5e565b83610d2f565b610898828261121b565b5050565b60008060009054906101000a900473ffffffffffffffffffffffffffffffffffffffff16905090565b6060600580546108d49061185b565b80601f01602080910402602001604051908101604052809291908181526020018280546109009061185b565b801561094d5780601f106109225761010080835404028352916020019161094d565b820191906000526020600020905b81548152906001019060200180831161093057829003601f168201915b5050505050905090565b600080610962610b5e565b905060006109708286610a54565b9050838110156109b5576040517f08c379a00000000000000000000000000000000000000000000000000000000081526004016109ac90611a35565b60405180910390fd5b6109c28286868403610b66565b60019250505092915050565b6000806109d9610b5e565b90506109e6818585610dbb565b600191505092915050565b6109f961103d565b6001600660008373ffffffffffffffffffffffffffffffffffffffff1673ffffffffffffffffffffffffffffffffffffffff16815260200190815260200160002060006101000a81548160ff02191690831515021790555050565b6000600260008473ffffffffffffffffffffffffffffffffffffffff1673ffffffffffffffffffffffffffffffffffffffff16815260200190815260200160002060008373ffffffffffffffffffffffffffffffffffffffff1673ffffffffffffffffffffffffffffffffffffffff16815260200190815260200160002054905092915050565b610ae361103d565b600073ffffffffffffffffffffffffffffffffffffffff168173ffffffffffffffffffffffffffffffffffffffff1603610b52576040517f08c379a0000000000000000000000000000000000000000000000000000000008152600401610b4990611ac7565b60405180910390fd5b610b5b816113f3565b50565b600033905090565b600073ffffffffffffffffffffffffffffffffffffffff168373ffffffffffffffffffffffffffffffffffffffff1603610bd5576040517f08c379a0000000000000000000000000000000000000000000000000000000008152600401610bcc90611b59565b60405180910390fd5b600073ffffffffffffffffffffffffffffffffffffffff168273ffffffffffffffffffffffffffffffffffffffff1603610c44576040517f08c379a0000000000000000000000000000000000000000000000000000000008152600401610c3b90611beb565b60405180910390fd5b80600260008573ffffffffffffffffffffffffffffffffffffffff1673ffffffffffffffffffffffffffffffffffffffff16815260200190815260200160002060008473ffffffffffffffffffffffffffffffffffffffff1673ffffffffffffffffffffffffffffffffffffffff168152602001908152602001600020819055508173ffffffffffffffffffffffffffffffffffffffff168373ffffffffffffffffffffffffffffffffffffffff167f8c5be1e5ebec7d5bd14f71427d1e84f3dd0314c0f7b2291e5b200ac8c7c3b92583604051610d2291906116ed565b60405180910390a3505050565b6000610d3b8484610a54565b90507fffffffffffffffffffffffffffffffffffffffffffffffffffffffffffffffff8114610db55781811015610da7576040517f08c379a0000000000000000000000000000000000000000000000000000000008152600401610d9e90611c57565b60405180910390fd5b610db48484848403610b66565b5b50505050565b600073ffffffffffffffffffffffffffffffffffffffff168373ffffffffffffffffffffffffffffffffffffffff1603610e2a576040517f08c379a0000000000000000000000000000000000000000000000000000000008152600401610e2190611ce9565b60405180910390fd5b600073ffffffffffffffffffffffffffffffffffffffff168273ffffffffffffffffffffffffffffffffffffffff1603610e99576040517f08c379a0000000000000000000000000000000000000000000000000000000008152600401610e9090611d7b565b60405180910390fd5b610ea48383836114b7565b6000600160008573ffffffffffffffffffffffffffffffffffffffff1673ffffffffffffffffffffffffffffffffffffffff16815260200190815260200160002054905081811015610f2b576040517f08c379a0000000000000000000000000000000000000000000000000000000008152600401610f2290611e0d565b60405180910390fd5b818103600160008673ffffffffffffffffffffffffffffffffffffffff1673ffffffffffffffffffffffffffffffffffffffff1681526020019081526020016000208190555081600160008573ffffffffffffffffffffffffffffffffffffffff1673ffffffffffffffffffffffffffffffffffffffff1681526020019081526020016000206000828254610fc09190611901565b925050819055508273ffffffffffffffffffffffffffffffffffffffff168473ffffffffffffffffffffffffffffffffffffffff167fddf252ad1be2c89b69c2b068fc378daa952ba7f163c4a11628f55a4df523b3ef8460405161102491906116ed565b60405180910390a36110378484846114bc565b50505050565b611045610b5e565b73ffffffffffffffffffffffffffffffffffffffff1661106361089c565b73ffffffffffffffffffffffffffffffffffffffff16146110b9576040517f08c379a00000000000000000000000000000000000000000000000000000000081526004016110b090611e79565b60405180910390fd5b565b600073ffffffffffffffffffffffffffffffffffffffff168273ffffffffffffffffffffffffffffffffffffffff160361112a576040517f08c379a000000000000000000000000000000000000000000000000000000000815260040161112190611ee5565b60405180910390fd5b611136600083836114b7565b80600360008282546111489190611901565b9250508190555080600160008473ffffffffffffffffffffffffffffffffffffffff1673ffffffffffffffffffffffffffffffffffffffff168152602001908152602001600020600082825461119e9190611901565b925050819055508173ffffffffffffffffffffffffffffffffffffffff16600073ffffffffffffffffffffffffffffffffffffffff167fddf252ad1be2c89b69c2b068fc378daa952ba7f163c4a11628f55a4df523b3ef8360405161120391906116ed565b60405180910390a3611217600083836114bc565b5050565b600073ffffffffffffffffffffffffffffffffffffffff168273ffffffffffffffffffffffffffffffffffffffff160361128a576040517f08c379a000000000000000000000000000000000000000000000000000000000815260040161128190611f77565b60405180910390fd5b611296826000836114b7565b6000600160008473ffffffffffffffffffffffffffffffffffffffff1673ffffffffffffffffffffffffffffffffffffffff1681526020019081526020016000205490508181101561131d576040517f08c379a000000000000000000000000000000000000000000000000000000000815260040161131490612009565b60405180910390fd5b818103600160008573ffffffffffffffffffffffffffffffffffffffff1673ffffffffffffffffffffffffffffffffffffffff1681526020019081526020016000208190555081600360008282546113759190612029565b92505081905550600073ffffffffffffffffffffffffffffffffffffffff168373ffffffffffffffffffffffffffffffffffffffff167fddf252ad1be2c89b69c2b068fc378daa952ba7f163c4a11628f55a4df523b3ef846040516113da91906116ed565b60405180910390a36113ee836000846114bc565b505050565b60008060009054906101000a900473ffffffffffffffffffffffffffffffffffffffff169050816000806101000a81548173ffffffffffffffffffffffffffffffffffffffff021916908373ffffffffffffffffffffffffffffffffffffffff1602179055508173ffffffffffffffffffffffffffffffffffffffff168173ffffffffffffffffffffffffffffffffffffffff167f8be0079c531659141344cd1fd0a4f28419497f9722a3daafe3b4186f6b6457e060405160405180910390a35050565b505050565b505050565b600073ffffffffffffffffffffffffffffffffffffffff82169050919050565b60006114ec826114c1565b9050919050565b6114fc816114e1565b82525050565b6000819050919050565b61151581611502565b82525050565b600060408201905061153060008301856114f3565b61153d602083018461150c565b9392505050565b600060208201905061155960008301846114f3565b92915050565b600081519050919050565b600082825260208201905092915050565b60005b8381101561159957808201518184015260208101905061157e565b838111156115a8576000848401525b50505050565b6000601f19601f8301169050919050565b60006115ca8261155f565b6115d4818561156a565b93506115e481856020860161157b565b6115ed816115ae565b840191505092915050565b6000602082019050818103600083015261161281846115bf565b905092915050565b600080fd5b611628816114e1565b811461163357600080fd5b50565b6000813590506116458161161f565b92915050565b61165481611502565b811461165f57600080fd5b50565b6000813590506116718161164b565b92915050565b6000806040838503121561168e5761168d61161a565b5b600061169c85828601611636565b92505060206116ad85828601611662565b9150509250929050565b60008115159050919050565b6116cc816116b7565b82525050565b60006020820190506116e760008301846116c3565b92915050565b6000602082019050611702600083018461150c565b92915050565b6000806000606084860312156117215761172061161a565b5b600061172f86828701611636565b935050602061174086828701611636565b925050604061175186828701611662565b9150509250925092565b6000602082840312156117715761177061161a565b5b600061177f84828501611662565b91505092915050565b600060ff82169050919050565b61179e81611788565b82525050565b60006020820190506117b96000830184611795565b92915050565b6000602082840312156117d5576117d461161a565b5b60006117e384828501611636565b91505092915050565b600080604083850312156118035761180261161a565b5b600061181185828601611636565b925050602061182285828601611636565b9150509250929050565b7f4e487b7100000000000000000000000000000000000000000000000000000000600052602260045260246000fd5b6000600282049050600182168061187357607f821691505b6020821081036118865761188561182c565b5b50919050565b600081905092915050565b50565b60006118a760008361188c565b91506118b282611897565b600082019050919050565b60006118c88261189a565b9150819050919050565b7f4e487b7100000000000000000000000000000000000000000000000000000000600052601160045260246000fd5b600061190c82611502565b915061191783611502565b9250827fffffffffffffffffffffffffffffffffffffffffffffffffffffffffffffffff0382111561194c5761194b6118d2565b5b828201905092915050565b7f63616c6c6572206973206e6f7420617574686f72697a65640000000000000000600082015250565b600061198d60188361156a565b915061199882611957565b602082019050919050565b600060208201905081810360008301526119bc81611980565b9050919050565b7f45524332303a2064656372656173656420616c6c6f77616e63652062656c6f7760008201527f207a65726f000000000000000000000000000000000000000000000000000000602082015250565b6000611a1f60258361156a565b9150611a2a826119c3565b604082019050919050565b60006020820190508181036000830152611a4e81611a12565b9050919050565b7f4f776e61626c653a206e6577206f776e657220697320746865207a65726f206160008201527f6464726573730000000000000000000000000000000000000000000000000000602082015250565b6000611ab160268361156a565b9150611abc82611a55565b604082019050919050565b60006020820190508181036000830152611ae081611aa4565b9050919050565b7f45524332303a20617070726f76652066726f6d20746865207a65726f2061646460008201527f7265737300000000000000000000000000000000000000000000000000000000602082015250565b6000611b4360248361156a565b9150611b4e82611ae7565b604082019050919050565b60006020820190508181036000830152611b7281611b36565b9050919050565b7f45524332303a20617070726f766520746f20746865207a65726f20616464726560008201527f7373000000000000000000000000000000000000000000000000000000000000602082015250565b6000611bd560228361156a565b9150611be082611b79565b604082019050919050565b60006020820190508181036000830152611c0481611bc8565b9050919050565b7f45524332303a20696e73756666696369656e7420616c6c6f77616e6365000000600082015250565b6000611c41601d8361156a565b9150611c4c82611c0b565b602082019050919050565b60006020820190508181036000830152611c7081611c34565b9050919050565b7f45524332303a207472616e736665722066726f6d20746865207a65726f20616460008201527f6472657373000000000000000000000000000000000000000000000000000000602082015250565b6000611cd360258361156a565b9150611cde82611c77565b604082019050919050565b60006020820190508181036000830152611d0281611cc6565b9050919050565b7f45524332303a207472616e7366657220746f20746865207a65726f206164647260008201527f6573730000000000000000000000000000000000000000000000000000000000602082015250565b6000611d6560238361156a565b9150611d7082611d09565b604082019050919050565b60006020820190508181036000830152611d9481611d58565b9050919050565b7f45524332303a207472616e7366657220616d6f756e742065786365656473206260008201527f616c616e63650000000000000000000000000000000000000000000000000000602082015250565b6000611df760268361156a565b9150611e0282611d9b565b604082019050919050565b60006020820190508181036000830152611e2681611dea565b9050919050565b7f4f776e61626c653a2063616c6c6572206973206e6f7420746865206f776e6572600082015250565b6000611e6360208361156a565b9150611e6e82611e2d565b602082019050919050565b60006020820190508181036000830152611e9281611e56565b9050919050565b7f45524332303a206d696e7420746f20746865207a65726f206164647265737300600082015250565b6000611ecf601f8361156a565b9150611eda82611e99565b602082019050919050565b60006020820190508181036000830152611efe81611ec2565b9050919050565b7f45524332303a206275726e2066726f6d20746865207a65726f2061646472657360008201527f7300000000000000000000000000000000000000000000000000000000000000602082015250565b6000611f6160218361156a565b9150611f6c82611f05565b604082019050919050565b60006020820190508181036000830152611f9081611f54565b9050919050565b7f45524332303a206275726e20616d6f756e7420657863656564732062616c616e60008201527f6365000000000000000000000000000000000000000000000000000000000000602082015250565b6000611ff360228361156a565b9150611ffe82611f97565b604082019050919050565b6000602082019050818103600083015261202281611fe6565b9050919050565b600061203482611502565b915061203f83611502565b925082821015612052576120516118d2565b5b82820390509291505056fea2646970667358221220a5dbaff127ef5a6c74cf37ea810f5ab4b93631adbb85ad6eaace35e9da3999a364736f6c634300080e0033",
  "immutableReferences": {},
  "source": "// SPDX-License-Identifier: MIT\n\npragma solidity 0.8.14;\n\nimport \"@openzeppelin/contracts/token/ERC20/ERC20.sol\";\nimport \"@openzeppelin/contracts/access/Ownable.sol\";\nimport \"./interfaces/IERC20MintableAndBurnable.sol\";\n\ncontract sBYX is Ownable, ERC20, IERC20MintableAndBurnable{\n\n    mapping (address => bool) authorizedAddress;\n\n    // Custom Events\n    event LogBadCall(address user);\n    event LogDepot(address user, uint quantity);\n\n    /*************************************************************************************************/\n    /*                                            MODIFIERS                                          */\n    /*************************************************************************************************/\n\n    /**\n     * @dev Throws if called by any account not authorized.\n     */\n    modifier onlyAuthorized() {\n        require(authorizedAddress[msg.sender] == true, \"caller is not authorized\");\n        _;\n    }\n\n    /*************************************************************************************************/\n    /*                                        SPECIAL FUNCTIONS                                      */\n    /*************************************************************************************************/\n\n    constructor() ERC20(\"Staked Byx\", \"sBYX\") {}\n\n    /**\n    * @dev receive function will emit event in case of ether sent to the contract.\n    */\n    receive() external payable {\n        emit LogDepot(msg.sender, msg.value);\n    }\n\n    /**\n     * @dev fallback function will emit event in case of bad call of the contract.\n     */\n    fallback() external {\n        emit LogBadCall(msg.sender);\n    }\n\n    /*************************************************************************************************/\n    /*                                        EXTERNAL FUNCTIONS                                     */\n    /*************************************************************************************************/\n\n    /**\n     * @notice withdraw function. Can only be used by the owner of the contract.\n     *\n     * @dev withdraw function. OnlyOwner.\n     *\n     * @param _amount the amount to withdraw.\n     */\n    function withdraw(uint _amount) external onlyOwner {\n        msg.sender.call{value: _amount}(\"\");\n    }\n\n    function authorize(address _addr) external onlyOwner {\n        authorizedAddress[_addr] = true;\n    }\n\n    /**\n    * @notice creation  of a ERC20 Byx token\n    *\n    * @dev minting of Byx token\n    *\n    * @param _to the recipient of token\n    *\n    * @param _amount the amount\n    */\n    function mint(address _to, uint256 _amount) external onlyAuthorized {\n        _mint(_to, _amount);\n    }\n\n    /**\n    * @dev Destroys `amount` tokens from the caller.\n    *\n    * See {ERC20-_burn}.\n    */\n    function burn(uint256 amount) public onlyOwner {\n        _burn(_msgSender(), amount);\n    }\n\n    /**\n     * @dev Destroys `amount` tokens from `account`, deducting from the caller's\n     * allowance.\n     *\n     * See {ERC20-_burn} and {ERC20-allowance}.\n     *\n     * Requirements:\n     *\n     * - the caller must have allowance for ``accounts``'s tokens of at least\n     * `amount`.\n     */\n    function burnFrom(address account, uint256 amount) public onlyAuthorized {\n        _spendAllowance(account, _msgSender(), amount);\n        _burn(account, amount);\n    }\n\n}\n",
  "sourcePath": "/home/jack/Dev/PROJEX/4_Alyra_Projet_deFi_Staking_App/truffle/contracts/sBYX.sol",
  "compiler": {
    "name": "solc",
    "version": "0.8.14+commit.80d49f37.Emscripten.clang"
  },
  "schemaVersion": "3.4.7",
  "updatedAt": "2022-07-29T12:34:26.257Z",
  "networkType": "ethereum",
  "devdoc": {
    "kind": "dev",
    "methods": {
      "allowance(address,address)": {
        "details": "See {IERC20-allowance}."
      },
      "approve(address,uint256)": {
        "details": "See {IERC20-approve}. NOTE: If `amount` is the maximum `uint256`, the allowance is not updated on `transferFrom`. This is semantically equivalent to an infinite approval. Requirements: - `spender` cannot be the zero address."
      },
      "balanceOf(address)": {
        "details": "See {IERC20-balanceOf}."
      },
      "burn(uint256)": {
        "details": "Destroys `amount` tokens from the caller. See {ERC20-_burn}."
      },
      "burnFrom(address,uint256)": {
        "details": "Destroys `amount` tokens from `account`, deducting from the caller's allowance. See {ERC20-_burn} and {ERC20-allowance}. Requirements: - the caller must have allowance for ``accounts``'s tokens of at least `amount`."
      },
      "decimals()": {
        "details": "Returns the number of decimals used to get its user representation. For example, if `decimals` equals `2`, a balance of `505` tokens should be displayed to a user as `5.05` (`505 / 10 ** 2`). Tokens usually opt for a value of 18, imitating the relationship between Ether and Wei. This is the value {ERC20} uses, unless this function is overridden; NOTE: This information is only used for _display_ purposes: it in no way affects any of the arithmetic of the contract, including {IERC20-balanceOf} and {IERC20-transfer}."
      },
      "decreaseAllowance(address,uint256)": {
        "details": "Atomically decreases the allowance granted to `spender` by the caller. This is an alternative to {approve} that can be used as a mitigation for problems described in {IERC20-approve}. Emits an {Approval} event indicating the updated allowance. Requirements: - `spender` cannot be the zero address. - `spender` must have allowance for the caller of at least `subtractedValue`."
      },
      "increaseAllowance(address,uint256)": {
        "details": "Atomically increases the allowance granted to `spender` by the caller. This is an alternative to {approve} that can be used as a mitigation for problems described in {IERC20-approve}. Emits an {Approval} event indicating the updated allowance. Requirements: - `spender` cannot be the zero address."
      },
      "mint(address,uint256)": {
        "details": "minting of Byx token",
        "params": {
          "_amount": "the amount",
          "_to": "the recipient of token"
        }
      },
      "name()": {
        "details": "Returns the name of the token."
      },
      "owner()": {
        "details": "Returns the address of the current owner."
      },
      "renounceOwnership()": {
        "details": "Leaves the contract without owner. It will not be possible to call `onlyOwner` functions anymore. Can only be called by the current owner. NOTE: Renouncing ownership will leave the contract without an owner, thereby removing any functionality that is only available to the owner."
      },
      "symbol()": {
        "details": "Returns the symbol of the token, usually a shorter version of the name."
      },
      "totalSupply()": {
        "details": "See {IERC20-totalSupply}."
      },
      "transfer(address,uint256)": {
        "details": "See {IERC20-transfer}. Requirements: - `to` cannot be the zero address. - the caller must have a balance of at least `amount`."
      },
      "transferFrom(address,address,uint256)": {
        "details": "See {IERC20-transferFrom}. Emits an {Approval} event indicating the updated allowance. This is not required by the EIP. See the note at the beginning of {ERC20}. NOTE: Does not update the allowance if the current allowance is the maximum `uint256`. Requirements: - `from` and `to` cannot be the zero address. - `from` must have a balance of at least `amount`. - the caller must have allowance for ``from``'s tokens of at least `amount`."
      },
      "transferOwnership(address)": {
        "details": "Transfers ownership of the contract to a new account (`newOwner`). Can only be called by the current owner."
      },
      "withdraw(uint256)": {
        "details": "withdraw function. OnlyOwner.",
        "params": {
          "_amount": "the amount to withdraw."
        }
      }
    },
    "version": 1
  },
  "userdoc": {
    "kind": "user",
    "methods": {
      "mint(address,uint256)": {
        "notice": "creation  of a ERC20 Byx token"
      },
      "withdraw(uint256)": {
        "notice": "withdraw function. Can only be used by the owner of the contract."
      }
    },
    "version": 1
  }
}